{
  "contractName": "mainTest",
  "abi": [
    {
      "anonymous": false,
      "inputs": [
        {
          "indexed": true,
          "internalType": "address",
          "name": "_from",
          "type": "address"
        },
        {
          "indexed": false,
          "internalType": "uint256",
          "name": "_value",
          "type": "uint256"
        }
      ],
      "name": "Deposit",
      "type": "event"
    },
    {
      "constant": true,
      "inputs": [
        {
          "internalType": "uint256",
          "name": "",
          "type": "uint256"
        }
      ],
      "name": "cfDb",
      "outputs": [
        {
          "internalType": "uint256",
          "name": "totalContributors",
          "type": "uint256"
        },
        {
          "internalType": "uint256",
          "name": "deadline",
          "type": "uint256"
        },
        {
          "internalType": "uint256",
          "name": "goal",
          "type": "uint256"
        },
        {
          "internalType": "uint256",
          "name": "raisedAmount",
          "type": "uint256"
        },
        {
          "internalType": "uint8",
          "name": "catagory",
          "type": "uint8"
        },
        {
          "internalType": "address payable",
          "name": "admin",
          "type": "address"
        }
      ],
      "payable": false,
      "stateMutability": "view",
      "type": "function"
    },
    {
      "constant": true,
      "inputs": [
        {
          "internalType": "uint256",
          "name": "",
          "type": "uint256"
        }
      ],
      "name": "orgDb",
      "outputs": [
        {
          "internalType": "address payable",
          "name": "admin",
          "type": "address"
        },
        {
          "internalType": "string",
          "name": "name",
          "type": "string"
        },
        {
          "internalType": "bool",
          "name": "acceptingZakat",
          "type": "bool"
        },
        {
          "internalType": "uint256",
          "name": "balanceAmount",
          "type": "uint256"
        }
      ],
      "payable": false,
      "stateMutability": "view",
      "type": "function"
    },
    {
      "constant": true,
      "inputs": [
        {
          "internalType": "uint256",
          "name": "",
          "type": "uint256"
        }
      ],
      "name": "votingDb",
      "outputs": [
        {
          "internalType": "uint256",
          "name": "deadline",
          "type": "uint256"
        },
        {
          "internalType": "uint256",
          "name": "positiveVotes",
          "type": "uint256"
        },
        {
          "internalType": "uint256",
          "name": "negativeVotes",
          "type": "uint256"
        },
        {
          "internalType": "bool",
          "name": "valid",
          "type": "bool"
        },
        {
          "internalType": "uint256",
          "name": "amount",
          "type": "uint256"
        },
        {
          "internalType": "uint8",
          "name": "catagory",
          "type": "uint8"
        }
      ],
      "payable": false,
      "stateMutability": "view",
      "type": "function"
    },
    {
      "constant": false,
      "inputs": [
        {
          "internalType": "uint256",
          "name": "deadline",
          "type": "uint256"
        },
        {
          "internalType": "uint256",
          "name": "_amount",
          "type": "uint256"
        },
        {
          "internalType": "uint8",
          "name": "_catagory",
          "type": "uint8"
        }
      ],
      "name": "createVoting",
      "outputs": [],
      "payable": false,
      "stateMutability": "nonpayable",
      "type": "function"
    },
    {
      "constant": false,
      "inputs": [
        {
          "internalType": "address",
          "name": "votingId",
          "type": "address"
        },
        {
          "internalType": "bool",
          "name": "doYouAgree",
          "type": "bool"
        }
      ],
      "name": "vote",
      "outputs": [],
      "payable": false,
      "stateMutability": "nonpayable",
      "type": "function"
    },
    {
      "constant": true,
      "inputs": [
        {
          "internalType": "address",
          "name": "votingId",
          "type": "address"
        }
      ],
      "name": "getVotingStatus",
      "outputs": [
        {
          "internalType": "uint256",
          "name": "positiveVotes",
          "type": "uint256"
        },
        {
          "internalType": "uint256",
          "name": "negativeVotes",
          "type": "uint256"
        },
        {
          "internalType": "uint256",
          "name": "deadline",
          "type": "uint256"
        },
        {
          "internalType": "uint256",
          "name": "amount",
          "type": "uint256"
        },
        {
          "internalType": "uint8",
          "name": "catagory",
          "type": "uint8"
        }
      ],
      "payable": false,
      "stateMutability": "view",
      "type": "function"
    },
    {
      "constant": true,
      "inputs": [
        {
          "internalType": "address",
          "name": "votingId",
          "type": "address"
        }
      ],
      "name": "isEligible",
      "outputs": [
        {
          "internalType": "bool",
          "name": "",
          "type": "bool"
        }
      ],
      "payable": false,
      "stateMutability": "view",
      "type": "function"
    },
    {
      "constant": true,
      "inputs": [],
      "name": "getCfDbCount",
      "outputs": [
        {
          "internalType": "uint256",
          "name": "",
          "type": "uint256"
        }
      ],
      "payable": false,
      "stateMutability": "view",
      "type": "function"
    },
    {
      "constant": true,
      "inputs": [
        {
          "internalType": "address",
          "name": "cfAddress",
          "type": "address"
        }
      ],
      "name": "getCfIdFromAddress",
      "outputs": [
        {
          "internalType": "uint256",
          "name": "",
          "type": "uint256"
        }
      ],
      "payable": false,
      "stateMutability": "view",
      "type": "function"
    },
    {
      "constant": false,
      "inputs": [
        {
          "internalType": "uint256",
          "name": "_deadlineSecs",
          "type": "uint256"
        }
      ],
      "name": "createCrowdFund",
      "outputs": [],
      "payable": false,
      "stateMutability": "nonpayable",
      "type": "function"
    },
    {
      "constant": false,
      "inputs": [
        {
          "internalType": "uint256",
          "name": "cfId",
          "type": "uint256"
        }
      ],
      "name": "cf_contribute",
      "outputs": [],
      "payable": true,
      "stateMutability": "payable",
      "type": "function"
    },
    {
      "constant": false,
      "inputs": [
        {
          "internalType": "uint256",
          "name": "cfId",
          "type": "uint256"
        }
      ],
      "name": "cf_getRefund",
      "outputs": [],
      "payable": false,
      "stateMutability": "nonpayable",
      "type": "function"
    },
    {
      "constant": false,
      "inputs": [
        {
          "internalType": "uint256",
          "name": "cfId",
          "type": "uint256"
        }
      ],
      "name": "cf_withdrawFunding",
      "outputs": [],
      "payable": false,
      "stateMutability": "nonpayable",
      "type": "function"
    },
    {
      "constant": true,
      "inputs": [],
      "name": "getOrgDbCount",
      "outputs": [
        {
          "internalType": "uint256",
          "name": "",
          "type": "uint256"
        }
      ],
      "payable": false,
      "stateMutability": "view",
      "type": "function"
    },
    {
      "constant": true,
      "inputs": [
        {
          "internalType": "address",
          "name": "orgAddress",
          "type": "address"
        }
      ],
      "name": "getOrgIdFromAddress",
      "outputs": [
        {
          "internalType": "uint256",
          "name": "",
          "type": "uint256"
        }
      ],
      "payable": false,
      "stateMutability": "view",
      "type": "function"
    },
    {
      "constant": false,
      "inputs": [
        {
          "internalType": "bool",
          "name": "_acceptingZakat",
          "type": "bool"
        },
        {
          "internalType": "string",
          "name": "orgName",
          "type": "string"
        }
      ],
      "name": "createOrganization",
      "outputs": [],
      "payable": false,
      "stateMutability": "nonpayable",
      "type": "function"
    },
    {
      "constant": false,
      "inputs": [
        {
          "internalType": "uint256",
          "name": "orgId",
          "type": "uint256"
        }
      ],
      "name": "org_id_donate",
      "outputs": [],
      "payable": true,
      "stateMutability": "payable",
      "type": "function"
    },
    {
      "constant": false,
      "inputs": [
        {
          "internalType": "address",
          "name": "orgAdr",
          "type": "address"
        }
      ],
      "name": "org_adr_donate",
      "outputs": [],
      "payable": true,
      "stateMutability": "payable",
      "type": "function"
    },
    {
      "constant": false,
      "inputs": [
        {
          "internalType": "uint256",
          "name": "amount",
          "type": "uint256"
        }
      ],
      "name": "org_withdraw",
      "outputs": [],
      "payable": false,
      "stateMutability": "nonpayable",
      "type": "function"
    }
  ],
  "bytecode": "0x608060405234801561001057600080fd5b50612b00806100206000396000f3fe6080604052600436106101145760003560e01c8063730c6d56116100a0578063d867909a11610064578063d867909a14610642578063e6b39ac1146106c9578063f309e42f1461072e578063f63b649d14610769578063f71b3a34146107ad57610114565b8063730c6d561461046d578063a5786bc81461049b578063a9f670e11461056f578063ae8c7851146105aa578063bd041c4d146105e557610114565b80633e9dfa30116100e75780633e9dfa301461023d5780634bcfb07e146103365780634c25c31b146103645780635148838b1461039f57806366e305fd1461040457610114565b80630824ab5d146101195780630f6278ed146101955780631f361ee5146101c0578063392e145b146101eb575b600080fd5b34801561012557600080fd5b506101526004803603602081101561013c57600080fd5b8101908080359060200190929190505050610851565b60405180878152602001868152602001858152602001841515151581526020018381526020018260ff1660ff168152602001965050505050505060405180910390f35b3480156101a157600080fd5b506101aa6108b4565b6040518082815260200191505060405180910390f35b3480156101cc57600080fd5b506101d56108c1565b6040518082815260200191505060405180910390f35b3480156101f757600080fd5b5061023b6004803603606081101561020e57600080fd5b810190808035906020019092919080359060200190929190803560ff1690602001909291905050506108ce565b005b34801561024957600080fd5b506102766004803603602081101561026057600080fd5b8101908080359060200190929190505050610c49565b604051808573ffffffffffffffffffffffffffffffffffffffff1673ffffffffffffffffffffffffffffffffffffffff1681526020018060200184151515158152602001838152602001828103825285818151815260200191508051906020019080838360005b838110156102f85780820151818401526020810190506102dd565b50505050905090810190601f1680156103255780820380516001836020036101000a031916815260200191505b509550505050505060405180910390f35b6103626004803603602081101561034c57600080fd5b8101908080359060200190929190505050610d4b565b005b34801561037057600080fd5b5061039d6004803603602081101561038757600080fd5b8101908080359060200190929190505050610df0565b005b3480156103ab57600080fd5b506103ee600480360360208110156103c257600080fd5b81019080803573ffffffffffffffffffffffffffffffffffffffff169060200190929190505050611114565b6040518082815260200191505060405180910390f35b34801561041057600080fd5b506104536004803603602081101561042757600080fd5b81019080803573ffffffffffffffffffffffffffffffffffffffff169060200190929190505050611214565b604051808215151515815260200191505060405180910390f35b6104996004803603602081101561048357600080fd5b81019080803590602001909291905050506112a2565b005b3480156104a757600080fd5b5061056d600480360360408110156104be57600080fd5b81019080803515159060200190929190803590602001906401000000008111156104e757600080fd5b8201836020820111156104f957600080fd5b8035906020019184600183028401116401000000008311171561051b57600080fd5b91908080601f016020809104026020016040519081016040528093929190818152602001838380828437600081840152601f19601f820116905080830192505050505050509192919290505050611460565b005b34801561057b57600080fd5b506105a86004803603602081101561059257600080fd5b810190808035906020019092919050505061165e565b005b3480156105b657600080fd5b506105e3600480360360208110156105cd57600080fd5b8101908080359060200190929190505050611895565b005b3480156105f157600080fd5b506106406004803603604081101561060857600080fd5b81019080803573ffffffffffffffffffffffffffffffffffffffff169060200190929190803515159060200190929190505050611c1a565b005b34801561064e57600080fd5b506106916004803603602081101561066557600080fd5b81019080803573ffffffffffffffffffffffffffffffffffffffff16906020019092919050505061203e565b604051808681526020018581526020018481526020018381526020018260ff1660ff1681526020019550505050505060405180910390f35b3480156106d557600080fd5b50610718600480360360208110156106ec57600080fd5b81019080803573ffffffffffffffffffffffffffffffffffffffff1690602001909291905050506121e0565b6040518082815260200191505060405180910390f35b34801561073a57600080fd5b506107676004803603602081101561075157600080fd5b810190808035906020019092919050505061222c565b005b6107ab6004803603602081101561077f57600080fd5b81019080803573ffffffffffffffffffffffffffffffffffffffff16906020019092919050505061261e565b005b3480156107b957600080fd5b506107e6600480360360208110156107d057600080fd5b8101908080359060200190929190505050612744565b604051808781526020018681526020018581526020018481526020018360ff1660ff1681526020018273ffffffffffffffffffffffffffffffffffffffff1673ffffffffffffffffffffffffffffffffffffffff168152602001965050505050505060405180910390f35b6000818154811061085e57fe5b90600052602060002090600802016000915090508060020154908060030154908060040154908060050160009054906101000a900460ff16908060060154908060070160009054906101000a900460ff16905086565b6000600280549050905090565b6000600480549050905090565b6000600160003373ffffffffffffffffffffffffffffffffffffffff1673ffffffffffffffffffffffffffffffffffffffff1681526020019081526020016000205411156109eb5742600060018060003373ffffffffffffffffffffffffffffffffffffffff1673ffffffffffffffffffffffffffffffffffffffff16815260200190815260200160002054038154811061096557fe5b906000526020600020906008020160020154106109ea576040517f08c379a00000000000000000000000000000000000000000000000000000000081526004018080602001828103825260168152602001807f446561646c696e65206e6f74206f766572207965742e0000000000000000000081525060200191505060405180910390fd5b5b6000600360003373ffffffffffffffffffffffffffffffffffffffff1673ffffffffffffffffffffffffffffffffffffffff168152602001908152602001600020541115610aec574260026001600360003373ffffffffffffffffffffffffffffffffffffffff1673ffffffffffffffffffffffffffffffffffffffff168152602001908152602001600020540381548110610a8357fe5b90600052602060002090600602016002015410610aeb576040517f08c379a000000000000000000000000000000000000000000000000000000000815260040180806020018281038252602e815260200180612a07602e913960400191505060405180910390fd5b5b610af46127ba565b600081604001818152505060008160600181815250504284018160200181815250506001816080019015159081151581525050828160a0018181525050818160c0019060ff16908160ff1681525050600081908060018154018082558091505090600182039060005260206000209060080201600090919290919091506000820151816001019080519060200190610b8d9291906127fc565b5060208201518160020155604082015181600301556060820151816004015560808201518160050160006101000a81548160ff02191690831515021790555060a0820151816006015560c08201518160070160006101000a81548160ff021916908360ff160217905550505050600080549050600160003373ffffffffffffffffffffffffffffffffffffffff1673ffffffffffffffffffffffffffffffffffffffff1681526020019081526020016000208190555050505050565b60048181548110610c5657fe5b90600052602060002090600402016000915090508060000160009054906101000a900473ffffffffffffffffffffffffffffffffffffffff1690806001018054600181600116156101000203166002900480601f016020809104026020016040519081016040528092919081815260200182805460018160011615610100020316600290048015610d285780601f10610cfd57610100808354040283529160200191610d28565b820191906000526020600020905b815481529060010190602001808311610d0b57829003601f168201915b5050505050908060020160009054906101000a900460ff16908060030154905084565b60008111610dc1576040517f08c379a000000000000000000000000000000000000000000000000000000000815260040180806020018281038252601d8152602001807f4f7267616e697a6174696f6e20446f6573204e6f74204578697374732e00000081525060200191505060405180910390fd5b3460048281548110610dcf57fe5b90600052602060002090600402016003016000828254019250508190555050565b6000600560003373ffffffffffffffffffffffffffffffffffffffff1673ffffffffffffffffffffffffffffffffffffffff1681526020019081526020016000205411610ea5576040517f08c379a000000000000000000000000000000000000000000000000000000000815260040180806020018281038252601d8152602001807f4f7267616e697a6174696f6e20446f6573204e6f74204578697374732e00000081525060200191505060405180910390fd5b60006001600560003373ffffffffffffffffffffffffffffffffffffffff1673ffffffffffffffffffffffffffffffffffffffff1681526020019081526020016000205403905060048181548110610ef957fe5b906000526020600020906004020160000160009054906101000a900473ffffffffffffffffffffffffffffffffffffffff1673ffffffffffffffffffffffffffffffffffffffff163373ffffffffffffffffffffffffffffffffffffffff1614610fcb576040517f08c379a00000000000000000000000000000000000000000000000000000000081526004018080602001828103825260168152602001807f4f6e6c792041646d696e20697320616c6c6f776564210000000000000000000081525060200191505060405180910390fd5b8160048281548110610fd957fe5b906000526020600020906004020160030154101561105f576040517f08c379a00000000000000000000000000000000000000000000000000000000081526004018080602001828103825260138152602001807f4e6f7420656e6f7567682062616c616e6365210000000000000000000000000081525060200191505060405180910390fd5b6004818154811061106c57fe5b906000526020600020906004020160000160009054906101000a900473ffffffffffffffffffffffffffffffffffffffff1673ffffffffffffffffffffffffffffffffffffffff166108fc839081150290604051600060405180830381858888f193505050501580156110e3573d6000803e3d6000fd5b5081600482815481106110f257fe5b9060005260206000209060040201600301600082825403925050819055505050565b600080600560008473ffffffffffffffffffffffffffffffffffffffff1673ffffffffffffffffffffffffffffffffffffffff16815260200190815260200160002054116111ca576040517f08c379a000000000000000000000000000000000000000000000000000000000815260040180806020018281038252601d8152602001807f4f7267616e697a6174696f6e20446f6573204e6f74204578697374732e00000081525060200191505060405180910390fd5b6001600560008473ffffffffffffffffffffffffffffffffffffffff1673ffffffffffffffffffffffffffffffffffffffff16815260200190815260200160002054039050919050565b60008060018060008573ffffffffffffffffffffffffffffffffffffffff1673ffffffffffffffffffffffffffffffffffffffff168152602001908152602001600020540390506000818154811061126857fe5b9060005260206000209060080201600401546000828154811061128757fe5b90600052602060002090600802016003015411915050919050565b600281815481106112af57fe5b9060005260206000209060060201600201544210611335576040517f08c379a000000000000000000000000000000000000000000000000000000000815260040180806020018281038252600d8152602001807f54696d65206973204f766572210000000000000000000000000000000000000081525060200191505060405180910390fd5b60006002828154811061134457fe5b906000526020600020906006020160000160003373ffffffffffffffffffffffffffffffffffffffff1673ffffffffffffffffffffffffffffffffffffffff1681526020019081526020016000205414156113c857600281815481106113a657fe5b9060005260206000209060060201600101600081548092919060010191905055505b34600282815481106113d657fe5b906000526020600020906006020160000160003373ffffffffffffffffffffffffffffffffffffffff1673ffffffffffffffffffffffffffffffffffffffff16815260200190815260200160002060008282540192505081905550346002828154811061143f57fe5b90600052602060002090600602016004016000828254019250508190555050565b6000600560003373ffffffffffffffffffffffffffffffffffffffff1673ffffffffffffffffffffffffffffffffffffffff16815260200190815260200160002054146114f8576040517f08c379a000000000000000000000000000000000000000000000000000000000815260040180806020018281038252602c815260200180612a35602c913960400191505060405180910390fd5b6115006128a2565b33816000019073ffffffffffffffffffffffffffffffffffffffff16908173ffffffffffffffffffffffffffffffffffffffff1681525050818160200181905250828160400190151590811515815250506004819080600181540180825580915050906001820390600052602060002090600402016000909192909190915060008201518160000160006101000a81548173ffffffffffffffffffffffffffffffffffffffff021916908373ffffffffffffffffffffffffffffffffffffffff16021790555060208201518160010190805190602001906115e29291906128e2565b5060408201518160020160006101000a81548160ff02191690831515021790555060608201518160030155505050600480549050600560003373ffffffffffffffffffffffffffffffffffffffff1673ffffffffffffffffffffffffffffffffffffffff16815260200190815260200160002081905550505050565b6002818154811061166b57fe5b906000526020600020906006020160050160019054906101000a900473ffffffffffffffffffffffffffffffffffffffff1673ffffffffffffffffffffffffffffffffffffffff163373ffffffffffffffffffffffffffffffffffffffff161461173d576040517f08c379a00000000000000000000000000000000000000000000000000000000081526004018080602001828103825260168152602001807f4f6e6c792041646d696e20697320616c6c6f776564210000000000000000000081525060200191505060405180910390fd5b6002818154811061174a57fe5b9060005260206000209060060201600301546002828154811061176957fe5b90600052602060002090600602016004015410156117ef576040517f08c379a00000000000000000000000000000000000000000000000000000000081526004018080602001828103825260188152602001807f476f616c20616d6f756e74206e6f74207265616368656421000000000000000081525060200191505060405180910390fd5b600281815481106117fc57fe5b906000526020600020906006020160050160019054906101000a900473ffffffffffffffffffffffffffffffffffffffff1673ffffffffffffffffffffffffffffffffffffffff166108fc6002838154811061185457fe5b9060005260206000209060060201600401549081150290604051600060405180830381858888f19350505050158015611891573d6000803e3d6000fd5b5050565b600281815481106118a257fe5b9060005260206000209060060201600201544211611928576040517f08c379a00000000000000000000000000000000000000000000000000000000081526004018080602001828103825260158152602001807f446561646c696e65206973206e6f74204f76657221000000000000000000000081525060200191505060405180910390fd5b6002818154811061193557fe5b9060005260206000209060060201600301546002828154811061195457fe5b906000526020600020906006020160040154106119bc576040517f08c379a0000000000000000000000000000000000000000000000000000000008152600401808060200182810382526022815260200180612aaa6022913960400191505060405180910390fd5b6000600282815481106119cb57fe5b906000526020600020906006020160000160003373ffffffffffffffffffffffffffffffffffffffff1673ffffffffffffffffffffffffffffffffffffffff1681526020019081526020016000205411611a8d576040517f08c379a00000000000000000000000000000000000000000000000000000000081526004018080602001828103825260188152602001807f596f7520686176656e277420436f6e747269627574656421000000000000000081525060200191505060405180910390fd5b3373ffffffffffffffffffffffffffffffffffffffff166108fc60028381548110611ab457fe5b906000526020600020906006020160000160003373ffffffffffffffffffffffffffffffffffffffff1673ffffffffffffffffffffffffffffffffffffffff168152602001908152602001600020549081150290604051600060405180830381858888f19350505050158015611b2e573d6000803e3d6000fd5b5060028181548110611b3c57fe5b906000526020600020906006020160000160003373ffffffffffffffffffffffffffffffffffffffff1673ffffffffffffffffffffffffffffffffffffffff1681526020019081526020016000205460028281548110611b9857fe5b906000526020600020906006020160040160008282540392505081905550600060028281548110611bc557fe5b906000526020600020906006020160000160003373ffffffffffffffffffffffffffffffffffffffff1673ffffffffffffffffffffffffffffffffffffffff1681526020019081526020016000208190555050565b3373ffffffffffffffffffffffffffffffffffffffff168273ffffffffffffffffffffffffffffffffffffffff161415611cbc576040517f08c379a00000000000000000000000000000000000000000000000000000000081526004018080602001828103825260128152602001807f41646d696e2043616e6e6f7420566f746521000000000000000000000000000081525060200191505060405180910390fd5b600060018060008573ffffffffffffffffffffffffffffffffffffffff1673ffffffffffffffffffffffffffffffffffffffff168152602001908152602001600020540390504260008281548110611d1057fe5b90600052602060002090600802016002015411611d95576040517f08c379a00000000000000000000000000000000000000000000000000000000081526004018080602001828103825260158152602001807f566f74696e6720646561646c696e65206f76657221000000000000000000000081525060200191505060405180910390fd5b6000808281548110611da357fe5b906000526020600020906008020160000160003373ffffffffffffffffffffffffffffffffffffffff1673ffffffffffffffffffffffffffffffffffffffff16815260200190815260200160002054905060008281548110611e0157fe5b906000526020600020906008020160010180549050600182011115611f0d5760008281548110611e2d57fe5b90600052602060002090600802016001016001908060018154018082558091505090600182039060005260206000209060209182820401919006909192909190916101000a81548160ff02191690831515021790555050600160008381548110611e9357fe5b9060005260206000209060080201600101805490500360008381548110611eb657fe5b906000526020600020906008020160000160003373ffffffffffffffffffffffffffffffffffffffff1673ffffffffffffffffffffffffffffffffffffffff16815260200190815260200160002081905550611fd0565b6000151560008381548110611f1e57fe5b90600052602060002090600802016001018281548110611f3a57fe5b90600052602060002090602091828204019190069054906101000a900460ff16151514611fcf576040517f08c379a000000000000000000000000000000000000000000000000000000000815260040180806020018281038252600e8152602001807f416c726561647920566f7465642100000000000000000000000000000000000081525060200191505060405180910390fd5b5b82156120095760008281548110611fe357fe5b906000526020600020906008020160030160008154809291906001019190505550612038565b6000828154811061201657fe5b9060005260206000209060080201600401600081548092919060010191905055505b50505050565b600080600080600080600160008873ffffffffffffffffffffffffffffffffffffffff1673ffffffffffffffffffffffffffffffffffffffff1681526020019081526020016000205414156120de576040517f08c379a0000000000000000000000000000000000000000000000000000000008152600401808060200182810382526027815260200180612a836027913960400191505060405180910390fd5b600060018060008973ffffffffffffffffffffffffffffffffffffffff1673ffffffffffffffffffffffffffffffffffffffff168152602001908152602001600020540390506000818154811061213157fe5b9060005260206000209060080201600301546000828154811061215057fe5b9060005260206000209060080201600401546000838154811061216f57fe5b9060005260206000209060080201600201546000848154811061218e57fe5b906000526020600020906008020160060154600085815481106121ad57fe5b906000526020600020906008020160070160009054906101000a900460ff16955095509550955095505091939590929450565b60006001600360008473ffffffffffffffffffffffffffffffffffffffff1673ffffffffffffffffffffffffffffffffffffffff16815260200190815260200160002054039050919050565b600060018060003373ffffffffffffffffffffffffffffffffffffffff1673ffffffffffffffffffffffffffffffffffffffff168152602001908152602001600020540390506000600160003373ffffffffffffffffffffffffffffffffffffffff1673ffffffffffffffffffffffffffffffffffffffff16815260200190815260200160002054141561230b576040517f08c379a0000000000000000000000000000000000000000000000000000000008152600401808060200182810382526022815260200180612a616022913960400191505060405180910390fd5b61231433611214565b612386576040517f08c379a000000000000000000000000000000000000000000000000000000000815260040180806020018281038252601e8152602001807f4e6f7420456c696769626c652e204e6f20656e6f75676820766f7465732e000081525060200191505060405180910390fd5b426000828154811061239457fe5b90600052602060002090600802016002015410612419576040517f08c379a000000000000000000000000000000000000000000000000000000000815260040180806020018281038252601d8152602001807f566f74696e6720646561646c696e65206e6f74206f766572207965742100000081525060200191505060405180910390fd5b612421612962565b8242018160200181815250506000828154811061243a57fe5b9060005260206000209060080201600601548160400181815250506000828154811061246257fe5b906000526020600020906008020160070160009054906101000a900460ff16816080019060ff16908160ff1681525050338160a0019073ffffffffffffffffffffffffffffffffffffffff16908173ffffffffffffffffffffffffffffffffffffffff1681525050600281908060018154018082558091505090600182039060005260206000209060060201600090919290919091506000820151816001015560208201518160020155604082015181600301556060820151816004015560808201518160050160006101000a81548160ff021916908360ff16021790555060a08201518160050160016101000a81548173ffffffffffffffffffffffffffffffffffffffff021916908373ffffffffffffffffffffffffffffffffffffffff1602179055505050506000600160003373ffffffffffffffffffffffffffffffffffffffff1673ffffffffffffffffffffffffffffffffffffffff16815260200190815260200160002081905550600280549050600360003373ffffffffffffffffffffffffffffffffffffffff1673ffffffffffffffffffffffffffffffffffffffff16815260200190815260200160002081905550505050565b6000600560008373ffffffffffffffffffffffffffffffffffffffff1673ffffffffffffffffffffffffffffffffffffffff16815260200190815260200160002054116126d3576040517f08c379a000000000000000000000000000000000000000000000000000000000815260040180806020018281038252601d8152602001807f4f7267616e697a6174696f6e20446f6573204e6f74204578697374732e00000081525060200191505060405180910390fd5b3460046001600560008573ffffffffffffffffffffffffffffffffffffffff1673ffffffffffffffffffffffffffffffffffffffff16815260200190815260200160002054038154811061272357fe5b90600052602060002090600402016003016000828254019250508190555050565b6002818154811061275157fe5b90600052602060002090600602016000915090508060010154908060020154908060030154908060040154908060050160009054906101000a900460ff16908060050160019054906101000a900473ffffffffffffffffffffffffffffffffffffffff16905086565b6040518060e001604052806060815260200160008152602001600081526020016000815260200160001515815260200160008152602001600060ff1681525090565b82805482825590600052602060002090601f016020900481019282156128915791602002820160005b8382111561286257835183826101000a81548160ff0219169083151502179055509260200192600101602081600001049283019260010302612825565b801561288f5782816101000a81549060ff0219169055600101602081600001049283019260010302612862565b505b50905061289e91906129b1565b5090565b6040518060800160405280600073ffffffffffffffffffffffffffffffffffffffff16815260200160608152602001600015158152602001600081525090565b828054600181600116156101000203166002900490600052602060002090601f016020900481019282601f1061292357805160ff1916838001178555612951565b82800160010185558215612951579182015b82811115612950578251825591602001919060010190612935565b5b50905061295e91906129e1565b5090565b6040518060c0016040528060008152602001600081526020016000815260200160008152602001600060ff168152602001600073ffffffffffffffffffffffffffffffffffffffff1681525090565b6129de91905b808211156129da57600081816101000a81549060ff0219169055506001016129b7565b5090565b90565b612a0391905b808211156129ff5760008160009055506001016129e7565b5090565b9056fe43726f776466756e64696e672045786973747320616e6420646561646c696e65206e6f74206f766572207965742e4f7267616e697a6174696f6e20416c726561647920457869737473206f6e2074686973204163636f756e742e4e6f742056616c69642e204669727374204170706c7920666f7220766f74696e672e566f74696e6720646f6573206e6f7420657869737473206f6e207468697320616464726573732e476f616c20697320726561636865642e596f752063616e6e6f7420726566756e6421a265627a7a72315820c2deb6293a5ab2871b72fe3578d993df2f0fee7fd1cd61b1c55916081b8dff3164736f6c63430005100032",
  "source": "// SPDX-License-Identifier: MIT\r\npragma solidity >=0.4.22 <0.9.0;\r\n\r\n// pragma solidity >=0.4.22 <0.6.0;\r\n\r\ncontract mainTest{   \r\n\r\n\r\n// ######################### Voting #########################\r\n    \r\n    struct voting{\r\n        mapping(address=>uint) votersIdx;\r\n        bool[] alreadyVoted;\r\n        uint deadline;\r\n        uint positiveVotes;\r\n        uint negativeVotes;\r\n        bool valid;\r\n        uint amount;\r\n        uint8 catagory;\r\n    }\r\n    \r\n    // voting[] public votingDb;\r\n    // mapping(address=>voting) votingDb;\r\n    \r\n    // uind id = votingIdxDb[Address] - 1;\r\n    // votingDb[id];\r\n    \r\n    voting[] public votingDb;\r\n    mapping (address => uint) votingIdxDb;\r\n    \r\n    \r\n    function createVoting(uint deadline,uint _amount, uint8 _catagory) public {\r\n        if(votingIdxDb[msg.sender] > 0){\r\n            require(votingDb[votingIdxDb[msg.sender] - 1].deadline < now,\"Deadline not over yet.\");\r\n        }\r\n        // require(votingIdxDb[msg.sender] == 0,\"Voting Already Exists.\");\r\n        if(cfIdxDb[msg.sender]>0){\r\n            require(cfDb[cfIdxDb[msg.sender] - 1].deadline<now,\"Crowdfunding Exists and deadline not over yet.\");\r\n        }\r\n        voting memory v;\r\n        v.positiveVotes = 0;\r\n        v.negativeVotes = 0;\r\n        v.deadline = deadline + now;\r\n        v.valid = true;\r\n        v.amount = _amount;\r\n        v.catagory = _catagory;\r\n        votingDb.push(v);\r\n        votingIdxDb[msg.sender] = votingDb.length;\r\n    }\r\n    \r\n    function vote(address votingId,bool doYouAgree) public {\r\n        require(votingId != msg.sender,\"Admin Cannot Vote!\");\r\n        uint id = votingIdxDb[votingId] - 1;\r\n        require(votingDb[id].deadline>now,\"Voting deadline over!\");\r\n        uint idx = votingDb[id].votersIdx[msg.sender];\r\n        if(idx+1 > votingDb[id].alreadyVoted.length){\r\n            votingDb[id].alreadyVoted.push(true);\r\n            votingDb[id].votersIdx[msg.sender] = votingDb[id].alreadyVoted.length - 1;\r\n        }else{\r\n            require(votingDb[id].alreadyVoted[idx] == false,\"Already Voted!\");\r\n        }\r\n        \r\n        if(doYouAgree){\r\n            votingDb[id].positiveVotes++;\r\n        }else{\r\n            votingDb[id].negativeVotes++;\r\n        }\r\n        \r\n    }\r\n\r\n    function getVotingStatus(address votingId) view public returns(\r\n            uint positiveVotes,\r\n            uint negativeVotes,\r\n            uint deadline,\r\n            uint amount,\r\n            uint8 catagory\r\n        ) {\r\n        require(votingIdxDb[votingId] != 0,\"Voting does not exists on this address.\");\r\n        uint id = votingIdxDb[votingId] - 1;\r\n        return (\r\n            votingDb[id].positiveVotes,\r\n            votingDb[id].negativeVotes,\r\n            votingDb[id].deadline,\r\n            votingDb[id].amount,\r\n            votingDb[id].catagory\r\n        );\r\n    }\r\n    \r\n    \r\n    function isEligible(address votingId) view public returns(bool) {\r\n        //Some logic\r\n        uint id = votingIdxDb[votingId] - 1;\r\n        return (votingDb[id].positiveVotes > votingDb[id].negativeVotes);\r\n    }\r\n    \r\n    \r\n        \r\n    \r\n    \r\n    // function vote(address votingId,bool doYouAgree) public{\r\n    //     uint vIdx = votingDb[votingId].votersIdx[msg.sender];\r\n        \r\n    //     require(votingDb[votingId].votersChoice[vIdx] == false,\"Already Voted!\");\r\n    //     uint idx = votingDb[msg.sender].index;\r\n    //     if(doYouAgree){\r\n    //         votingDb[votingId].positiveVotes++;\r\n    //     }else{\r\n    //         votingDb[votingId].negativeVotes++;\r\n    //     }\r\n    //     votingDb[votingId].voters[msg.sender] = true;\r\n    // }\r\n\r\n// X-X-X-X-X-X-X-X-X-X-X-X-X Voting X-X-X-X-X-X-X-X-X-X-X-X-X\r\n    \r\n    \r\n// ######################### Crowd Funding #########################\r\n    struct crowdFund{\r\n        mapping(address=>uint) contributions;\r\n        uint totalContributors;    \r\n        uint deadline;             \r\n        uint goal;                 \r\n        uint raisedAmount ;    \r\n        uint8 catagory;\r\n        address payable admin;\r\n    }\r\n    \r\n    crowdFund[] public cfDb;\r\n    mapping (address => uint) cfIdxDb;\r\n    \r\n    \r\n    function getCfDbCount() view public returns(uint){\r\n        return cfDb.length;\r\n    }\r\n    \r\n    // function getCfIdFromAddress(address cfAddress) view public returns(uint){\r\n    //     for(uint i=0;i<cfDb.length;i++){\r\n    //         if(cfDb[i].admin == cfAddress){\r\n    //             return i;\r\n    //         }\r\n    //     }\r\n    // }\r\n\r\n    function getCfIdFromAddress(address cfAddress) view public returns(uint){\r\n        return (cfIdxDb[cfAddress] - 1);\r\n    }\r\n    \r\n    function createCrowdFund(uint _deadlineSecs) public{\r\n        uint id = votingIdxDb[msg.sender] - 1;\r\n        require(votingIdxDb[msg.sender] != 0,\"Not Valid. First Apply for voting.\");\r\n        // require(votingDb[id].valid,\"Not Valid. First Apply for voting.!\");\r\n        require(isEligible(msg.sender),\"Not Eligible. No enough votes.\");\r\n        require(votingDb[id].deadline < now,\"Voting deadline not over yet!\");\r\n        crowdFund memory cf;\r\n        cf.deadline= now + _deadlineSecs;\r\n        cf.goal= votingDb[id].amount;\r\n        cf.catagory = votingDb[id].catagory;\r\n        cf.admin = msg.sender;\r\n        cfDb.push(cf);\r\n        // votingDb[id].valid = false;\r\n        votingIdxDb[msg.sender] = 0;\r\n        cfIdxDb[msg.sender] = cfDb.length;\r\n    }\r\n    \r\n    function cf_contribute(uint cfId) public payable {\r\n        require(now < cfDb[cfId].deadline,\"Time is Over!\");\r\n        if(cfDb[cfId].contributions[msg.sender] == 0)\r\n        {\r\n            cfDb[cfId].totalContributors++;\r\n        }\r\n        cfDb[cfId].contributions[msg.sender] += msg.value;\r\n        cfDb[cfId].raisedAmount+=msg.value;\r\n    }\r\n    \r\n    //Get Refund if goal is not reached within the set deadline.\r\n    function cf_getRefund(uint cfId) public {\r\n        require(now > cfDb[cfId].deadline,\"Deadline is not Over!\");\r\n        require(cfDb[cfId].raisedAmount < cfDb[cfId].goal,\"Goal is reached.You cannot refund!\");\r\n        require(cfDb[cfId].contributions[msg.sender] > 0,\"You haven't Contributed!\");\r\n        msg.sender.transfer(cfDb[cfId].contributions[msg.sender]);\r\n        cfDb[cfId].raisedAmount -= cfDb[cfId].contributions[msg.sender];\r\n        cfDb[cfId].contributions[msg.sender] = 0;\r\n    }\r\n    \r\n    function cf_withdrawFunding(uint cfId) public {\r\n        require(msg.sender == cfDb[cfId].admin,\"Only Admin is allowed!\");\r\n        require(cfDb[cfId].raisedAmount >= cfDb[cfId].goal,\"Goal amount not reached!\");\r\n        cfDb[cfId].admin.transfer(cfDb[cfId].raisedAmount);\r\n    }\r\n    \r\n    // function cf_getRemainingTime(uint cfId) view public returns(uint) {\r\n    //    return cfDb[cfId].deadline - now;\r\n    // }\r\n// X-X-X-X-X-X-X-X-X-X-X-X-X Crowd Funding X-X-X-X-X-X-X-X-X-X-X-X-X\r\n\r\n// ######################### Organization #########################\r\n\r\n    struct organization{\r\n        address payable admin;\r\n        string name;\r\n        bool acceptingZakat;\r\n        uint balanceAmount;\r\n    }\r\n    \r\n    organization[] public orgDb;\r\n    mapping (address => uint) orgIdxDb;\r\n    \r\n    \r\n    function getOrgDbCount() view public returns(uint){\r\n        return orgDb.length;\r\n    }\r\n\r\n    function getOrgIdFromAddress(address orgAddress) view public returns(uint){\r\n        require (orgIdxDb[orgAddress] > 0,\"Organization Does Not Exists.\");\r\n        return (orgIdxDb[orgAddress] - 1);\r\n    }\r\n    \r\n    event Deposit(address indexed _from, uint _value);\r\n    \r\n    function createOrganization(bool _acceptingZakat,string memory orgName) public {\r\n        require (orgIdxDb[msg.sender] == 0,\"Organization Already Exists on this Account.\");\r\n        organization memory org;\r\n        org.admin = msg.sender;\r\n        org.name = orgName;\r\n        org.acceptingZakat = _acceptingZakat;\r\n        orgDb.push(org);\r\n        orgIdxDb[msg.sender] = orgDb.length;\r\n    }\r\n\r\n    function org_id_donate(uint orgId) public payable {\r\n        require (orgId > 0,\"Organization Does Not Exists.\");\r\n        orgDb[orgId].balanceAmount += msg.value;\r\n        // emit Deposit(msg.sender, msg.value);\r\n    }\r\n\r\n    function org_adr_donate(address orgAdr) public payable {\r\n        require (orgIdxDb[orgAdr] > 0,\"Organization Does Not Exists.\");\r\n        orgDb[orgIdxDb[orgAdr]-1].balanceAmount += msg.value;\r\n        // emit Deposit(msg.sender, msg.value);\r\n    }\r\n    \r\n    function org_withdraw(uint amount) public {\r\n        require (orgIdxDb[msg.sender] > 0,\"Organization Does Not Exists.\");\r\n        uint id = orgIdxDb[msg.sender]-1;\r\n        require(msg.sender == orgDb[id].admin,\"Only Admin is allowed!\");\r\n        require(orgDb[id].balanceAmount >= amount,\"Not enough balance!\");\r\n        orgDb[id].admin.transfer(amount);\r\n        orgDb[id].balanceAmount-= amount;\r\n    }\r\n    \r\n    // function org_donate(uint orgId) public payable {\r\n    //     orgDb[orgId].balanceAmount += msg.value;\r\n    //     emit Deposit(msg.sender, msg.value);\r\n    // }\r\n    \r\n    // function org_withdraw(uint amount,uint orgId) public {\r\n    //     require(msg.sender == orgDb[orgId].admin,\"Only Admin is allowed!\");\r\n    //     orgDb[orgId].admin.transfer(amount);\r\n    // }\r\n// X-X-X-X-X-X-X-X-X-X-X-X-X Ororganization X-X-X-X-X-X-X-X-X-X-X-X-X\r\n    \r\n    \r\n    \r\n\r\n\r\n\r\n\r\n\r\n\r\n\r\n\r\n\r\n// ######################### Main #########################\r\n\r\n// X-X-X-X-X-X-X-X-X-X-X-X-X Main X-X-X-X-X-X-X-X-X-X-X-X-X\r\n\r\n}\r\n\r\n// contract main{\r\n//     address[] public contracts;\r\n//     function createCrowdFund (uint _deadlineSecs,uint _goal) \r\n//     public \r\n//     returns(address newContract){\r\n//         crowdFund cf = new crowdFund(_deadlineSecs,_goal);\r\n//         contracts.push(address(cf));\r\n//         return address(cf);\r\n//     }\r\n    \r\n//     function getNow(uint id) view public returns(uint) {\r\n//         uint n = crowdFund(contracts[id]).getNow();\r\n//         return n;\r\n//     }\r\n// }\r\n\r\n\r\n\r\n\r\n    // bool[] public tst;\r\n    \r\n    // function pushTst(bool val) public{\r\n    //     tst.push(val);\r\n    // }\r\n    \r\n    // function lenTst() view public returns(uint){\r\n    //     return tst.length;\r\n    // }\r\n    \r\n    // function delTst() public{\r\n    //     delete tst;\r\n    // }",
  "sourcePath": "C:\\Users\\sunrise\\Documents\\proj\\contracts\\mainTest.sol",
  "compiler": {
    "name": "solc",
    "version": "0.5.16+commit.9c3226ce.Emscripten.clang"
  },
  "schemaVersion": "3.4.2",
  "updatedAt": "2021-09-03T13:31:33.586Z",
  "networkType": "ethereum",
  "devdoc": {
    "methods": {}
  },
  "userdoc": {
    "methods": {}
  }
}