{
  "contractName": "mainTest",
  "abi": [
    {
      "anonymous": false,
      "inputs": [
        {
          "indexed": true,
          "internalType": "address",
          "name": "_from",
          "type": "address"
        },
        {
          "indexed": false,
          "internalType": "uint256",
          "name": "_value",
          "type": "uint256"
        }
      ],
      "name": "Deposit",
      "type": "event"
    },
    {
      "constant": true,
      "inputs": [
        {
          "internalType": "uint256",
          "name": "",
          "type": "uint256"
        }
      ],
      "name": "cfDb",
      "outputs": [
        {
          "internalType": "uint256",
          "name": "totalContributors",
          "type": "uint256"
        },
        {
          "internalType": "uint256",
          "name": "deadline",
          "type": "uint256"
        },
        {
          "internalType": "uint256",
          "name": "goal",
          "type": "uint256"
        },
        {
          "internalType": "uint256",
          "name": "raisedAmount",
          "type": "uint256"
        },
        {
          "internalType": "uint8",
          "name": "catagory",
          "type": "uint8"
        },
        {
          "internalType": "address payable",
          "name": "admin",
          "type": "address"
        }
      ],
      "payable": false,
      "stateMutability": "view",
      "type": "function"
    },
    {
      "constant": true,
      "inputs": [
        {
          "internalType": "uint256",
          "name": "",
          "type": "uint256"
        }
      ],
      "name": "orgDb",
      "outputs": [
        {
          "internalType": "address payable",
          "name": "admin",
          "type": "address"
        },
        {
          "internalType": "string",
          "name": "name",
          "type": "string"
        },
        {
          "internalType": "bool",
          "name": "acceptingZakat",
          "type": "bool"
        },
        {
          "internalType": "uint256",
          "name": "balanceAmount",
          "type": "uint256"
        }
      ],
      "payable": false,
      "stateMutability": "view",
      "type": "function"
    },
    {
      "constant": true,
      "inputs": [
        {
          "internalType": "uint256",
          "name": "",
          "type": "uint256"
        }
      ],
      "name": "votingDb",
      "outputs": [
        {
          "internalType": "uint256",
          "name": "votingDeadline",
          "type": "uint256"
        },
        {
          "internalType": "uint256",
          "name": "cfDeadline",
          "type": "uint256"
        },
        {
          "internalType": "uint256",
          "name": "positiveVotes",
          "type": "uint256"
        },
        {
          "internalType": "uint256",
          "name": "negativeVotes",
          "type": "uint256"
        },
        {
          "internalType": "bool",
          "name": "valid",
          "type": "bool"
        },
        {
          "internalType": "uint256",
          "name": "amount",
          "type": "uint256"
        },
        {
          "internalType": "uint8",
          "name": "catagory",
          "type": "uint8"
        },
        {
          "internalType": "address",
          "name": "admin",
          "type": "address"
        }
      ],
      "payable": false,
      "stateMutability": "view",
      "type": "function"
    },
    {
      "constant": false,
      "inputs": [
        {
          "internalType": "uint256",
          "name": "deadline",
          "type": "uint256"
        },
        {
          "internalType": "uint256",
          "name": "cfDeadline",
          "type": "uint256"
        },
        {
          "internalType": "uint256",
          "name": "_amount",
          "type": "uint256"
        },
        {
          "internalType": "uint8",
          "name": "_catagory",
          "type": "uint8"
        }
      ],
      "name": "createVoting",
      "outputs": [],
      "payable": false,
      "stateMutability": "nonpayable",
      "type": "function"
    },
    {
      "constant": false,
      "inputs": [
        {
          "internalType": "address",
          "name": "votingId",
          "type": "address"
        },
        {
          "internalType": "bool",
          "name": "doYouAgree",
          "type": "bool"
        }
      ],
      "name": "vote",
      "outputs": [],
      "payable": false,
      "stateMutability": "nonpayable",
      "type": "function"
    },
    {
      "constant": true,
      "inputs": [
        {
          "internalType": "address",
          "name": "votingId",
          "type": "address"
        }
      ],
      "name": "getVotingStatus",
      "outputs": [
        {
          "internalType": "uint256",
          "name": "positiveVotes",
          "type": "uint256"
        },
        {
          "internalType": "uint256",
          "name": "negativeVotes",
          "type": "uint256"
        },
        {
          "internalType": "uint256",
          "name": "deadline",
          "type": "uint256"
        },
        {
          "internalType": "uint256",
          "name": "amount",
          "type": "uint256"
        },
        {
          "internalType": "uint8",
          "name": "catagory",
          "type": "uint8"
        }
      ],
      "payable": false,
      "stateMutability": "view",
      "type": "function"
    },
    {
      "constant": true,
      "inputs": [
        {
          "internalType": "address",
          "name": "votingId",
          "type": "address"
        }
      ],
      "name": "isEligible",
      "outputs": [
        {
          "internalType": "bool",
          "name": "",
          "type": "bool"
        }
      ],
      "payable": false,
      "stateMutability": "view",
      "type": "function"
    },
    {
      "constant": true,
      "inputs": [],
      "name": "getCfDbCount",
      "outputs": [
        {
          "internalType": "uint256",
          "name": "",
          "type": "uint256"
        }
      ],
      "payable": false,
      "stateMutability": "view",
      "type": "function"
    },
    {
      "constant": true,
      "inputs": [
        {
          "internalType": "address",
          "name": "cfAddress",
          "type": "address"
        }
      ],
      "name": "getCfIdFromAddress",
      "outputs": [
        {
          "internalType": "uint256",
          "name": "",
          "type": "uint256"
        }
      ],
      "payable": false,
      "stateMutability": "view",
      "type": "function"
    },
    {
      "constant": false,
      "inputs": [
        {
          "internalType": "address",
          "name": "addr",
          "type": "address"
        }
      ],
      "name": "createCrowdFund",
      "outputs": [],
      "payable": false,
      "stateMutability": "nonpayable",
      "type": "function"
    },
    {
      "constant": false,
      "inputs": [
        {
          "internalType": "uint256",
          "name": "cfId",
          "type": "uint256"
        }
      ],
      "name": "cf_contribute",
      "outputs": [],
      "payable": true,
      "stateMutability": "payable",
      "type": "function"
    },
    {
      "constant": false,
      "inputs": [
        {
          "internalType": "uint256",
          "name": "cfId",
          "type": "uint256"
        }
      ],
      "name": "cf_getRefund",
      "outputs": [],
      "payable": false,
      "stateMutability": "nonpayable",
      "type": "function"
    },
    {
      "constant": false,
      "inputs": [
        {
          "internalType": "uint256",
          "name": "cfId",
          "type": "uint256"
        }
      ],
      "name": "cf_withdrawFunding",
      "outputs": [],
      "payable": false,
      "stateMutability": "nonpayable",
      "type": "function"
    },
    {
      "constant": true,
      "inputs": [],
      "name": "getOrgDbCount",
      "outputs": [
        {
          "internalType": "uint256",
          "name": "",
          "type": "uint256"
        }
      ],
      "payable": false,
      "stateMutability": "view",
      "type": "function"
    },
    {
      "constant": true,
      "inputs": [
        {
          "internalType": "address",
          "name": "orgAddress",
          "type": "address"
        }
      ],
      "name": "getOrgIdFromAddress",
      "outputs": [
        {
          "internalType": "uint256",
          "name": "",
          "type": "uint256"
        }
      ],
      "payable": false,
      "stateMutability": "view",
      "type": "function"
    },
    {
      "constant": false,
      "inputs": [
        {
          "internalType": "bool",
          "name": "_acceptingZakat",
          "type": "bool"
        },
        {
          "internalType": "string",
          "name": "orgName",
          "type": "string"
        }
      ],
      "name": "createOrganization",
      "outputs": [],
      "payable": false,
      "stateMutability": "nonpayable",
      "type": "function"
    },
    {
      "constant": false,
      "inputs": [
        {
          "internalType": "uint256",
          "name": "orgId",
          "type": "uint256"
        }
      ],
      "name": "org_id_donate",
      "outputs": [],
      "payable": true,
      "stateMutability": "payable",
      "type": "function"
    },
    {
      "constant": false,
      "inputs": [
        {
          "internalType": "address",
          "name": "orgAdr",
          "type": "address"
        }
      ],
      "name": "org_adr_donate",
      "outputs": [],
      "payable": true,
      "stateMutability": "payable",
      "type": "function"
    },
    {
      "constant": false,
      "inputs": [
        {
          "internalType": "uint256",
          "name": "amount",
          "type": "uint256"
        }
      ],
      "name": "org_withdraw",
      "outputs": [],
      "payable": false,
      "stateMutability": "nonpayable",
      "type": "function"
    }
  ],
  "bytecode": "0x608060405234801561001057600080fd5b50612d79806100206000396000f3fe6080604052600436106101145760003560e01c8063730c6d56116100a0578063bd041c4d11610064578063bd041c4d1461067a578063d867909a146106d7578063e6b39ac11461075e578063f63b649d146107c3578063f71b3a341461080757610114565b8063730c6d56146104b15780638898750d146104df578063a5786bc814610530578063a9f670e114610604578063ae8c78511461063f57610114565b80634418f836116100e75780634418f8361461031e5780634bcfb07e1461037a5780634c25c31b146103a85780635148838b146103e357806366e305fd1461044857610114565b80630824ab5d146101195780630f6278ed146101cf5780631f361ee5146101fa5780633e9dfa3014610225575b600080fd5b34801561012557600080fd5b506101526004803603602081101561013c57600080fd5b81019080803590602001909291905050506108ab565b60405180898152602001888152602001878152602001868152602001851515151581526020018481526020018360ff1660ff1681526020018273ffffffffffffffffffffffffffffffffffffffff1673ffffffffffffffffffffffffffffffffffffffff1681526020019850505050505050505060405180910390f35b3480156101db57600080fd5b506101e461093a565b6040518082815260200191505060405180910390f35b34801561020657600080fd5b5061020f610947565b6040518082815260200191505060405180910390f35b34801561023157600080fd5b5061025e6004803603602081101561024857600080fd5b8101908080359060200190929190505050610954565b604051808573ffffffffffffffffffffffffffffffffffffffff1673ffffffffffffffffffffffffffffffffffffffff1681526020018060200184151515158152602001838152602001828103825285818151815260200191508051906020019080838360005b838110156102e05780820151818401526020810190506102c5565b50505050905090810190601f16801561030d5780820380516001836020036101000a031916815260200191505b509550505050505060405180910390f35b34801561032a57600080fd5b506103786004803603608081101561034157600080fd5b81019080803590602001909291908035906020019092919080359060200190929190803560ff169060200190929190505050610a56565b005b6103a66004803603602081101561039057600080fd5b8101908080359060200190929190505050610e67565b005b3480156103b457600080fd5b506103e1600480360360208110156103cb57600080fd5b8101908080359060200190929190505050610f0c565b005b3480156103ef57600080fd5b506104326004803603602081101561040657600080fd5b81019080803573ffffffffffffffffffffffffffffffffffffffff169060200190929190505050611230565b6040518082815260200191505060405180910390f35b34801561045457600080fd5b506104976004803603602081101561046b57600080fd5b81019080803573ffffffffffffffffffffffffffffffffffffffff169060200190929190505050611330565b604051808215151515815260200191505060405180910390f35b6104dd600480360360208110156104c757600080fd5b81019080803590602001909291905050506113be565b005b3480156104eb57600080fd5b5061052e6004803603602081101561050257600080fd5b81019080803573ffffffffffffffffffffffffffffffffffffffff16906020019092919050505061157c565b005b34801561053c57600080fd5b506106026004803603604081101561055357600080fd5b810190808035151590602001909291908035906020019064010000000081111561057c57600080fd5b82018360208201111561058e57600080fd5b803590602001918460018302840111640100000000831117156105b057600080fd5b91908080601f016020809104026020016040519081016040528093929190818152602001838380828437600081840152601f19601f8201169050808301925050505050505091929192905050506118d7565b005b34801561061057600080fd5b5061063d6004803603602081101561062757600080fd5b8101908080359060200190929190505050611ad5565b005b34801561064b57600080fd5b506106786004803603602081101561066257600080fd5b8101908080359060200190929190505050611d0c565b005b34801561068657600080fd5b506106d56004803603604081101561069d57600080fd5b81019080803573ffffffffffffffffffffffffffffffffffffffff169060200190929190803515159060200190929190505050612091565b005b3480156106e357600080fd5b50610726600480360360208110156106fa57600080fd5b81019080803573ffffffffffffffffffffffffffffffffffffffff1690602001909291905050506125c0565b604051808681526020018581526020018481526020018381526020018260ff1660ff1681526020019550505050505060405180910390f35b34801561076a57600080fd5b506107ad6004803603602081101561078157600080fd5b81019080803573ffffffffffffffffffffffffffffffffffffffff169060200190929190505050612762565b6040518082815260200191505060405180910390f35b610805600480360360208110156107d957600080fd5b81019080803573ffffffffffffffffffffffffffffffffffffffff169060200190929190505050612845565b005b34801561081357600080fd5b506108406004803603602081101561082a57600080fd5b810190808035906020019092919050505061296b565b604051808781526020018681526020018581526020018481526020018360ff1660ff1681526020018273ffffffffffffffffffffffffffffffffffffffff1673ffffffffffffffffffffffffffffffffffffffff168152602001965050505050505060405180910390f35b600081815481106108b857fe5b90600052602060002090600902016000915090508060020154908060030154908060040154908060050154908060060160009054906101000a900460ff16908060070154908060080160009054906101000a900460ff16908060080160019054906101000a900473ffffffffffffffffffffffffffffffffffffffff16905088565b6000600280549050905090565b6000600480549050905090565b6004818154811061096157fe5b90600052602060002090600402016000915090508060000160009054906101000a900473ffffffffffffffffffffffffffffffffffffffff1690806001018054600181600116156101000203166002900480601f016020809104026020016040519081016040528092919081815260200182805460018160011615610100020316600290048015610a335780601f10610a0857610100808354040283529160200191610a33565b820191906000526020600020905b815481529060010190602001808311610a1657829003601f168201915b5050505050908060020160009054906101000a900460ff16908060030154905084565b6000600160003373ffffffffffffffffffffffffffffffffffffffff1673ffffffffffffffffffffffffffffffffffffffff168152602001908152602001600020541115610b735742600060018060003373ffffffffffffffffffffffffffffffffffffffff1673ffffffffffffffffffffffffffffffffffffffff168152602001908152602001600020540381548110610aed57fe5b90600052602060002090600902016002015410610b72576040517f08c379a00000000000000000000000000000000000000000000000000000000081526004018080602001828103825260168152602001807f446561646c696e65206e6f74206f766572207965742e0000000000000000000081525060200191505060405180910390fd5b5b6000600360003373ffffffffffffffffffffffffffffffffffffffff1673ffffffffffffffffffffffffffffffffffffffff168152602001908152602001600020541115610c74574260026001600360003373ffffffffffffffffffffffffffffffffffffffff1673ffffffffffffffffffffffffffffffffffffffff168152602001908152602001600020540381548110610c0b57fe5b90600052602060002090600602016002015410610c73576040517f08c379a000000000000000000000000000000000000000000000000000000000815260040180806020018281038252602e815260200180612c53602e913960400191505060405180910390fd5b5b610c7c6129e1565b600081606001818152505060008160800181815250504285018160200181815250508381604001818152505060018160a0019015159081151581525050828160c0018181525050818160e0019060ff16908160ff16815250503381610100019073ffffffffffffffffffffffffffffffffffffffff16908173ffffffffffffffffffffffffffffffffffffffff1681525050600081908060018154018082558091505090600182039060005260206000209060090201600090919290919091506000820151816001019080519060200190610d58929190612a48565b506020820151816002015560408201518160030155606082015181600401556080820151816005015560a08201518160060160006101000a81548160ff02191690831515021790555060c0820151816007015560e08201518160080160006101000a81548160ff021916908360ff1602179055506101008201518160080160016101000a81548173ffffffffffffffffffffffffffffffffffffffff021916908373ffffffffffffffffffffffffffffffffffffffff160217905550505050600080549050600160003373ffffffffffffffffffffffffffffffffffffffff1673ffffffffffffffffffffffffffffffffffffffff168152602001908152602001600020819055505050505050565b60008111610edd576040517f08c379a000000000000000000000000000000000000000000000000000000000815260040180806020018281038252601d8152602001807f4f7267616e697a6174696f6e20446f6573204e6f74204578697374732e00000081525060200191505060405180910390fd5b3460048281548110610eeb57fe5b90600052602060002090600402016003016000828254019250508190555050565b6000600560003373ffffffffffffffffffffffffffffffffffffffff1673ffffffffffffffffffffffffffffffffffffffff1681526020019081526020016000205411610fc1576040517f08c379a000000000000000000000000000000000000000000000000000000000815260040180806020018281038252601d8152602001807f4f7267616e697a6174696f6e20446f6573204e6f74204578697374732e00000081525060200191505060405180910390fd5b60006001600560003373ffffffffffffffffffffffffffffffffffffffff1673ffffffffffffffffffffffffffffffffffffffff168152602001908152602001600020540390506004818154811061101557fe5b906000526020600020906004020160000160009054906101000a900473ffffffffffffffffffffffffffffffffffffffff1673ffffffffffffffffffffffffffffffffffffffff163373ffffffffffffffffffffffffffffffffffffffff16146110e7576040517f08c379a00000000000000000000000000000000000000000000000000000000081526004018080602001828103825260168152602001807f4f6e6c792041646d696e20697320616c6c6f776564210000000000000000000081525060200191505060405180910390fd5b81600482815481106110f557fe5b906000526020600020906004020160030154101561117b576040517f08c379a00000000000000000000000000000000000000000000000000000000081526004018080602001828103825260138152602001807f4e6f7420656e6f7567682062616c616e6365210000000000000000000000000081525060200191505060405180910390fd5b6004818154811061118857fe5b906000526020600020906004020160000160009054906101000a900473ffffffffffffffffffffffffffffffffffffffff1673ffffffffffffffffffffffffffffffffffffffff166108fc839081150290604051600060405180830381858888f193505050501580156111ff573d6000803e3d6000fd5b50816004828154811061120e57fe5b9060005260206000209060040201600301600082825403925050819055505050565b600080600560008473ffffffffffffffffffffffffffffffffffffffff1673ffffffffffffffffffffffffffffffffffffffff16815260200190815260200160002054116112e6576040517f08c379a000000000000000000000000000000000000000000000000000000000815260040180806020018281038252601d8152602001807f4f7267616e697a6174696f6e20446f6573204e6f74204578697374732e00000081525060200191505060405180910390fd5b6001600560008473ffffffffffffffffffffffffffffffffffffffff1673ffffffffffffffffffffffffffffffffffffffff16815260200190815260200160002054039050919050565b60008060018060008573ffffffffffffffffffffffffffffffffffffffff1673ffffffffffffffffffffffffffffffffffffffff168152602001908152602001600020540390506000818154811061138457fe5b906000526020600020906009020160050154600082815481106113a357fe5b90600052602060002090600902016004015411915050919050565b600281815481106113cb57fe5b9060005260206000209060060201600201544210611451576040517f08c379a000000000000000000000000000000000000000000000000000000000815260040180806020018281038252600d8152602001807f54696d65206973204f766572210000000000000000000000000000000000000081525060200191505060405180910390fd5b60006002828154811061146057fe5b906000526020600020906006020160000160003373ffffffffffffffffffffffffffffffffffffffff1673ffffffffffffffffffffffffffffffffffffffff1681526020019081526020016000205414156114e457600281815481106114c257fe5b9060005260206000209060060201600101600081548092919060010191905055505b34600282815481106114f257fe5b906000526020600020906006020160000160003373ffffffffffffffffffffffffffffffffffffffff1673ffffffffffffffffffffffffffffffffffffffff16815260200190815260200160002060008282540192505081905550346002828154811061155b57fe5b90600052602060002090600602016004016000828254019250508190555050565b600060018060008473ffffffffffffffffffffffffffffffffffffffff1673ffffffffffffffffffffffffffffffffffffffff168152602001908152602001600020540390506000600160008473ffffffffffffffffffffffffffffffffffffffff1673ffffffffffffffffffffffffffffffffffffffff16815260200190815260200160002054141561165b576040517f08c379a0000000000000000000000000000000000000000000000000000000008152600401808060200182810382526022815260200180612cad6022913960400191505060405180910390fd5b61166482611330565b6116d6576040517f08c379a000000000000000000000000000000000000000000000000000000000815260040180806020018281038252601e8152602001807f4e6f7420456c696769626c652e204e6f20656e6f75676820766f7465732e000081525060200191505060405180910390fd5b42600082815481106116e457fe5b906000526020600020906009020160020181905550611701612aee565b426000838154811061170f57fe5b906000526020600020906009020160030154018160200181815250506000828154811061173857fe5b9060005260206000209060090201600701548160400181815250506000828154811061176057fe5b906000526020600020906009020160080160009054906101000a900460ff16816080019060ff16908160ff1681525050828160a0019073ffffffffffffffffffffffffffffffffffffffff16908173ffffffffffffffffffffffffffffffffffffffff1681525050600281908060018154018082558091505090600182039060005260206000209060060201600090919290919091506000820151816001015560208201518160020155604082015181600301556060820151816004015560808201518160050160006101000a81548160ff021916908360ff16021790555060a08201518160050160016101000a81548173ffffffffffffffffffffffffffffffffffffffff021916908373ffffffffffffffffffffffffffffffffffffffff160217905550505050600280549050600360008573ffffffffffffffffffffffffffffffffffffffff1673ffffffffffffffffffffffffffffffffffffffff16815260200190815260200160002081905550505050565b6000600560003373ffffffffffffffffffffffffffffffffffffffff1673ffffffffffffffffffffffffffffffffffffffff168152602001908152602001600020541461196f576040517f08c379a000000000000000000000000000000000000000000000000000000000815260040180806020018281038252602c815260200180612c81602c913960400191505060405180910390fd5b611977612b3d565b33816000019073ffffffffffffffffffffffffffffffffffffffff16908173ffffffffffffffffffffffffffffffffffffffff1681525050818160200181905250828160400190151590811515815250506004819080600181540180825580915050906001820390600052602060002090600402016000909192909190915060008201518160000160006101000a81548173ffffffffffffffffffffffffffffffffffffffff021916908373ffffffffffffffffffffffffffffffffffffffff1602179055506020820151816001019080519060200190611a59929190612b7d565b5060408201518160020160006101000a81548160ff02191690831515021790555060608201518160030155505050600480549050600560003373ffffffffffffffffffffffffffffffffffffffff1673ffffffffffffffffffffffffffffffffffffffff16815260200190815260200160002081905550505050565b60028181548110611ae257fe5b906000526020600020906006020160050160019054906101000a900473ffffffffffffffffffffffffffffffffffffffff1673ffffffffffffffffffffffffffffffffffffffff163373ffffffffffffffffffffffffffffffffffffffff1614611bb4576040517f08c379a00000000000000000000000000000000000000000000000000000000081526004018080602001828103825260168152602001807f4f6e6c792041646d696e20697320616c6c6f776564210000000000000000000081525060200191505060405180910390fd5b60028181548110611bc157fe5b90600052602060002090600602016003015460028281548110611be057fe5b9060005260206000209060060201600401541015611c66576040517f08c379a00000000000000000000000000000000000000000000000000000000081526004018080602001828103825260188152602001807f476f616c20616d6f756e74206e6f74207265616368656421000000000000000081525060200191505060405180910390fd5b60028181548110611c7357fe5b906000526020600020906006020160050160019054906101000a900473ffffffffffffffffffffffffffffffffffffffff1673ffffffffffffffffffffffffffffffffffffffff166108fc60028381548110611ccb57fe5b9060005260206000209060060201600401549081150290604051600060405180830381858888f19350505050158015611d08573d6000803e3d6000fd5b5050565b60028181548110611d1957fe5b9060005260206000209060060201600201544211611d9f576040517f08c379a00000000000000000000000000000000000000000000000000000000081526004018080602001828103825260158152602001807f446561646c696e65206973206e6f74204f76657221000000000000000000000081525060200191505060405180910390fd5b60028181548110611dac57fe5b90600052602060002090600602016003015460028281548110611dcb57fe5b90600052602060002090600602016004015410611e33576040517f08c379a0000000000000000000000000000000000000000000000000000000008152600401808060200182810382526022815260200180612cf66022913960400191505060405180910390fd5b600060028281548110611e4257fe5b906000526020600020906006020160000160003373ffffffffffffffffffffffffffffffffffffffff1673ffffffffffffffffffffffffffffffffffffffff1681526020019081526020016000205411611f04576040517f08c379a00000000000000000000000000000000000000000000000000000000081526004018080602001828103825260188152602001807f596f7520686176656e277420436f6e747269627574656421000000000000000081525060200191505060405180910390fd5b3373ffffffffffffffffffffffffffffffffffffffff166108fc60028381548110611f2b57fe5b906000526020600020906006020160000160003373ffffffffffffffffffffffffffffffffffffffff1673ffffffffffffffffffffffffffffffffffffffff168152602001908152602001600020549081150290604051600060405180830381858888f19350505050158015611fa5573d6000803e3d6000fd5b5060028181548110611fb357fe5b906000526020600020906006020160000160003373ffffffffffffffffffffffffffffffffffffffff1673ffffffffffffffffffffffffffffffffffffffff168152602001908152602001600020546002828154811061200f57fe5b90600052602060002090600602016004016000828254039250508190555060006002828154811061203c57fe5b906000526020600020906006020160000160003373ffffffffffffffffffffffffffffffffffffffff1673ffffffffffffffffffffffffffffffffffffffff1681526020019081526020016000208190555050565b6000600560003373ffffffffffffffffffffffffffffffffffffffff1673ffffffffffffffffffffffffffffffffffffffff1681526020019081526020016000205411612146576040517f08c379a000000000000000000000000000000000000000000000000000000000815260040180806020018281038252601c8152602001807f4f6e6c79204f7267616e697a6174696f6e732063616e20566f7465210000000081525060200191505060405180910390fd5b3373ffffffffffffffffffffffffffffffffffffffff168273ffffffffffffffffffffffffffffffffffffffff1614156121e8576040517f08c379a00000000000000000000000000000000000000000000000000000000081526004018080602001828103825260128152602001807f41646d696e2043616e6e6f7420566f746521000000000000000000000000000081525060200191505060405180910390fd5b600060018060008573ffffffffffffffffffffffffffffffffffffffff1673ffffffffffffffffffffffffffffffffffffffff16815260200190815260200160002054039050426000828154811061223c57fe5b906000526020600020906009020160020154116122c1576040517f08c379a00000000000000000000000000000000000000000000000000000000081526004018080602001828103825260158152602001807f566f74696e6720646561646c696e65206f76657221000000000000000000000081525060200191505060405180910390fd5b60008082815481106122cf57fe5b906000526020600020906009020160000160003373ffffffffffffffffffffffffffffffffffffffff1673ffffffffffffffffffffffffffffffffffffffff1681526020019081526020016000205490506000828154811061232d57fe5b906000526020600020906009020160010180549050600182011115612439576000828154811061235957fe5b90600052602060002090600902016001016001908060018154018082558091505090600182039060005260206000209060209182820401919006909192909190916101000a81548160ff021916908315150217905550506001600083815481106123bf57fe5b90600052602060002090600902016001018054905003600083815481106123e257fe5b906000526020600020906009020160000160003373ffffffffffffffffffffffffffffffffffffffff1673ffffffffffffffffffffffffffffffffffffffff168152602001908152602001600020819055506124fc565b600015156000838154811061244a57fe5b9060005260206000209060090201600101828154811061246657fe5b90600052602060002090602091828204019190069054906101000a900460ff161515146124fb576040517f08c379a000000000000000000000000000000000000000000000000000000000815260040180806020018281038252600e8152602001807f416c726561647920566f7465642100000000000000000000000000000000000081525060200191505060405180910390fd5b5b8215612535576000828154811061250f57fe5b906000526020600020906009020160040160008154809291906001019190505550612564565b6000828154811061254257fe5b9060005260206000209060090201600501600081548092919060010191905055505b61256d84611330565b156125ba576125b96000838154811061258257fe5b906000526020600020906009020160080160019054906101000a900473ffffffffffffffffffffffffffffffffffffffff1661157c565b5b50505050565b600080600080600080600160008873ffffffffffffffffffffffffffffffffffffffff1673ffffffffffffffffffffffffffffffffffffffff168152602001908152602001600020541415612660576040517f08c379a0000000000000000000000000000000000000000000000000000000008152600401808060200182810382526027815260200180612ccf6027913960400191505060405180910390fd5b600060018060008973ffffffffffffffffffffffffffffffffffffffff1673ffffffffffffffffffffffffffffffffffffffff16815260200190815260200160002054039050600081815481106126b357fe5b906000526020600020906009020160040154600082815481106126d257fe5b906000526020600020906009020160050154600083815481106126f157fe5b9060005260206000209060090201600201546000848154811061271057fe5b9060005260206000209060090201600701546000858154811061272f57fe5b906000526020600020906009020160080160009054906101000a900460ff16955095509550955095505091939590929450565b600080600360008473ffffffffffffffffffffffffffffffffffffffff1673ffffffffffffffffffffffffffffffffffffffff16815260200190815260200160002054116127fb576040517f08c379a000000000000000000000000000000000000000000000000000000000815260040180806020018281038252602d815260200180612d18602d913960400191505060405180910390fd5b6001600360008473ffffffffffffffffffffffffffffffffffffffff1673ffffffffffffffffffffffffffffffffffffffff16815260200190815260200160002054039050919050565b6000600560008373ffffffffffffffffffffffffffffffffffffffff1673ffffffffffffffffffffffffffffffffffffffff16815260200190815260200160002054116128fa576040517f08c379a000000000000000000000000000000000000000000000000000000000815260040180806020018281038252601d8152602001807f4f7267616e697a6174696f6e20446f6573204e6f74204578697374732e00000081525060200191505060405180910390fd5b3460046001600560008573ffffffffffffffffffffffffffffffffffffffff1673ffffffffffffffffffffffffffffffffffffffff16815260200190815260200160002054038154811061294a57fe5b90600052602060002090600402016003016000828254019250508190555050565b6002818154811061297857fe5b90600052602060002090600602016000915090508060010154908060020154908060030154908060040154908060050160009054906101000a900460ff16908060050160019054906101000a900473ffffffffffffffffffffffffffffffffffffffff16905086565b604051806101200160405280606081526020016000815260200160008152602001600081526020016000815260200160001515815260200160008152602001600060ff168152602001600073ffffffffffffffffffffffffffffffffffffffff1681525090565b82805482825590600052602060002090601f01602090048101928215612add5791602002820160005b83821115612aae57835183826101000a81548160ff0219169083151502179055509260200192600101602081600001049283019260010302612a71565b8015612adb5782816101000a81549060ff0219169055600101602081600001049283019260010302612aae565b505b509050612aea9190612bfd565b5090565b6040518060c0016040528060008152602001600081526020016000815260200160008152602001600060ff168152602001600073ffffffffffffffffffffffffffffffffffffffff1681525090565b6040518060800160405280600073ffffffffffffffffffffffffffffffffffffffff16815260200160608152602001600015158152602001600081525090565b828054600181600116156101000203166002900490600052602060002090601f016020900481019282601f10612bbe57805160ff1916838001178555612bec565b82800160010185558215612bec579182015b82811115612beb578251825591602001919060010190612bd0565b5b509050612bf99190612c2d565b5090565b612c2a91905b80821115612c2657600081816101000a81549060ff021916905550600101612c03565b5090565b90565b612c4f91905b80821115612c4b576000816000905550600101612c33565b5090565b9056fe43726f776466756e64696e672045786973747320616e6420646561646c696e65206e6f74206f766572207965742e4f7267616e697a6174696f6e20416c726561647920457869737473206f6e2074686973204163636f756e742e4e6f742056616c69642e204669727374204170706c7920666f7220766f74696e672e566f74696e6720646f6573206e6f7420657869737473206f6e207468697320616464726573732e476f616c20697320726561636865642e596f752063616e6e6f7420726566756e642143726f776446756e64696e6720646f6573206e6f7420657869737473206f6e2074686973206164647265737321a265627a7a723158206661caa3d21a6b85a552dcec5264eb177ddcaee0cc8517f1ab74b615eeb0e8ea64736f6c63430005100032",
  "source": "// SPDX-License-Identifier: MIT\r\npragma solidity >=0.4.22 <0.9.0;\r\n\r\n// pragma solidity >=0.4.22 <0.6.0;\r\n\r\ncontract mainTest{   \r\n\r\n\r\n// ######################### Voting #########################\r\n    \r\n    struct voting{\r\n        mapping(address=>uint) votersIdx;\r\n        bool[] alreadyVoted;\r\n        uint votingDeadline;\r\n        uint cfDeadline;\r\n        uint positiveVotes;\r\n        uint negativeVotes;\r\n        bool valid;\r\n        uint amount;\r\n        uint8 catagory;\r\n        address admin;\r\n    }\r\n    \r\n    // voting[] public votingDb;\r\n    // mapping(address=>voting) votingDb;\r\n    \r\n    // uind id = votingIdxDb[Address] - 1;\r\n    // votingDb[id];\r\n    \r\n    voting[] public votingDb;\r\n    mapping (address => uint) votingIdxDb;\r\n    \r\n    \r\n    function createVoting(uint deadline,uint cfDeadline,uint _amount, uint8 _catagory) public {\r\n        if(votingIdxDb[msg.sender] > 0){\r\n            require(votingDb[votingIdxDb[msg.sender] - 1].votingDeadline < now,\"Deadline not over yet.\");\r\n        }\r\n        // require(votingIdxDb[msg.sender] == 0,\"Voting Already Exists.\");\r\n        if(cfIdxDb[msg.sender]>0){\r\n            require(cfDb[cfIdxDb[msg.sender] - 1].deadline<now,\"Crowdfunding Exists and deadline not over yet.\");\r\n        }\r\n        voting memory v;\r\n        v.positiveVotes = 0;\r\n        v.negativeVotes = 0;\r\n        v.votingDeadline = deadline + now;\r\n        v.cfDeadline = cfDeadline;\r\n        v.valid = true;\r\n        v.amount = _amount;\r\n        v.catagory = _catagory;\r\n        v.admin = msg.sender;\r\n        votingDb.push(v);\r\n        votingIdxDb[msg.sender] = votingDb.length;\r\n    }\r\n    \r\n    function vote(address votingId,bool doYouAgree) public {\r\n        require (orgIdxDb[msg.sender] > 0,\"Only Organizations can Vote!\");\r\n        require(votingId != msg.sender,\"Admin Cannot Vote!\");\r\n        uint id = votingIdxDb[votingId] - 1;\r\n        require(votingDb[id].votingDeadline>now,\"Voting deadline over!\");\r\n        uint idx = votingDb[id].votersIdx[msg.sender];\r\n        if(idx+1 > votingDb[id].alreadyVoted.length){\r\n            votingDb[id].alreadyVoted.push(true);\r\n            votingDb[id].votersIdx[msg.sender] = votingDb[id].alreadyVoted.length - 1;\r\n        }else{\r\n            require(votingDb[id].alreadyVoted[idx] == false,\"Already Voted!\");\r\n        }\r\n        \r\n        if(doYouAgree){\r\n            votingDb[id].positiveVotes++;\r\n        }else{\r\n            votingDb[id].negativeVotes++;\r\n        }\r\n        \r\n        if(isEligible(votingId)){\r\n            createCrowdFund(votingDb[id].admin);\r\n        }\r\n        \r\n    }\r\n\r\n    function getVotingStatus(address votingId) view public returns(\r\n            uint positiveVotes,\r\n            uint negativeVotes,\r\n            uint deadline,\r\n            uint amount,\r\n            uint8 catagory\r\n        ) {\r\n        require(votingIdxDb[votingId] != 0,\"Voting does not exists on this address.\");\r\n        uint id = votingIdxDb[votingId] - 1;\r\n        return (\r\n            votingDb[id].positiveVotes,\r\n            votingDb[id].negativeVotes,\r\n            votingDb[id].votingDeadline,\r\n            votingDb[id].amount,\r\n            votingDb[id].catagory\r\n        );\r\n    }\r\n    \r\n    \r\n    function isEligible(address votingId) view public returns(bool) {\r\n        //Some logic\r\n        uint id = votingIdxDb[votingId] - 1;\r\n        return (votingDb[id].positiveVotes > votingDb[id].negativeVotes);\r\n    }\r\n    \r\n    \r\n        \r\n    \r\n    \r\n    // function vote(address votingId,bool doYouAgree) public{\r\n    //     uint vIdx = votingDb[votingId].votersIdx[msg.sender];\r\n        \r\n    //     require(votingDb[votingId].votersChoice[vIdx] == false,\"Already Voted!\");\r\n    //     uint idx = votingDb[msg.sender].index;\r\n    //     if(doYouAgree){\r\n    //         votingDb[votingId].positiveVotes++;\r\n    //     }else{\r\n    //         votingDb[votingId].negativeVotes++;\r\n    //     }\r\n    //     votingDb[votingId].voters[msg.sender] = true;\r\n    // }\r\n\r\n// X-X-X-X-X-X-X-X-X-X-X-X-X Voting X-X-X-X-X-X-X-X-X-X-X-X-X\r\n    \r\n    \r\n// ######################### Crowd Funding #########################\r\n    struct crowdFund{\r\n        mapping(address=>uint) contributions;\r\n        uint totalContributors;    \r\n        uint deadline;             \r\n        uint goal;                 \r\n        uint raisedAmount ;    \r\n        uint8 catagory;\r\n        address payable admin;\r\n    }\r\n    \r\n    crowdFund[] public cfDb;\r\n    mapping (address => uint) cfIdxDb;\r\n    \r\n    \r\n    function getCfDbCount() view public returns(uint){\r\n        return cfDb.length;\r\n    }\r\n    \r\n    // function getCfIdFromAddress(address cfAddress) view public returns(uint){\r\n    //     for(uint i=0;i<cfDb.length;i++){\r\n    //         if(cfDb[i].admin == cfAddress){\r\n    //             return i;\r\n    //         }\r\n    //     }\r\n    // }\r\n\r\n    function getCfIdFromAddress(address cfAddress) view public returns(uint){\r\n        require(cfIdxDb[cfAddress] > 0,\"CrowdFunding does not exists on this address!\");\r\n        return (cfIdxDb[cfAddress] - 1);\r\n    }\r\n    \r\n        function createCrowdFund(address addr) public{//uint _deadlineSecs\r\n        uint id = votingIdxDb[addr] - 1;\r\n        require(votingIdxDb[addr] != 0,\"Not Valid. First Apply for voting.\");\r\n        // require(votingDb[id].valid,\"Not Valid. First Apply for voting.!\");\r\n        require(isEligible(addr),\"Not Eligible. No enough votes.\");\r\n        // require(votingDb[id].votingDeadline < now,\"Voting deadline not over yet!\");\r\n        votingDb[id].votingDeadline = now;\r\n        crowdFund memory cf;\r\n        // cf.deadline= now + _deadlineSecs;\r\n        cf.deadline = votingDb[id].cfDeadline + now;\r\n        cf.goal= votingDb[id].amount;\r\n        cf.catagory = votingDb[id].catagory;\r\n        cf.admin = address(uint160(addr));\r\n        cfDb.push(cf);\r\n        // votingDb[id].valid = false;\r\n        // votingIdxDb[addr] = 0;\r\n        cfIdxDb[addr] = cfDb.length;\r\n    }\r\n    \r\n    // function createCrowdFund() public{//uint _deadlineSecs\r\n    //     uint id = votingIdxDb[msg.sender] - 1;\r\n    //     require(votingIdxDb[msg.sender] != 0,\"Not Valid. First Apply for voting.\");\r\n    //     // require(votingDb[id].valid,\"Not Valid. First Apply for voting.!\");\r\n    //     require(isEligible(msg.sender),\"Not Eligible. No enough votes.\");\r\n    //     require(votingDb[id].votingDeadline < now,\"Voting deadline not over yet!\");\r\n    //     crowdFund memory cf;\r\n    //     // cf.deadline= now + _deadlineSecs;\r\n    //     cf.deadline = votingDb[id].cfDeadline + now;\r\n    //     cf.goal= votingDb[id].amount;\r\n    //     cf.catagory = votingDb[id].catagory;\r\n    //     cf.admin = msg.sender;\r\n    //     cfDb.push(cf);\r\n    //     // votingDb[id].valid = false;\r\n    //     votingIdxDb[msg.sender] = 0;\r\n    //     cfIdxDb[msg.sender] = cfDb.length;\r\n    // }\r\n    \r\n    function cf_contribute(uint cfId) public payable {\r\n        require(now < cfDb[cfId].deadline,\"Time is Over!\");\r\n        if(cfDb[cfId].contributions[msg.sender] == 0)\r\n        {\r\n            cfDb[cfId].totalContributors++;\r\n        }\r\n        cfDb[cfId].contributions[msg.sender] += msg.value;\r\n        cfDb[cfId].raisedAmount+=msg.value;\r\n    }\r\n    \r\n    //Get Refund if goal is not reached within the set deadline.\r\n    function cf_getRefund(uint cfId) public {\r\n        require(now > cfDb[cfId].deadline,\"Deadline is not Over!\");\r\n        require(cfDb[cfId].raisedAmount < cfDb[cfId].goal,\"Goal is reached.You cannot refund!\");\r\n        require(cfDb[cfId].contributions[msg.sender] > 0,\"You haven't Contributed!\");\r\n        msg.sender.transfer(cfDb[cfId].contributions[msg.sender]);\r\n        cfDb[cfId].raisedAmount -= cfDb[cfId].contributions[msg.sender];\r\n        cfDb[cfId].contributions[msg.sender] = 0;\r\n    }\r\n    \r\n    function cf_withdrawFunding(uint cfId) public {\r\n        require(msg.sender == cfDb[cfId].admin,\"Only Admin is allowed!\");\r\n        require(cfDb[cfId].raisedAmount >= cfDb[cfId].goal,\"Goal amount not reached!\");\r\n        cfDb[cfId].admin.transfer(cfDb[cfId].raisedAmount);\r\n    }\r\n    \r\n    // function cf_getRemainingTime(uint cfId) view public returns(uint) {\r\n    //    return cfDb[cfId].deadline - now;\r\n    // }\r\n// X-X-X-X-X-X-X-X-X-X-X-X-X Crowd Funding X-X-X-X-X-X-X-X-X-X-X-X-X\r\n\r\n// ######################### Organization #########################\r\n\r\n    struct organization{\r\n        address payable admin;\r\n        string name;\r\n        bool acceptingZakat;\r\n        uint balanceAmount;\r\n    }\r\n    \r\n    organization[] public orgDb;\r\n    mapping (address => uint) orgIdxDb;\r\n    \r\n    \r\n    function getOrgDbCount() view public returns(uint){\r\n        return orgDb.length;\r\n    }\r\n\r\n    function getOrgIdFromAddress(address orgAddress) view public returns(uint){\r\n        require (orgIdxDb[orgAddress] > 0,\"Organization Does Not Exists.\");\r\n        return (orgIdxDb[orgAddress] - 1);\r\n    }\r\n    \r\n    event Deposit(address indexed _from, uint _value);\r\n    \r\n    function createOrganization(bool _acceptingZakat,string memory orgName) public {\r\n        require (orgIdxDb[msg.sender] == 0,\"Organization Already Exists on this Account.\");\r\n        organization memory org;\r\n        org.admin = msg.sender;\r\n        org.name = orgName;\r\n        org.acceptingZakat = _acceptingZakat;\r\n        orgDb.push(org);\r\n        orgIdxDb[msg.sender] = orgDb.length;\r\n    }\r\n\r\n    function org_id_donate(uint orgId) public payable {\r\n        require (orgId > 0,\"Organization Does Not Exists.\");\r\n        orgDb[orgId].balanceAmount += msg.value;\r\n        // emit Deposit(msg.sender, msg.value);\r\n    }\r\n\r\n    function org_adr_donate(address orgAdr) public payable {\r\n        require (orgIdxDb[orgAdr] > 0,\"Organization Does Not Exists.\");\r\n        orgDb[orgIdxDb[orgAdr]-1].balanceAmount += msg.value;\r\n        // emit Deposit(msg.sender, msg.value);\r\n    }\r\n    \r\n    function org_withdraw(uint amount) public {\r\n        require (orgIdxDb[msg.sender] > 0,\"Organization Does Not Exists.\");\r\n        uint id = orgIdxDb[msg.sender]-1;\r\n        require(msg.sender == orgDb[id].admin,\"Only Admin is allowed!\");\r\n        require(orgDb[id].balanceAmount >= amount,\"Not enough balance!\");\r\n        orgDb[id].admin.transfer(amount);\r\n        orgDb[id].balanceAmount-= amount;\r\n    }\r\n    \r\n    // function org_donate(uint orgId) public payable {\r\n    //     orgDb[orgId].balanceAmount += msg.value;\r\n    //     emit Deposit(msg.sender, msg.value);\r\n    // }\r\n    \r\n    // function org_withdraw(uint amount,uint orgId) public {\r\n    //     require(msg.sender == orgDb[orgId].admin,\"Only Admin is allowed!\");\r\n    //     orgDb[orgId].admin.transfer(amount);\r\n    // }\r\n// X-X-X-X-X-X-X-X-X-X-X-X-X Ororganization X-X-X-X-X-X-X-X-X-X-X-X-X\r\n    \r\n    \r\n    \r\n\r\n\r\n\r\n\r\n\r\n\r\n\r\n\r\n\r\n// ######################### Main #########################\r\n\r\n// X-X-X-X-X-X-X-X-X-X-X-X-X Main X-X-X-X-X-X-X-X-X-X-X-X-X\r\n\r\n}\r\n\r\n// contract main{\r\n//     address[] public contracts;\r\n//     function createCrowdFund (uint _deadlineSecs,uint _goal) \r\n//     public \r\n//     returns(address newContract){\r\n//         crowdFund cf = new crowdFund(_deadlineSecs,_goal);\r\n//         contracts.push(address(cf));\r\n//         return address(cf);\r\n//     }\r\n    \r\n//     function getNow(uint id) view public returns(uint) {\r\n//         uint n = crowdFund(contracts[id]).getNow();\r\n//         return n;\r\n//     }\r\n// }\r\n\r\n\r\n\r\n\r\n    // bool[] public tst;\r\n    \r\n    // function pushTst(bool val) public{\r\n    //     tst.push(val);\r\n    // }\r\n    \r\n    // function lenTst() view public returns(uint){\r\n    //     return tst.length;\r\n    // }\r\n    \r\n    // function delTst() public{\r\n    //     delete tst;\r\n    // }",
  "sourcePath": "C:\\Users\\sunrise\\Documents\\proj\\contracts\\mainTest.sol",
  "compiler": {
    "name": "solc",
    "version": "0.5.16+commit.9c3226ce.Emscripten.clang"
  },
  "schemaVersion": "3.4.2",
  "updatedAt": "2021-09-04T07:20:02.299Z",
  "networkType": "ethereum",
  "devdoc": {
    "methods": {}
  },
  "userdoc": {
    "methods": {}
  }
}