{
  "contractName": "mainTest",
  "abi": [
    {
      "inputs": [],
      "payable": false,
      "stateMutability": "nonpayable",
      "type": "constructor"
    },
    {
      "anonymous": false,
      "inputs": [
        {
          "indexed": true,
          "internalType": "address",
          "name": "_from",
          "type": "address"
        },
        {
          "indexed": false,
          "internalType": "uint256",
          "name": "_value",
          "type": "uint256"
        }
      ],
      "name": "Deposit",
      "type": "event"
    },
    {
      "constant": true,
      "inputs": [
        {
          "internalType": "uint256",
          "name": "",
          "type": "uint256"
        }
      ],
      "name": "cfDb",
      "outputs": [
        {
          "internalType": "uint256",
          "name": "totalContributors",
          "type": "uint256"
        },
        {
          "internalType": "uint256",
          "name": "deadline",
          "type": "uint256"
        },
        {
          "internalType": "uint256",
          "name": "goal",
          "type": "uint256"
        },
        {
          "internalType": "uint256",
          "name": "raisedAmount",
          "type": "uint256"
        },
        {
          "internalType": "uint8",
          "name": "catagory",
          "type": "uint8"
        },
        {
          "internalType": "address payable",
          "name": "admin",
          "type": "address"
        }
      ],
      "payable": false,
      "stateMutability": "view",
      "type": "function"
    },
    {
      "constant": true,
      "inputs": [],
      "name": "contractAdmin",
      "outputs": [
        {
          "internalType": "address payable",
          "name": "",
          "type": "address"
        }
      ],
      "payable": false,
      "stateMutability": "view",
      "type": "function"
    },
    {
      "constant": true,
      "inputs": [
        {
          "internalType": "uint256",
          "name": "",
          "type": "uint256"
        }
      ],
      "name": "orgDb",
      "outputs": [
        {
          "internalType": "address payable",
          "name": "admin",
          "type": "address"
        },
        {
          "internalType": "string",
          "name": "name",
          "type": "string"
        },
        {
          "internalType": "uint256",
          "name": "balanceAmount",
          "type": "uint256"
        },
        {
          "internalType": "uint256",
          "name": "donateTotal",
          "type": "uint256"
        },
        {
          "internalType": "uint256",
          "name": "withdrawTotal",
          "type": "uint256"
        }
      ],
      "payable": false,
      "stateMutability": "view",
      "type": "function"
    },
    {
      "constant": true,
      "inputs": [
        {
          "internalType": "uint256",
          "name": "",
          "type": "uint256"
        }
      ],
      "name": "votingDb",
      "outputs": [
        {
          "internalType": "uint256",
          "name": "votingDeadline",
          "type": "uint256"
        },
        {
          "internalType": "uint256",
          "name": "cfDeadline",
          "type": "uint256"
        },
        {
          "internalType": "uint256",
          "name": "positiveVotes",
          "type": "uint256"
        },
        {
          "internalType": "uint256",
          "name": "negativeVotes",
          "type": "uint256"
        },
        {
          "internalType": "uint256",
          "name": "amount",
          "type": "uint256"
        },
        {
          "internalType": "uint8",
          "name": "catagory",
          "type": "uint8"
        },
        {
          "internalType": "address",
          "name": "admin",
          "type": "address"
        }
      ],
      "payable": false,
      "stateMutability": "view",
      "type": "function"
    },
    {
      "constant": true,
      "inputs": [
        {
          "internalType": "address",
          "name": "addr",
          "type": "address"
        }
      ],
      "name": "getAddrStatus",
      "outputs": [
        {
          "internalType": "uint256",
          "name": "orgId",
          "type": "uint256"
        },
        {
          "internalType": "uint256",
          "name": "cfId",
          "type": "uint256"
        },
        {
          "internalType": "uint256",
          "name": "votingId",
          "type": "uint256"
        }
      ],
      "payable": false,
      "stateMutability": "view",
      "type": "function"
    },
    {
      "constant": true,
      "inputs": [],
      "name": "getVotingDbCount",
      "outputs": [
        {
          "internalType": "uint256",
          "name": "",
          "type": "uint256"
        }
      ],
      "payable": false,
      "stateMutability": "view",
      "type": "function"
    },
    {
      "constant": false,
      "inputs": [
        {
          "internalType": "uint256",
          "name": "deadline",
          "type": "uint256"
        },
        {
          "internalType": "uint256",
          "name": "cfDeadline",
          "type": "uint256"
        },
        {
          "internalType": "uint256",
          "name": "_amount",
          "type": "uint256"
        },
        {
          "internalType": "uint8",
          "name": "_catagory",
          "type": "uint8"
        }
      ],
      "name": "createVoting",
      "outputs": [],
      "payable": false,
      "stateMutability": "nonpayable",
      "type": "function"
    },
    {
      "constant": false,
      "inputs": [
        {
          "internalType": "address",
          "name": "votingId",
          "type": "address"
        },
        {
          "internalType": "bool",
          "name": "doYouAgree",
          "type": "bool"
        }
      ],
      "name": "vote",
      "outputs": [],
      "payable": false,
      "stateMutability": "nonpayable",
      "type": "function"
    },
    {
      "constant": true,
      "inputs": [
        {
          "internalType": "address",
          "name": "votingId",
          "type": "address"
        }
      ],
      "name": "getVotingStatus",
      "outputs": [
        {
          "internalType": "uint256",
          "name": "positiveVotes",
          "type": "uint256"
        },
        {
          "internalType": "uint256",
          "name": "negativeVotes",
          "type": "uint256"
        },
        {
          "internalType": "uint256",
          "name": "deadline",
          "type": "uint256"
        },
        {
          "internalType": "uint256",
          "name": "amount",
          "type": "uint256"
        },
        {
          "internalType": "uint8",
          "name": "catagory",
          "type": "uint8"
        }
      ],
      "payable": false,
      "stateMutability": "view",
      "type": "function"
    },
    {
      "constant": true,
      "inputs": [
        {
          "internalType": "address",
          "name": "votingId",
          "type": "address"
        }
      ],
      "name": "isEligible",
      "outputs": [
        {
          "internalType": "bool",
          "name": "",
          "type": "bool"
        }
      ],
      "payable": false,
      "stateMutability": "view",
      "type": "function"
    },
    {
      "constant": true,
      "inputs": [],
      "name": "getCfDbCount",
      "outputs": [
        {
          "internalType": "uint256",
          "name": "",
          "type": "uint256"
        }
      ],
      "payable": false,
      "stateMutability": "view",
      "type": "function"
    },
    {
      "constant": true,
      "inputs": [
        {
          "internalType": "address",
          "name": "cfAddress",
          "type": "address"
        }
      ],
      "name": "getCfIdFromAddress",
      "outputs": [
        {
          "internalType": "uint256",
          "name": "",
          "type": "uint256"
        }
      ],
      "payable": false,
      "stateMutability": "view",
      "type": "function"
    },
    {
      "constant": false,
      "inputs": [
        {
          "internalType": "address",
          "name": "addr",
          "type": "address"
        }
      ],
      "name": "createCrowdFund",
      "outputs": [],
      "payable": false,
      "stateMutability": "nonpayable",
      "type": "function"
    },
    {
      "constant": false,
      "inputs": [
        {
          "internalType": "uint256",
          "name": "cfId",
          "type": "uint256"
        }
      ],
      "name": "cf_contribute",
      "outputs": [],
      "payable": true,
      "stateMutability": "payable",
      "type": "function"
    },
    {
      "constant": false,
      "inputs": [
        {
          "internalType": "uint256",
          "name": "cfId",
          "type": "uint256"
        }
      ],
      "name": "cf_getRefund",
      "outputs": [],
      "payable": false,
      "stateMutability": "nonpayable",
      "type": "function"
    },
    {
      "constant": false,
      "inputs": [
        {
          "internalType": "uint256",
          "name": "cfId",
          "type": "uint256"
        }
      ],
      "name": "cf_withdrawFunding",
      "outputs": [],
      "payable": false,
      "stateMutability": "nonpayable",
      "type": "function"
    },
    {
      "constant": true,
      "inputs": [],
      "name": "getOrgDbCount",
      "outputs": [
        {
          "internalType": "uint256",
          "name": "",
          "type": "uint256"
        }
      ],
      "payable": false,
      "stateMutability": "view",
      "type": "function"
    },
    {
      "constant": true,
      "inputs": [
        {
          "internalType": "address",
          "name": "orgAddress",
          "type": "address"
        }
      ],
      "name": "getOrgIdFromAddress",
      "outputs": [
        {
          "internalType": "uint256",
          "name": "",
          "type": "uint256"
        }
      ],
      "payable": false,
      "stateMutability": "view",
      "type": "function"
    },
    {
      "constant": false,
      "inputs": [
        {
          "internalType": "address payable",
          "name": "addr",
          "type": "address"
        },
        {
          "internalType": "string",
          "name": "orgName",
          "type": "string"
        }
      ],
      "name": "createOrganization",
      "outputs": [],
      "payable": false,
      "stateMutability": "nonpayable",
      "type": "function"
    },
    {
      "constant": false,
      "inputs": [
        {
          "internalType": "uint256",
          "name": "orgId",
          "type": "uint256"
        }
      ],
      "name": "org_id_donate",
      "outputs": [],
      "payable": true,
      "stateMutability": "payable",
      "type": "function"
    },
    {
      "constant": false,
      "inputs": [
        {
          "internalType": "address",
          "name": "orgAdr",
          "type": "address"
        }
      ],
      "name": "org_adr_donate",
      "outputs": [],
      "payable": true,
      "stateMutability": "payable",
      "type": "function"
    },
    {
      "constant": false,
      "inputs": [
        {
          "internalType": "uint256",
          "name": "amount",
          "type": "uint256"
        }
      ],
      "name": "org_withdraw",
      "outputs": [],
      "payable": false,
      "stateMutability": "nonpayable",
      "type": "function"
    },
    {
      "constant": false,
      "inputs": [
        {
          "internalType": "address payable",
          "name": "addr",
          "type": "address"
        },
        {
          "internalType": "uint256",
          "name": "amount",
          "type": "uint256"
        }
      ],
      "name": "org_send",
      "outputs": [],
      "payable": false,
      "stateMutability": "nonpayable",
      "type": "function"
    }
  ],
  "bytecode": "0x608060405234801561001057600080fd5b50336000806101000a81548173ffffffffffffffffffffffffffffffffffffffff021916908373ffffffffffffffffffffffffffffffffffffffff160217905550613193806100606000396000f3fe6080604052600436106101405760003560e01c80638898750d116100b6578063d867909a1161006f578063d867909a1461071c578063d8ecd925146107a3578063e48893b91461088b578063e6b39ac1146108e6578063f63b649d1461094b578063f71b3a341461098f57610140565b80638898750d1461055a57806398039d84146105ab578063a0ce4136146105d6578063a9f670e114610649578063ae8c785114610684578063bd041c4d146106bf57610140565b80634bcfb07e116101085780634bcfb07e1461039e5780634c25c31b146103cc5780635148838b1461040757806366e305fd1461046c578063730c6d56146104d5578063779552451461050357610140565b80630824ab5d146101455780630f6278ed146101f05780631f361ee51461021b5780633e9dfa30146102465780634418f83614610342575b600080fd5b34801561015157600080fd5b5061017e6004803603602081101561016857600080fd5b8101908080359060200190929190505050610a33565b604051808881526020018781526020018681526020018581526020018481526020018360ff1660ff1681526020018273ffffffffffffffffffffffffffffffffffffffff1673ffffffffffffffffffffffffffffffffffffffff16815260200197505050505050505060405180910390f35b3480156101fc57600080fd5b50610205610aaf565b6040518082815260200191505060405180910390f35b34801561022757600080fd5b50610230610abc565b6040518082815260200191505060405180910390f35b34801561025257600080fd5b5061027f6004803603602081101561026957600080fd5b8101908080359060200190929190505050610ac9565b604051808673ffffffffffffffffffffffffffffffffffffffff1673ffffffffffffffffffffffffffffffffffffffff16815260200180602001858152602001848152602001838152602001828103825286818151815260200191508051906020019080838360005b838110156103035780820151818401526020810190506102e8565b50505050905090810190601f1680156103305780820380516001836020036101000a031916815260200191505b50965050505050505060405180910390f35b34801561034e57600080fd5b5061039c6004803603608081101561036557600080fd5b81019080803590602001909291908035906020019092919080359060200190929190803560ff169060200190929190505050610bc4565b005b6103ca600480360360208110156103b457600080fd5b8101908080359060200190929190505050610f85565b005b3480156103d857600080fd5b50610405600480360360208110156103ef57600080fd5b8101908080359060200190929190505050611056565b005b34801561041357600080fd5b506104566004803603602081101561042a57600080fd5b81019080803573ffffffffffffffffffffffffffffffffffffffff1690602001909291905050506113a6565b6040518082815260200191505060405180910390f35b34801561047857600080fd5b506104bb6004803603602081101561048f57600080fd5b81019080803573ffffffffffffffffffffffffffffffffffffffff1690602001909291905050506114a6565b604051808215151515815260200191505060405180910390f35b610501600480360360208110156104eb57600080fd5b8101908080359060200190929190505050611519565b005b34801561050f57600080fd5b506105186116d7565b604051808273ffffffffffffffffffffffffffffffffffffffff1673ffffffffffffffffffffffffffffffffffffffff16815260200191505060405180910390f35b34801561056657600080fd5b506105a96004803603602081101561057d57600080fd5b81019080803573ffffffffffffffffffffffffffffffffffffffff1690602001909291905050506116fc565b005b3480156105b757600080fd5b506105c0611a58565b6040518082815260200191505060405180910390f35b3480156105e257600080fd5b50610625600480360360208110156105f957600080fd5b81019080803573ffffffffffffffffffffffffffffffffffffffff169060200190929190505050611a65565b60405180848152602001838152602001828152602001935050505060405180910390f35b34801561065557600080fd5b506106826004803603602081101561066c57600080fd5b8101908080359060200190929190505050611b37565b005b34801561069057600080fd5b506106bd600480360360208110156106a757600080fd5b8101908080359060200190929190505050611d6e565b005b3480156106cb57600080fd5b5061071a600480360360408110156106e257600080fd5b81019080803573ffffffffffffffffffffffffffffffffffffffff1690602001909291908035151590602001909291905050506120f3565b005b34801561072857600080fd5b5061076b6004803603602081101561073f57600080fd5b81019080803573ffffffffffffffffffffffffffffffffffffffff169060200190929190505050612487565b604051808681526020018581526020018481526020018381526020018260ff1660ff1681526020019550505050505060405180910390f35b3480156107af57600080fd5b50610889600480360360408110156107c657600080fd5b81019080803573ffffffffffffffffffffffffffffffffffffffff1690602001909291908035906020019064010000000081111561080357600080fd5b82018360208201111561081557600080fd5b8035906020019184600183028401116401000000008311171561083757600080fd5b91908080601f016020809104026020016040519081016040528093929190818152602001838380828437600081840152601f19601f82011690508083019250505050505050919291929050505061262a565b005b34801561089757600080fd5b506108e4600480360360408110156108ae57600080fd5b81019080803573ffffffffffffffffffffffffffffffffffffffff169060200190929190803590602001909291905050506128b1565b005b3480156108f257600080fd5b506109356004803603602081101561090957600080fd5b81019080803573ffffffffffffffffffffffffffffffffffffffff169060200190929190505050612bc4565b6040518082815260200191505060405180910390f35b61098d6004803603602081101561096157600080fd5b81019080803573ffffffffffffffffffffffffffffffffffffffff169060200190929190505050612ca7565b005b34801561099b57600080fd5b506109c8600480360360208110156109b257600080fd5b8101908080359060200190929190505050612e3b565b604051808781526020018681526020018581526020018481526020018360ff1660ff1681526020018273ffffffffffffffffffffffffffffffffffffffff1673ffffffffffffffffffffffffffffffffffffffff168152602001965050505050505060405180910390f35b60018181548110610a4057fe5b90600052602060002090600702016000915090508060010154908060020154908060030154908060040154908060050154908060060160009054906101000a900460ff16908060060160019054906101000a900473ffffffffffffffffffffffffffffffffffffffff16905087565b6000600380549050905090565b6000600580549050905090565b60058181548110610ad657fe5b90600052602060002090600502016000915090508060000160009054906101000a900473ffffffffffffffffffffffffffffffffffffffff1690806001018054600181600116156101000203166002900480601f016020809104026020016040519081016040528092919081815260200182805460018160011615610100020316600290048015610ba85780601f10610b7d57610100808354040283529160200191610ba8565b820191906000526020600020905b815481529060010190602001808311610b8b57829003601f168201915b5050505050908060020154908060030154908060040154905085565b6000600260003373ffffffffffffffffffffffffffffffffffffffff1673ffffffffffffffffffffffffffffffffffffffff168152602001908152602001600020541115610ce15742600180600260003373ffffffffffffffffffffffffffffffffffffffff1673ffffffffffffffffffffffffffffffffffffffff168152602001908152602001600020540381548110610c5b57fe5b90600052602060002090600702016001015410610ce0576040517f08c379a00000000000000000000000000000000000000000000000000000000081526004018080602001828103825260168152602001807f446561646c696e65206e6f74206f766572207965742e0000000000000000000081525060200191505060405180910390fd5b5b6000600460003373ffffffffffffffffffffffffffffffffffffffff1673ffffffffffffffffffffffffffffffffffffffff168152602001908152602001600020541115610de2574260036001600460003373ffffffffffffffffffffffffffffffffffffffff1673ffffffffffffffffffffffffffffffffffffffff168152602001908152602001600020540381548110610d7957fe5b90600052602060002090600602016002015410610de1576040517f08c379a000000000000000000000000000000000000000000000000000000000815260040180806020018281038252602e815260200180613041602e913960400191505060405180910390fd5b5b610dea612eb1565b600081604001818152505060008160600181815250504285018160000181815250508381602001818152505082816080018181525050818160a0019060ff16908160ff1681525050338160c0019073ffffffffffffffffffffffffffffffffffffffff16908173ffffffffffffffffffffffffffffffffffffffff168152505060018190806001815401808255809150509060018203906000526020600020906007020160009091929091909150600082015181600101556020820151816002015560408201518160030155606082015181600401556080820151816005015560a08201518160060160006101000a81548160ff021916908360ff16021790555060c08201518160060160016101000a81548173ffffffffffffffffffffffffffffffffffffffff021916908373ffffffffffffffffffffffffffffffffffffffff160217905550505050600180549050600260003373ffffffffffffffffffffffffffffffffffffffff1673ffffffffffffffffffffffffffffffffffffffff168152602001908152602001600020819055505050505050565b60008111610ffb576040517f08c379a000000000000000000000000000000000000000000000000000000000815260040180806020018281038252601d8152602001807f4f7267616e697a6174696f6e20446f6573204e6f74204578697374732e00000081525060200191505060405180910390fd5b346005828154811061100957fe5b906000526020600020906005020160020160008282540192505081905550346005828154811061103557fe5b90600052602060002090600502016003016000828254019250508190555050565b6000600660003373ffffffffffffffffffffffffffffffffffffffff1673ffffffffffffffffffffffffffffffffffffffff168152602001908152602001600020541161110b576040517f08c379a000000000000000000000000000000000000000000000000000000000815260040180806020018281038252601d8152602001807f4f7267616e697a6174696f6e20446f6573204e6f74204578697374732e00000081525060200191505060405180910390fd5b60006001600660003373ffffffffffffffffffffffffffffffffffffffff1673ffffffffffffffffffffffffffffffffffffffff168152602001908152602001600020540390506005818154811061115f57fe5b906000526020600020906005020160000160009054906101000a900473ffffffffffffffffffffffffffffffffffffffff1673ffffffffffffffffffffffffffffffffffffffff163373ffffffffffffffffffffffffffffffffffffffff1614611231576040517f08c379a00000000000000000000000000000000000000000000000000000000081526004018080602001828103825260168152602001807f4f6e6c792041646d696e20697320616c6c6f776564210000000000000000000081525060200191505060405180910390fd5b816005828154811061123f57fe5b90600052602060002090600502016002015410156112c5576040517f08c379a00000000000000000000000000000000000000000000000000000000081526004018080602001828103825260138152602001807f4e6f7420656e6f7567682062616c616e6365210000000000000000000000000081525060200191505060405180910390fd5b600581815481106112d257fe5b906000526020600020906005020160000160009054906101000a900473ffffffffffffffffffffffffffffffffffffffff1673ffffffffffffffffffffffffffffffffffffffff166108fc839081150290604051600060405180830381858888f19350505050158015611349573d6000803e3d6000fd5b50816005828154811061135857fe5b906000526020600020906005020160020160008282540392505081905550816005828154811061138457fe5b9060005260206000209060050201600401600082825401925050819055505050565b600080600660008473ffffffffffffffffffffffffffffffffffffffff1673ffffffffffffffffffffffffffffffffffffffff168152602001908152602001600020541161145c576040517f08c379a000000000000000000000000000000000000000000000000000000000815260040180806020018281038252601d8152602001807f4f7267616e697a6174696f6e20446f6573204e6f74204578697374732e00000081525060200191505060405180910390fd5b6001600660008473ffffffffffffffffffffffffffffffffffffffff1673ffffffffffffffffffffffffffffffffffffffff16815260200190815260200160002054039050919050565b6000806001600260008573ffffffffffffffffffffffffffffffffffffffff1673ffffffffffffffffffffffffffffffffffffffff168152602001908152602001600020540390506003600182815481106114fd57fe5b9060005260206000209060070201600301541015915050919050565b6003818154811061152657fe5b90600052602060002090600602016002015442106115ac576040517f08c379a000000000000000000000000000000000000000000000000000000000815260040180806020018281038252600d8152602001807f54696d65206973204f766572210000000000000000000000000000000000000081525060200191505060405180910390fd5b6000600382815481106115bb57fe5b906000526020600020906006020160000160003373ffffffffffffffffffffffffffffffffffffffff1673ffffffffffffffffffffffffffffffffffffffff16815260200190815260200160002054141561163f576003818154811061161d57fe5b9060005260206000209060060201600101600081548092919060010191905055505b346003828154811061164d57fe5b906000526020600020906006020160000160003373ffffffffffffffffffffffffffffffffffffffff1673ffffffffffffffffffffffffffffffffffffffff1681526020019081526020016000206000828254019250508190555034600382815481106116b657fe5b90600052602060002090600602016004016000828254019250508190555050565b6000809054906101000a900473ffffffffffffffffffffffffffffffffffffffff1681565b60006001600260008473ffffffffffffffffffffffffffffffffffffffff1673ffffffffffffffffffffffffffffffffffffffff168152602001908152602001600020540390506000600260008473ffffffffffffffffffffffffffffffffffffffff1673ffffffffffffffffffffffffffffffffffffffff1681526020019081526020016000205414156117dc576040517f08c379a000000000000000000000000000000000000000000000000000000000815260040180806020018281038252602281526020018061309b6022913960400191505060405180910390fd5b6117e5826114a6565b611857576040517f08c379a000000000000000000000000000000000000000000000000000000000815260040180806020018281038252601e8152602001807f4e6f7420456c696769626c652e204e6f20656e6f75676820766f7465732e000081525060200191505060405180910390fd5b426001828154811061186557fe5b906000526020600020906007020160010181905550611882612f07565b426001838154811061189057fe5b90600052602060002090600702016002015401816020018181525050600182815481106118b957fe5b906000526020600020906007020160050154816040018181525050600182815481106118e157fe5b906000526020600020906007020160060160009054906101000a900460ff16816080019060ff16908160ff1681525050828160a0019073ffffffffffffffffffffffffffffffffffffffff16908173ffffffffffffffffffffffffffffffffffffffff1681525050600381908060018154018082558091505090600182039060005260206000209060060201600090919290919091506000820151816001015560208201518160020155604082015181600301556060820151816004015560808201518160050160006101000a81548160ff021916908360ff16021790555060a08201518160050160016101000a81548173ffffffffffffffffffffffffffffffffffffffff021916908373ffffffffffffffffffffffffffffffffffffffff160217905550505050600380549050600460008573ffffffffffffffffffffffffffffffffffffffff1673ffffffffffffffffffffffffffffffffffffffff16815260200190815260200160002081905550505050565b6000600180549050905090565b6000806000600660008573ffffffffffffffffffffffffffffffffffffffff1673ffffffffffffffffffffffffffffffffffffffff16815260200190815260200160002054600460008673ffffffffffffffffffffffffffffffffffffffff1673ffffffffffffffffffffffffffffffffffffffff16815260200190815260200160002054600260008773ffffffffffffffffffffffffffffffffffffffff1673ffffffffffffffffffffffffffffffffffffffff168152602001908152602001600020549250925092509193909250565b60038181548110611b4457fe5b906000526020600020906006020160050160019054906101000a900473ffffffffffffffffffffffffffffffffffffffff1673ffffffffffffffffffffffffffffffffffffffff163373ffffffffffffffffffffffffffffffffffffffff1614611c16576040517f08c379a00000000000000000000000000000000000000000000000000000000081526004018080602001828103825260168152602001807f4f6e6c792041646d696e20697320616c6c6f776564210000000000000000000081525060200191505060405180910390fd5b60038181548110611c2357fe5b90600052602060002090600602016003015460038281548110611c4257fe5b9060005260206000209060060201600401541015611cc8576040517f08c379a00000000000000000000000000000000000000000000000000000000081526004018080602001828103825260188152602001807f476f616c20616d6f756e74206e6f74207265616368656421000000000000000081525060200191505060405180910390fd5b60038181548110611cd557fe5b906000526020600020906006020160050160019054906101000a900473ffffffffffffffffffffffffffffffffffffffff1673ffffffffffffffffffffffffffffffffffffffff166108fc60038381548110611d2d57fe5b9060005260206000209060060201600401549081150290604051600060405180830381858888f19350505050158015611d6a573d6000803e3d6000fd5b5050565b60038181548110611d7b57fe5b9060005260206000209060060201600201544211611e01576040517f08c379a00000000000000000000000000000000000000000000000000000000081526004018080602001828103825260158152602001807f446561646c696e65206973206e6f74204f76657221000000000000000000000081525060200191505060405180910390fd5b60038181548110611e0e57fe5b90600052602060002090600602016003015460038281548110611e2d57fe5b90600052602060002090600602016004015410611e95576040517f08c379a00000000000000000000000000000000000000000000000000000000081526004018080602001828103825260228152602001806130e46022913960400191505060405180910390fd5b600060038281548110611ea457fe5b906000526020600020906006020160000160003373ffffffffffffffffffffffffffffffffffffffff1673ffffffffffffffffffffffffffffffffffffffff1681526020019081526020016000205411611f66576040517f08c379a00000000000000000000000000000000000000000000000000000000081526004018080602001828103825260188152602001807f596f7520686176656e277420436f6e747269627574656421000000000000000081525060200191505060405180910390fd5b3373ffffffffffffffffffffffffffffffffffffffff166108fc60038381548110611f8d57fe5b906000526020600020906006020160000160003373ffffffffffffffffffffffffffffffffffffffff1673ffffffffffffffffffffffffffffffffffffffff168152602001908152602001600020549081150290604051600060405180830381858888f19350505050158015612007573d6000803e3d6000fd5b506003818154811061201557fe5b906000526020600020906006020160000160003373ffffffffffffffffffffffffffffffffffffffff1673ffffffffffffffffffffffffffffffffffffffff168152602001908152602001600020546003828154811061207157fe5b90600052602060002090600602016004016000828254039250508190555060006003828154811061209e57fe5b906000526020600020906006020160000160003373ffffffffffffffffffffffffffffffffffffffff1673ffffffffffffffffffffffffffffffffffffffff1681526020019081526020016000208190555050565b3373ffffffffffffffffffffffffffffffffffffffff168273ffffffffffffffffffffffffffffffffffffffff161415612195576040517f08c379a00000000000000000000000000000000000000000000000000000000081526004018080602001828103825260128152602001807f41646d696e2043616e6e6f7420566f746521000000000000000000000000000081525060200191505060405180910390fd5b60006001600260008573ffffffffffffffffffffffffffffffffffffffff1673ffffffffffffffffffffffffffffffffffffffff1681526020019081526020016000205403905042600182815481106121ea57fe5b9060005260206000209060070201600101541161226f576040517f08c379a00000000000000000000000000000000000000000000000000000000081526004018080602001828103825260158152602001807f566f74696e6720646561646c696e65206f76657221000000000000000000000081525060200191505060405180910390fd5b600015156001828154811061228057fe5b906000526020600020906007020160000160003373ffffffffffffffffffffffffffffffffffffffff1673ffffffffffffffffffffffffffffffffffffffff16815260200190815260200160002060009054906101000a900460ff16151514612351576040517f08c379a000000000000000000000000000000000000000000000000000000000815260040180806020018281038252600e8152602001807f416c726561647920566f7465642100000000000000000000000000000000000081525060200191505060405180910390fd5b600180828154811061235f57fe5b906000526020600020906007020160000160003373ffffffffffffffffffffffffffffffffffffffff1673ffffffffffffffffffffffffffffffffffffffff16815260200190815260200160002060006101000a81548160ff02191690831515021790555081156123fd57600181815481106123d757fe5b90600052602060002090600702016003016000815480929190600101919050555061242c565b6001818154811061240a57fe5b9060005260206000209060070201600401600081548092919060010191905055505b612435836114a6565b15612482576124816001828154811061244a57fe5b906000526020600020906007020160060160019054906101000a900473ffffffffffffffffffffffffffffffffffffffff166116fc565b5b505050565b600080600080600080600260008873ffffffffffffffffffffffffffffffffffffffff1673ffffffffffffffffffffffffffffffffffffffff168152602001908152602001600020541415612527576040517f08c379a00000000000000000000000000000000000000000000000000000000081526004018080602001828103825260278152602001806130bd6027913960400191505060405180910390fd5b60006001600260008973ffffffffffffffffffffffffffffffffffffffff1673ffffffffffffffffffffffffffffffffffffffff168152602001908152602001600020540390506001818154811061257b57fe5b9060005260206000209060070201600301546001828154811061259a57fe5b906000526020600020906007020160040154600183815481106125b957fe5b906000526020600020906007020160010154600184815481106125d857fe5b906000526020600020906007020160050154600185815481106125f757fe5b906000526020600020906007020160060160009054906101000a900460ff16955095509550955095505091939590929450565b6000809054906101000a900473ffffffffffffffffffffffffffffffffffffffff1673ffffffffffffffffffffffffffffffffffffffff163373ffffffffffffffffffffffffffffffffffffffff16146126cf576040517f08c379a000000000000000000000000000000000000000000000000000000000815260040180806020018281038252602c815260200180613133602c913960400191505060405180910390fd5b6000600660008473ffffffffffffffffffffffffffffffffffffffff1673ffffffffffffffffffffffffffffffffffffffff1681526020019081526020016000205414612767576040517f08c379a000000000000000000000000000000000000000000000000000000000815260040180806020018281038252602c81526020018061306f602c913960400191505060405180910390fd5b61276f612f56565b82816000019073ffffffffffffffffffffffffffffffffffffffff16908173ffffffffffffffffffffffffffffffffffffffff16815250508181602001819052506005819080600181540180825580915050906001820390600052602060002090600502016000909192909190915060008201518160000160006101000a81548173ffffffffffffffffffffffffffffffffffffffff021916908373ffffffffffffffffffffffffffffffffffffffff1602179055506020820151816001019080519060200190612841929190612f9b565b50604082015181600201556060820151816003015560808201518160040155505050600580549050600660008573ffffffffffffffffffffffffffffffffffffffff1673ffffffffffffffffffffffffffffffffffffffff16815260200190815260200160002081905550505050565b6000600660003373ffffffffffffffffffffffffffffffffffffffff1673ffffffffffffffffffffffffffffffffffffffff1681526020019081526020016000205411612966576040517f08c379a000000000000000000000000000000000000000000000000000000000815260040180806020018281038252601d8152602001807f4f7267616e697a6174696f6e20446f6573204e6f74204578697374732e00000081525060200191505060405180910390fd5b60006001600660003373ffffffffffffffffffffffffffffffffffffffff1673ffffffffffffffffffffffffffffffffffffffff16815260200190815260200160002054039050600581815481106129ba57fe5b906000526020600020906005020160000160009054906101000a900473ffffffffffffffffffffffffffffffffffffffff1673ffffffffffffffffffffffffffffffffffffffff163373ffffffffffffffffffffffffffffffffffffffff1614612a8c576040517f08c379a00000000000000000000000000000000000000000000000000000000081526004018080602001828103825260168152602001807f4f6e6c792041646d696e20697320616c6c6f776564210000000000000000000081525060200191505060405180910390fd5b8160058281548110612a9a57fe5b9060005260206000209060050201600201541015612b20576040517f08c379a00000000000000000000000000000000000000000000000000000000081526004018080602001828103825260138152602001807f4e6f7420656e6f7567682062616c616e6365210000000000000000000000000081525060200191505060405180910390fd5b8273ffffffffffffffffffffffffffffffffffffffff166108fc839081150290604051600060405180830381858888f19350505050158015612b66573d6000803e3d6000fd5b508160058281548110612b7557fe5b9060005260206000209060050201600201600082825403925050819055508160058281548110612ba157fe5b906000526020600020906005020160040160008282540192505081905550505050565b600080600460008473ffffffffffffffffffffffffffffffffffffffff1673ffffffffffffffffffffffffffffffffffffffff1681526020019081526020016000205411612c5d576040517f08c379a000000000000000000000000000000000000000000000000000000000815260040180806020018281038252602d815260200180613106602d913960400191505060405180910390fd5b6001600460008473ffffffffffffffffffffffffffffffffffffffff1673ffffffffffffffffffffffffffffffffffffffff16815260200190815260200160002054039050919050565b6000600660008373ffffffffffffffffffffffffffffffffffffffff1673ffffffffffffffffffffffffffffffffffffffff1681526020019081526020016000205411612d5c576040517f08c379a000000000000000000000000000000000000000000000000000000000815260040180806020018281038252601d8152602001807f4f7267616e697a6174696f6e20446f6573204e6f74204578697374732e00000081525060200191505060405180910390fd5b3460056001600660008573ffffffffffffffffffffffffffffffffffffffff1673ffffffffffffffffffffffffffffffffffffffff168152602001908152602001600020540381548110612dac57fe5b9060005260206000209060050201600201600082825401925050819055503460056001600660008573ffffffffffffffffffffffffffffffffffffffff1673ffffffffffffffffffffffffffffffffffffffff168152602001908152602001600020540381548110612e1a57fe5b90600052602060002090600502016003016000828254019250508190555050565b60038181548110612e4857fe5b90600052602060002090600602016000915090508060010154908060020154908060030154908060040154908060050160009054906101000a900460ff16908060050160019054906101000a900473ffffffffffffffffffffffffffffffffffffffff16905086565b6040518060e001604052806000815260200160008152602001600081526020016000815260200160008152602001600060ff168152602001600073ffffffffffffffffffffffffffffffffffffffff1681525090565b6040518060c0016040528060008152602001600081526020016000815260200160008152602001600060ff168152602001600073ffffffffffffffffffffffffffffffffffffffff1681525090565b6040518060a00160405280600073ffffffffffffffffffffffffffffffffffffffff168152602001606081526020016000815260200160008152602001600081525090565b828054600181600116156101000203166002900490600052602060002090601f016020900481019282601f10612fdc57805160ff191683800117855561300a565b8280016001018555821561300a579182015b82811115613009578251825591602001919060010190612fee565b5b509050613017919061301b565b5090565b61303d91905b80821115613039576000816000905550600101613021565b5090565b9056fe43726f776466756e64696e672045786973747320616e6420646561646c696e65206e6f74206f766572207965742e4f7267616e697a6174696f6e20416c726561647920457869737473206f6e2074686973204163636f756e742e4e6f742056616c69642e204669727374204170706c7920666f7220766f74696e672e566f74696e6720646f6573206e6f7420657869737473206f6e207468697320616464726573732e476f616c20697320726561636865642e596f752063616e6e6f7420726566756e642143726f776446756e64696e6720646f6573206e6f7420657869737473206f6e20746869732061646472657373214f6e6c7920436f6e74726163742041646d696e2063616e20437265617465204f7267616e697a6174696f6e21a265627a7a72315820508afee957f7c644a183d3242a86e80f4e37072df03184d8e22ae3a473ea80b464736f6c63430005100032",
  "source": "// SPDX-License-Identifier: MIT\r\npragma solidity >=0.4.22 <0.9.0;\r\n\r\n// pragma solidity >=0.4.22 <0.6.0;\r\n\r\ncontract mainTest{   \r\n    \r\n    address payable public contractAdmin;\r\n    constructor() public {\r\n        contractAdmin = msg.sender;\r\n    }\r\n    \r\n    // function getContractAdmin() public view returns(address){\r\n    //     return contractAdmin;\r\n    // }\r\n    \r\n    function getAddrStatus(address addr) view public \r\n    returns(\r\n    uint orgId,\r\n    uint cfId,\r\n    uint votingId\r\n    ){\r\n        return(\r\n            orgIdxDb[addr],\r\n            cfIdxDb[addr],\r\n            votingIdxDb[addr]\r\n        );\r\n    }\r\n\r\n\r\n// ######################### Voting #########################\r\n    \r\n    struct voting{\r\n        mapping(address=>bool) votersIdx;\r\n        // bool[] alreadyVoted;\r\n        uint votingDeadline;\r\n        uint cfDeadline;\r\n        uint positiveVotes;\r\n        uint negativeVotes;\r\n        // bool valid;\r\n        uint amount;\r\n        uint8 catagory;\r\n        address admin;\r\n    }\r\n    \r\n    // voting[] public votingDb;\r\n    // mapping(address=>voting) votingDb;\r\n    \r\n    // uind id = votingIdxDb[Address] - 1;\r\n    // votingDb[id];\r\n    \r\n    voting[] public votingDb;\r\n    mapping (address => uint) votingIdxDb;\r\n    \r\n    \r\n     function getVotingDbCount() view public returns(uint){\r\n        return votingDb.length;\r\n    }\r\n    \r\n    \r\n    function createVoting(uint deadline,uint cfDeadline,uint _amount, uint8 _catagory) public {\r\n        if(votingIdxDb[msg.sender] > 0){\r\n            require(votingDb[votingIdxDb[msg.sender] - 1].votingDeadline < now,\"Deadline not over yet.\");\r\n        }\r\n        // require(votingIdxDb[msg.sender] == 0,\"Voting Already Exists.\");\r\n        if(cfIdxDb[msg.sender]>0){\r\n            require(cfDb[cfIdxDb[msg.sender] - 1].deadline<now,\"Crowdfunding Exists and deadline not over yet.\");\r\n        }\r\n        voting memory v;\r\n        v.positiveVotes = 0;\r\n        v.negativeVotes = 0;\r\n        v.votingDeadline = deadline + now;\r\n        v.cfDeadline = cfDeadline;\r\n        // v.valid = true;\r\n        v.amount = _amount;\r\n        v.catagory = _catagory;\r\n        v.admin = msg.sender;\r\n        votingDb.push(v);\r\n        votingIdxDb[msg.sender] = votingDb.length;\r\n    }\r\n    \r\n    function vote(address votingId,bool doYouAgree) public {\r\n        require(votingId != msg.sender,\"Admin Cannot Vote!\");\r\n        // require (orgIdxDb[msg.sender] > 0,\"Only Organizations can Vote!\");\r\n        uint id = votingIdxDb[votingId] - 1;\r\n        require(votingDb[id].votingDeadline>now,\"Voting deadline over!\");\r\n        require(votingDb[id].votersIdx[msg.sender] == false,\"Already Voted!\");\r\n        votingDb[id].votersIdx[msg.sender] = true;\r\n        \r\n        // uint idx = votingDb[id].votersIdx[msg.sender];\r\n        // if(idx+1 > votingDb[id].alreadyVoted.length){\r\n        //     votingDb[id].alreadyVoted.push(true);\r\n        //     votingDb[id].votersIdx[msg.sender] = votingDb[id].alreadyVoted.length - 1;\r\n        // }else{\r\n        //     require(votingDb[id].alreadyVoted[idx] == false,\"Already Voted!\");\r\n        // }\r\n        \r\n        if(doYouAgree){\r\n            votingDb[id].positiveVotes++;\r\n        }else{\r\n            votingDb[id].negativeVotes++;\r\n        }\r\n        \r\n        if(isEligible(votingId)){\r\n            createCrowdFund(votingDb[id].admin);\r\n        }\r\n        \r\n    }\r\n\r\n    function getVotingStatus(address votingId) view public returns(\r\n            uint positiveVotes,\r\n            uint negativeVotes,\r\n            uint deadline,\r\n            uint amount,\r\n            uint8 catagory\r\n        ) {\r\n        require(votingIdxDb[votingId] != 0,\"Voting does not exists on this address.\");\r\n        uint id = votingIdxDb[votingId] - 1;\r\n        return (\r\n            votingDb[id].positiveVotes,\r\n            votingDb[id].negativeVotes,\r\n            votingDb[id].votingDeadline,\r\n            votingDb[id].amount,\r\n            votingDb[id].catagory\r\n        );\r\n    }\r\n    \r\n    \r\n    function isEligible(address votingId) view public returns(bool) {\r\n        //Some logic\r\n        uint id = votingIdxDb[votingId] - 1;\r\n        // return (votingDb[id].positiveVotes > votingDb[id].negativeVotes);\r\n        return (votingDb[id].positiveVotes >= 3);\r\n    }\r\n    \r\n    \r\n        \r\n    \r\n    \r\n    // function vote(address votingId,bool doYouAgree) public{\r\n    //     uint vIdx = votingDb[votingId].votersIdx[msg.sender];\r\n        \r\n    //     require(votingDb[votingId].votersChoice[vIdx] == false,\"Already Voted!\");\r\n    //     uint idx = votingDb[msg.sender].index;\r\n    //     if(doYouAgree){\r\n    //         votingDb[votingId].positiveVotes++;\r\n    //     }else{\r\n    //         votingDb[votingId].negativeVotes++;\r\n    //     }\r\n    //     votingDb[votingId].voters[msg.sender] = true;\r\n    // }\r\n\r\n// X-X-X-X-X-X-X-X-X-X-X-X-X Voting X-X-X-X-X-X-X-X-X-X-X-X-X\r\n    \r\n    \r\n// ######################### Crowd Funding #########################\r\n    struct crowdFund{\r\n        mapping(address=>uint) contributions;\r\n        uint totalContributors;    \r\n        uint deadline;             \r\n        uint goal;                 \r\n        uint raisedAmount ;    \r\n        uint8 catagory;\r\n        address payable admin;\r\n    }\r\n    \r\n    crowdFund[] public cfDb;\r\n    mapping (address => uint) cfIdxDb;\r\n    \r\n    \r\n    function getCfDbCount() view public returns(uint){\r\n        return cfDb.length;\r\n    }\r\n    \r\n    // function getCfIdFromAddress(address cfAddress) view public returns(uint){\r\n    //     for(uint i=0;i<cfDb.length;i++){\r\n    //         if(cfDb[i].admin == cfAddress){\r\n    //             return i;\r\n    //         }\r\n    //     }\r\n    // }\r\n\r\n    function getCfIdFromAddress(address cfAddress) view public returns(uint){\r\n        require(cfIdxDb[cfAddress] > 0,\"CrowdFunding does not exists on this address!\");\r\n        return (cfIdxDb[cfAddress] - 1);\r\n    }\r\n    \r\n        function createCrowdFund(address addr) public{//uint _deadlineSecs\r\n        uint id = votingIdxDb[addr] - 1;\r\n        require(votingIdxDb[addr] != 0,\"Not Valid. First Apply for voting.\");\r\n        // require(votingDb[id].valid,\"Not Valid. First Apply for voting.!\");\r\n        require(isEligible(addr),\"Not Eligible. No enough votes.\");\r\n        // require(votingDb[id].votingDeadline < now,\"Voting deadline not over yet!\");\r\n        votingDb[id].votingDeadline = now;\r\n        crowdFund memory cf;\r\n        // cf.deadline= now + _deadlineSecs;\r\n        cf.deadline = votingDb[id].cfDeadline + now;\r\n        cf.goal= votingDb[id].amount;\r\n        cf.catagory = votingDb[id].catagory;\r\n        cf.admin = address(uint160(addr));\r\n        cfDb.push(cf);\r\n        // votingDb[id].valid = false;\r\n        // votingIdxDb[addr] = 0;\r\n        cfIdxDb[addr] = cfDb.length;\r\n    }\r\n    \r\n    // function createCrowdFund() public{//uint _deadlineSecs\r\n    //     uint id = votingIdxDb[msg.sender] - 1;\r\n    //     require(votingIdxDb[msg.sender] != 0,\"Not Valid. First Apply for voting.\");\r\n    //     // require(votingDb[id].valid,\"Not Valid. First Apply for voting.!\");\r\n    //     require(isEligible(msg.sender),\"Not Eligible. No enough votes.\");\r\n    //     require(votingDb[id].votingDeadline < now,\"Voting deadline not over yet!\");\r\n    //     crowdFund memory cf;\r\n    //     // cf.deadline= now + _deadlineSecs;\r\n    //     cf.deadline = votingDb[id].cfDeadline + now;\r\n    //     cf.goal= votingDb[id].amount;\r\n    //     cf.catagory = votingDb[id].catagory;\r\n    //     cf.admin = msg.sender;\r\n    //     cfDb.push(cf);\r\n    //     // votingDb[id].valid = false;\r\n    //     votingIdxDb[msg.sender] = 0;\r\n    //     cfIdxDb[msg.sender] = cfDb.length;\r\n    // }\r\n    \r\n    function cf_contribute(uint cfId) public payable {\r\n        require(now < cfDb[cfId].deadline,\"Time is Over!\");\r\n        if(cfDb[cfId].contributions[msg.sender] == 0)\r\n        {\r\n            cfDb[cfId].totalContributors++;\r\n        }\r\n        cfDb[cfId].contributions[msg.sender] += msg.value;\r\n        cfDb[cfId].raisedAmount+=msg.value;\r\n    }\r\n    \r\n    //Get Refund if goal is not reached within the set deadline.\r\n    function cf_getRefund(uint cfId) public {\r\n        require(now > cfDb[cfId].deadline,\"Deadline is not Over!\");\r\n        require(cfDb[cfId].raisedAmount < cfDb[cfId].goal,\"Goal is reached.You cannot refund!\");\r\n        require(cfDb[cfId].contributions[msg.sender] > 0,\"You haven't Contributed!\");\r\n        msg.sender.transfer(cfDb[cfId].contributions[msg.sender]);\r\n        cfDb[cfId].raisedAmount -= cfDb[cfId].contributions[msg.sender];\r\n        cfDb[cfId].contributions[msg.sender] = 0;\r\n    }\r\n    \r\n    function cf_withdrawFunding(uint cfId) public {\r\n        require(msg.sender == cfDb[cfId].admin,\"Only Admin is allowed!\");\r\n        require(cfDb[cfId].raisedAmount >= cfDb[cfId].goal,\"Goal amount not reached!\");\r\n        cfDb[cfId].admin.transfer(cfDb[cfId].raisedAmount);\r\n    }\r\n    \r\n    // function cf_getRemainingTime(uint cfId) view public returns(uint) {\r\n    //    return cfDb[cfId].deadline - now;\r\n    // }\r\n// X-X-X-X-X-X-X-X-X-X-X-X-X Crowd Funding X-X-X-X-X-X-X-X-X-X-X-X-X\r\n\r\n// ######################### Organization #########################\r\n\r\n    struct organization{\r\n        address payable admin;\r\n        string name;\r\n        // bool acceptingZakat;\r\n        uint balanceAmount;\r\n        uint donateTotal;\r\n        uint withdrawTotal;\r\n    }\r\n    \r\n    organization[] public orgDb;\r\n    mapping (address => uint) orgIdxDb;\r\n    \r\n    \r\n    function getOrgDbCount() view public returns(uint){\r\n        return orgDb.length;\r\n    }\r\n\r\n    function getOrgIdFromAddress(address orgAddress) view public returns(uint){\r\n        require (orgIdxDb[orgAddress] > 0,\"Organization Does Not Exists.\");\r\n        return (orgIdxDb[orgAddress] - 1);\r\n    }\r\n    \r\n    event Deposit(address indexed _from, uint _value);\r\n    \r\n    function createOrganization(address payable addr,string memory orgName) public {\r\n        require(msg.sender == contractAdmin,\"Only Contract Admin can Create Organization!\");\r\n        require (orgIdxDb[addr] == 0,\"Organization Already Exists on this Account.\");\r\n        organization memory org;\r\n        org.admin = addr;\r\n        org.name = orgName;\r\n        // org.acceptingZakat = _acceptingZakat;\r\n        orgDb.push(org);\r\n        orgIdxDb[addr] = orgDb.length;\r\n    }\r\n\r\n    function org_id_donate(uint orgId) public payable {\r\n        require (orgId > 0,\"Organization Does Not Exists.\");\r\n        orgDb[orgId].balanceAmount += msg.value;\r\n        orgDb[orgId].donateTotal += msg.value;\r\n        // emit Deposit(msg.sender, msg.value);\r\n    }\r\n\r\n    function org_adr_donate(address orgAdr) public payable {\r\n        require (orgIdxDb[orgAdr] > 0,\"Organization Does Not Exists.\");\r\n        orgDb[orgIdxDb[orgAdr]-1].balanceAmount += msg.value;\r\n        orgDb[orgIdxDb[orgAdr]-1].donateTotal += msg.value;\r\n        // emit Deposit(msg.sender, msg.value);\r\n    }\r\n    \r\n    function org_withdraw(uint amount) public {\r\n        require (orgIdxDb[msg.sender] > 0,\"Organization Does Not Exists.\");\r\n        uint id = orgIdxDb[msg.sender]-1;\r\n        require(msg.sender == orgDb[id].admin,\"Only Admin is allowed!\");\r\n        require(orgDb[id].balanceAmount >= amount,\"Not enough balance!\");\r\n        orgDb[id].admin.transfer(amount);\r\n        orgDb[id].balanceAmount-= amount;\r\n        orgDb[id].withdrawTotal += amount;\r\n    }\r\n    \r\n    function org_send(address payable addr,uint amount) public{\r\n        require (orgIdxDb[msg.sender] > 0,\"Organization Does Not Exists.\");\r\n        uint id = orgIdxDb[msg.sender]-1;\r\n        require(msg.sender == orgDb[id].admin,\"Only Admin is allowed!\");\r\n        require(orgDb[id].balanceAmount >= amount,\"Not enough balance!\");\r\n        addr.transfer(amount);\r\n        orgDb[id].balanceAmount-= amount;\r\n        orgDb[id].withdrawTotal += amount;\r\n    }\r\n    \r\n    // function org_donate(uint orgId) public payable {\r\n    //     orgDb[orgId].balanceAmount += msg.value;\r\n    //     emit Deposit(msg.sender, msg.value);\r\n    // }\r\n    \r\n    // function org_withdraw(uint amount,uint orgId) public {\r\n    //     require(msg.sender == orgDb[orgId].admin,\"Only Admin is allowed!\");\r\n    //     orgDb[orgId].admin.transfer(amount);\r\n    // }\r\n// X-X-X-X-X-X-X-X-X-X-X-X-X Ororganization X-X-X-X-X-X-X-X-X-X-X-X-X\r\n    \r\n    \r\n    \r\n\r\n\r\n\r\n\r\n\r\n\r\n\r\n\r\n\r\n// ######################### Main #########################\r\n\r\n// X-X-X-X-X-X-X-X-X-X-X-X-X Main X-X-X-X-X-X-X-X-X-X-X-X-X\r\n\r\n}\r\n\r\n// contract main{\r\n//     address[] public contracts;\r\n//     function createCrowdFund (uint _deadlineSecs,uint _goal) \r\n//     public \r\n//     returns(address newContract){\r\n//         crowdFund cf = new crowdFund(_deadlineSecs,_goal);\r\n//         contracts.push(address(cf));\r\n//         return address(cf);\r\n//     }\r\n    \r\n//     function getNow(uint id) view public returns(uint) {\r\n//         uint n = crowdFund(contracts[id]).getNow();\r\n//         return n;\r\n//     }\r\n// }\r\n\r\n\r\n\r\n\r\n    // bool[] public tst;\r\n    \r\n    // function pushTst(bool val) public{\r\n    //     tst.push(val);\r\n    // }\r\n    \r\n    // function lenTst() view public returns(uint){\r\n    //     return tst.length;\r\n    // }\r\n    \r\n    // function delTst() public{\r\n    //     delete tst;\r\n    // }",
  "sourcePath": "C:\\Users\\sunrise\\Documents\\proj\\contracts\\mainTest.sol",
  "compiler": {
    "name": "solc",
    "version": "0.5.16+commit.9c3226ce.Emscripten.clang"
  },
  "schemaVersion": "3.4.2",
  "updatedAt": "2021-09-12T18:53:32.921Z",
  "networkType": "ethereum",
  "devdoc": {
    "methods": {}
  },
  "userdoc": {
    "methods": {}
  }
}