{
  "contractName": "mainTest",
  "abi": [
    {
      "anonymous": false,
      "inputs": [
        {
          "indexed": true,
          "internalType": "address",
          "name": "_from",
          "type": "address"
        },
        {
          "indexed": false,
          "internalType": "uint256",
          "name": "_value",
          "type": "uint256"
        }
      ],
      "name": "Deposit",
      "type": "event"
    },
    {
      "constant": true,
      "inputs": [
        {
          "internalType": "uint256",
          "name": "",
          "type": "uint256"
        }
      ],
      "name": "cfDb",
      "outputs": [
        {
          "internalType": "uint256",
          "name": "totalContributors",
          "type": "uint256"
        },
        {
          "internalType": "uint256",
          "name": "deadline",
          "type": "uint256"
        },
        {
          "internalType": "uint256",
          "name": "goal",
          "type": "uint256"
        },
        {
          "internalType": "uint256",
          "name": "raisedAmount",
          "type": "uint256"
        },
        {
          "internalType": "address payable",
          "name": "admin",
          "type": "address"
        }
      ],
      "payable": false,
      "stateMutability": "view",
      "type": "function"
    },
    {
      "constant": true,
      "inputs": [
        {
          "internalType": "uint256",
          "name": "",
          "type": "uint256"
        }
      ],
      "name": "orgDb",
      "outputs": [
        {
          "internalType": "address payable",
          "name": "admin",
          "type": "address"
        },
        {
          "internalType": "bool",
          "name": "acceptingZakat",
          "type": "bool"
        },
        {
          "internalType": "uint256",
          "name": "balanceAmount",
          "type": "uint256"
        }
      ],
      "payable": false,
      "stateMutability": "view",
      "type": "function"
    },
    {
      "constant": false,
      "inputs": [
        {
          "internalType": "uint256",
          "name": "deadline",
          "type": "uint256"
        }
      ],
      "name": "createVoting",
      "outputs": [],
      "payable": false,
      "stateMutability": "nonpayable",
      "type": "function"
    },
    {
      "constant": false,
      "inputs": [
        {
          "internalType": "address",
          "name": "votingId",
          "type": "address"
        },
        {
          "internalType": "bool",
          "name": "doYouAgree",
          "type": "bool"
        }
      ],
      "name": "vote",
      "outputs": [],
      "payable": false,
      "stateMutability": "nonpayable",
      "type": "function"
    },
    {
      "constant": true,
      "inputs": [
        {
          "internalType": "address",
          "name": "votingId",
          "type": "address"
        }
      ],
      "name": "getVotingStatus",
      "outputs": [
        {
          "internalType": "uint256",
          "name": "positiveVotes",
          "type": "uint256"
        },
        {
          "internalType": "uint256",
          "name": "negativeVotes",
          "type": "uint256"
        },
        {
          "internalType": "uint256",
          "name": "deadline",
          "type": "uint256"
        }
      ],
      "payable": false,
      "stateMutability": "view",
      "type": "function"
    },
    {
      "constant": true,
      "inputs": [
        {
          "internalType": "address",
          "name": "votingId",
          "type": "address"
        }
      ],
      "name": "isEligible",
      "outputs": [
        {
          "internalType": "bool",
          "name": "",
          "type": "bool"
        }
      ],
      "payable": false,
      "stateMutability": "view",
      "type": "function"
    },
    {
      "constant": true,
      "inputs": [],
      "name": "getCfDbCount",
      "outputs": [
        {
          "internalType": "uint256",
          "name": "",
          "type": "uint256"
        }
      ],
      "payable": false,
      "stateMutability": "view",
      "type": "function"
    },
    {
      "constant": true,
      "inputs": [
        {
          "internalType": "address",
          "name": "cfAddress",
          "type": "address"
        }
      ],
      "name": "getCfIdFromAddress",
      "outputs": [
        {
          "internalType": "uint256",
          "name": "",
          "type": "uint256"
        }
      ],
      "payable": false,
      "stateMutability": "view",
      "type": "function"
    },
    {
      "constant": false,
      "inputs": [
        {
          "internalType": "uint256",
          "name": "_deadlineSecs",
          "type": "uint256"
        },
        {
          "internalType": "uint256",
          "name": "_goal",
          "type": "uint256"
        }
      ],
      "name": "createCrowdFund",
      "outputs": [],
      "payable": false,
      "stateMutability": "nonpayable",
      "type": "function"
    },
    {
      "constant": false,
      "inputs": [
        {
          "internalType": "uint256",
          "name": "cfId",
          "type": "uint256"
        }
      ],
      "name": "cf_contribute",
      "outputs": [],
      "payable": true,
      "stateMutability": "payable",
      "type": "function"
    },
    {
      "constant": false,
      "inputs": [
        {
          "internalType": "uint256",
          "name": "cfId",
          "type": "uint256"
        }
      ],
      "name": "cf_getRefund",
      "outputs": [],
      "payable": false,
      "stateMutability": "nonpayable",
      "type": "function"
    },
    {
      "constant": false,
      "inputs": [
        {
          "internalType": "uint256",
          "name": "cfId",
          "type": "uint256"
        }
      ],
      "name": "cf_withdrawFunding",
      "outputs": [],
      "payable": false,
      "stateMutability": "nonpayable",
      "type": "function"
    },
    {
      "constant": true,
      "inputs": [],
      "name": "getOrgDbCount",
      "outputs": [
        {
          "internalType": "uint256",
          "name": "",
          "type": "uint256"
        }
      ],
      "payable": false,
      "stateMutability": "view",
      "type": "function"
    },
    {
      "constant": false,
      "inputs": [
        {
          "internalType": "bool",
          "name": "_acceptingZakat",
          "type": "bool"
        }
      ],
      "name": "createOrganization",
      "outputs": [],
      "payable": false,
      "stateMutability": "nonpayable",
      "type": "function"
    },
    {
      "constant": false,
      "inputs": [
        {
          "internalType": "uint256",
          "name": "orgId",
          "type": "uint256"
        }
      ],
      "name": "org_id_donate",
      "outputs": [],
      "payable": true,
      "stateMutability": "payable",
      "type": "function"
    },
    {
      "constant": false,
      "inputs": [
        {
          "internalType": "address",
          "name": "orgAdr",
          "type": "address"
        }
      ],
      "name": "org_adr_donate",
      "outputs": [],
      "payable": true,
      "stateMutability": "payable",
      "type": "function"
    },
    {
      "constant": false,
      "inputs": [
        {
          "internalType": "uint256",
          "name": "amount",
          "type": "uint256"
        }
      ],
      "name": "org_withdraw",
      "outputs": [],
      "payable": false,
      "stateMutability": "nonpayable",
      "type": "function"
    }
  ],
  "bytecode": "0x608060405234801561001057600080fd5b50612133806100206000396000f3fe6080604052600436106100fe5760003560e01c806367e57a4511610095578063bd041c4d11610064578063bd041c4d14610419578063d867909a14610476578063e6b39ac1146104e9578063f63b649d1461054e578063f71b3a3414610592576100fe565b806367e57a4514610330578063730c6d5614610375578063a9f670e1146103a3578063ae8c7851146103de576100fe565b80633e9dfa30116100d15780633e9dfa30146101d15780634bcfb07e1461025e5780634c25c31b1461028c57806366e305fd146102c7576100fe565b806302a5fb0f146101035780630f6278ed146101405780631f361ee51461016b5780633655c87d14610196575b600080fd5b34801561010f57600080fd5b5061013e6004803603602081101561012657600080fd5b81019080803515159060200190929190505050610629565b005b34801561014c57600080fd5b5061015561081d565b6040518082815260200191505060405180910390f35b34801561017757600080fd5b5061018061082a565b6040518082815260200191505060405180910390f35b3480156101a257600080fd5b506101cf600480360360208110156101b957600080fd5b8101908080359060200190929190505050610837565b005b3480156101dd57600080fd5b5061020a600480360360208110156101f457600080fd5b8101908080359060200190929190505050610a6d565b604051808473ffffffffffffffffffffffffffffffffffffffff1673ffffffffffffffffffffffffffffffffffffffff16815260200183151515158152602001828152602001935050505060405180910390f35b61028a6004803603602081101561027457600080fd5b8101908080359060200190929190505050610ad1565b005b34801561029857600080fd5b506102c5600480360360208110156102af57600080fd5b8101908080359060200190929190505050610b00565b005b3480156102d357600080fd5b50610316600480360360208110156102ea57600080fd5b81019080803573ffffffffffffffffffffffffffffffffffffffff169060200190929190505050610d64565b604051808215151515815260200191505060405180910390f35b34801561033c57600080fd5b506103736004803603604081101561035357600080fd5b810190808035906020019092919080359060200190929190505050610df2565b005b6103a16004803603602081101561038b57600080fd5b8101908080359060200190929190505050611165565b005b3480156103af57600080fd5b506103dc600480360360208110156103c657600080fd5b8101908080359060200190929190505050611323565b005b3480156103ea57600080fd5b506104176004803603602081101561040157600080fd5b810190808035906020019092919050505061155a565b005b34801561042557600080fd5b506104746004803603604081101561043c57600080fd5b81019080803573ffffffffffffffffffffffffffffffffffffffff1690602001909291908035151590602001909291905050506118df565b005b34801561048257600080fd5b506104c56004803603602081101561049957600080fd5b81019080803573ffffffffffffffffffffffffffffffffffffffff169060200190929190505050611d42565b60405180848152602001838152602001828152602001935050505060405180910390f35b3480156104f557600080fd5b506105386004803603602081101561050c57600080fd5b81019080803573ffffffffffffffffffffffffffffffffffffffff169060200190929190505050611e1a565b6040518082815260200191505060405180910390f35b6105906004803603602081101561056457600080fd5b81019080803573ffffffffffffffffffffffffffffffffffffffff169060200190929190505050611e66565b005b34801561059e57600080fd5b506105cb600480360360208110156105b557600080fd5b8101908080359060200190929190505050611f8c565b604051808681526020018581526020018481526020018381526020018273ffffffffffffffffffffffffffffffffffffffff1673ffffffffffffffffffffffffffffffffffffffff1681526020019550505050505060405180910390f35b6000600460003373ffffffffffffffffffffffffffffffffffffffff1673ffffffffffffffffffffffffffffffffffffffff16815260200190815260200160002054146106de576040517f08c379a000000000000000000000000000000000000000000000000000000000815260040180806020018281038252601c8152602001807f4f7267616e697a6174696f6e20416c7265616479204578697374732e0000000081525060200191505060405180910390fd5b6106e6611fef565b33816000019073ffffffffffffffffffffffffffffffffffffffff16908173ffffffffffffffffffffffffffffffffffffffff1681525050818160200190151590811515815250506003819080600181540180825580915050906001820390600052602060002090600202016000909192909190915060008201518160000160006101000a81548173ffffffffffffffffffffffffffffffffffffffff021916908373ffffffffffffffffffffffffffffffffffffffff16021790555060208201518160000160146101000a81548160ff02191690831515021790555060408201518160010155505050600380549050600460003373ffffffffffffffffffffffffffffffffffffffff1673ffffffffffffffffffffffffffffffffffffffff168152602001908152602001600020819055505050565b6000600180549050905090565b6000600380549050905090565b6000803373ffffffffffffffffffffffffffffffffffffffff1673ffffffffffffffffffffffffffffffffffffffff1681526020019081526020016000206002015442116108ed576040517f08c379a00000000000000000000000000000000000000000000000000000000081526004018080602001828103825260168152602001807f566f74696e6720416c7265616479204578697374732e0000000000000000000081525060200191505060405180910390fd5b6000803373ffffffffffffffffffffffffffffffffffffffff1673ffffffffffffffffffffffffffffffffffffffff168152602001908152602001600020600101600061093a9190612028565b60008060003373ffffffffffffffffffffffffffffffffffffffff1673ffffffffffffffffffffffffffffffffffffffff1681526020019081526020016000206003018190555060008060003373ffffffffffffffffffffffffffffffffffffffff1673ffffffffffffffffffffffffffffffffffffffff168152602001908152602001600020600401819055504281016000803373ffffffffffffffffffffffffffffffffffffffff1673ffffffffffffffffffffffffffffffffffffffff1681526020019081526020016000206002018190555060016000803373ffffffffffffffffffffffffffffffffffffffff1673ffffffffffffffffffffffffffffffffffffffff16815260200190815260200160002060050160006101000a81548160ff02191690831515021790555050565b60038181548110610a7a57fe5b90600052602060002090600202016000915090508060000160009054906101000a900473ffffffffffffffffffffffffffffffffffffffff16908060000160149054906101000a900460ff16908060010154905083565b3460038281548110610adf57fe5b90600052602060002090600202016001016000828254019250508190555050565b6000600460003373ffffffffffffffffffffffffffffffffffffffff1673ffffffffffffffffffffffffffffffffffffffff1681526020019081526020016000205411610bb5576040517f08c379a000000000000000000000000000000000000000000000000000000000815260040180806020018281038252601d8152602001807f4f7267616e697a6174696f6e20446f6573204e6f74204578697374732e00000081525060200191505060405180910390fd5b60006001600460003373ffffffffffffffffffffffffffffffffffffffff1673ffffffffffffffffffffffffffffffffffffffff1681526020019081526020016000205403905060038181548110610c0957fe5b906000526020600020906002020160000160009054906101000a900473ffffffffffffffffffffffffffffffffffffffff1673ffffffffffffffffffffffffffffffffffffffff163373ffffffffffffffffffffffffffffffffffffffff1614610cdb576040517f08c379a00000000000000000000000000000000000000000000000000000000081526004018080602001828103825260168152602001807f4f6e6c792041646d696e20697320616c6c6f776564210000000000000000000081525060200191505060405180910390fd5b60038181548110610ce857fe5b906000526020600020906002020160000160009054906101000a900473ffffffffffffffffffffffffffffffffffffffff1673ffffffffffffffffffffffffffffffffffffffff166108fc839081150290604051600060405180830381858888f19350505050158015610d5f573d6000803e3d6000fd5b505050565b60008060008373ffffffffffffffffffffffffffffffffffffffff1673ffffffffffffffffffffffffffffffffffffffff168152602001908152602001600020600401546000808473ffffffffffffffffffffffffffffffffffffffff1673ffffffffffffffffffffffffffffffffffffffff16815260200190815260200160002060030154119050919050565b6000803373ffffffffffffffffffffffffffffffffffffffff1673ffffffffffffffffffffffffffffffffffffffff16815260200190815260200160002060050160009054906101000a900460ff16610e96576040517f08c379a00000000000000000000000000000000000000000000000000000000081526004018080602001828103825260228152602001806120bb6022913960400191505060405180910390fd5b610e9f33610d64565b610f11576040517f08c379a000000000000000000000000000000000000000000000000000000000815260040180806020018281038252601e8152602001807f4e6f7420456c696769626c652e204e6f20656e6f75676820766f7465732e000081525060200191505060405180910390fd5b426000803373ffffffffffffffffffffffffffffffffffffffff1673ffffffffffffffffffffffffffffffffffffffff1681526020019081526020016000206002015410610fc7576040517f08c379a000000000000000000000000000000000000000000000000000000000815260040180806020018281038252601d8152602001807f566f74696e6720646561646c696e65206e6f74206f766572207965742100000081525060200191505060405180910390fd5b610fcf612050565b8242018160200181815250508181604001818152505033816080019073ffffffffffffffffffffffffffffffffffffffff16908173ffffffffffffffffffffffffffffffffffffffff1681525050600181908060018154018082558091505090600182039060005260206000209060060201600090919290919091506000820151816001015560208201518160020155604082015181600301556060820151816004015560808201518160050160006101000a81548173ffffffffffffffffffffffffffffffffffffffff021916908373ffffffffffffffffffffffffffffffffffffffff16021790555050505060008060003373ffffffffffffffffffffffffffffffffffffffff1673ffffffffffffffffffffffffffffffffffffffff16815260200190815260200160002060050160006101000a81548160ff021916908315150217905550600180549050600260003373ffffffffffffffffffffffffffffffffffffffff1673ffffffffffffffffffffffffffffffffffffffff16815260200190815260200160002081905550505050565b6001818154811061117257fe5b90600052602060002090600602016002015442106111f8576040517f08c379a000000000000000000000000000000000000000000000000000000000815260040180806020018281038252600d8152602001807f54696d65206973204f766572210000000000000000000000000000000000000081525060200191505060405180910390fd5b60006001828154811061120757fe5b906000526020600020906006020160000160003373ffffffffffffffffffffffffffffffffffffffff1673ffffffffffffffffffffffffffffffffffffffff16815260200190815260200160002054141561128b576001818154811061126957fe5b9060005260206000209060060201600101600081548092919060010191905055505b346001828154811061129957fe5b906000526020600020906006020160000160003373ffffffffffffffffffffffffffffffffffffffff1673ffffffffffffffffffffffffffffffffffffffff16815260200190815260200160002060008282540192505081905550346001828154811061130257fe5b90600052602060002090600602016004016000828254019250508190555050565b6001818154811061133057fe5b906000526020600020906006020160050160009054906101000a900473ffffffffffffffffffffffffffffffffffffffff1673ffffffffffffffffffffffffffffffffffffffff163373ffffffffffffffffffffffffffffffffffffffff1614611402576040517f08c379a00000000000000000000000000000000000000000000000000000000081526004018080602001828103825260168152602001807f4f6e6c792041646d696e20697320616c6c6f776564210000000000000000000081525060200191505060405180910390fd5b6001818154811061140f57fe5b9060005260206000209060060201600301546001828154811061142e57fe5b90600052602060002090600602016004015410156114b4576040517f08c379a00000000000000000000000000000000000000000000000000000000081526004018080602001828103825260188152602001807f476f616c20616d6f756e74206e6f74207265616368656421000000000000000081525060200191505060405180910390fd5b600181815481106114c157fe5b906000526020600020906006020160050160009054906101000a900473ffffffffffffffffffffffffffffffffffffffff1673ffffffffffffffffffffffffffffffffffffffff166108fc6001838154811061151957fe5b9060005260206000209060060201600401549081150290604051600060405180830381858888f19350505050158015611556573d6000803e3d6000fd5b5050565b6001818154811061156757fe5b90600052602060002090600602016002015442116115ed576040517f08c379a00000000000000000000000000000000000000000000000000000000081526004018080602001828103825260158152602001807f446561646c696e65206973206e6f74204f76657221000000000000000000000081525060200191505060405180910390fd5b600181815481106115fa57fe5b9060005260206000209060060201600301546001828154811061161957fe5b90600052602060002090600602016004015410611681576040517f08c379a00000000000000000000000000000000000000000000000000000000081526004018080602001828103825260228152602001806120dd6022913960400191505060405180910390fd5b60006001828154811061169057fe5b906000526020600020906006020160000160003373ffffffffffffffffffffffffffffffffffffffff1673ffffffffffffffffffffffffffffffffffffffff1681526020019081526020016000205411611752576040517f08c379a00000000000000000000000000000000000000000000000000000000081526004018080602001828103825260188152602001807f596f7520686176656e277420436f6e747269627574656421000000000000000081525060200191505060405180910390fd5b3373ffffffffffffffffffffffffffffffffffffffff166108fc6001838154811061177957fe5b906000526020600020906006020160000160003373ffffffffffffffffffffffffffffffffffffffff1673ffffffffffffffffffffffffffffffffffffffff168152602001908152602001600020549081150290604051600060405180830381858888f193505050501580156117f3573d6000803e3d6000fd5b506001818154811061180157fe5b906000526020600020906006020160000160003373ffffffffffffffffffffffffffffffffffffffff1673ffffffffffffffffffffffffffffffffffffffff168152602001908152602001600020546001828154811061185d57fe5b90600052602060002090600602016004016000828254039250508190555060006001828154811061188a57fe5b906000526020600020906006020160000160003373ffffffffffffffffffffffffffffffffffffffff1673ffffffffffffffffffffffffffffffffffffffff1681526020019081526020016000208190555050565b3373ffffffffffffffffffffffffffffffffffffffff168273ffffffffffffffffffffffffffffffffffffffff161415611981576040517f08c379a00000000000000000000000000000000000000000000000000000000081526004018080602001828103825260128152602001807f41646d696e2043616e6e6f7420566f746521000000000000000000000000000081525060200191505060405180910390fd5b60008060008473ffffffffffffffffffffffffffffffffffffffff1673ffffffffffffffffffffffffffffffffffffffff16815260200190815260200160002060000160003373ffffffffffffffffffffffffffffffffffffffff1673ffffffffffffffffffffffffffffffffffffffff1681526020019081526020016000205490506000808473ffffffffffffffffffffffffffffffffffffffff1673ffffffffffffffffffffffffffffffffffffffff16815260200190815260200160002060010180549050600182011115611ba9576000808473ffffffffffffffffffffffffffffffffffffffff1673ffffffffffffffffffffffffffffffffffffffff1681526020019081526020016000206001016001908060018154018082558091505090600182039060005260206000209060209182820401919006909192909190916101000a81548160ff0219169083151502179055505060016000808573ffffffffffffffffffffffffffffffffffffffff1673ffffffffffffffffffffffffffffffffffffffff16815260200190815260200160002060010180549050036000808573ffffffffffffffffffffffffffffffffffffffff1673ffffffffffffffffffffffffffffffffffffffff16815260200190815260200160002060000160003373ffffffffffffffffffffffffffffffffffffffff1673ffffffffffffffffffffffffffffffffffffffff16815260200190815260200160002081905550611c8f565b600015156000808573ffffffffffffffffffffffffffffffffffffffff1673ffffffffffffffffffffffffffffffffffffffff1681526020019081526020016000206001018281548110611bf957fe5b90600052602060002090602091828204019190069054906101000a900460ff16151514611c8e576040517f08c379a000000000000000000000000000000000000000000000000000000000815260040180806020018281038252600e8152602001807f416c726561647920566f7465642100000000000000000000000000000000000081525060200191505060405180910390fd5b5b8115611ceb576000808473ffffffffffffffffffffffffffffffffffffffff1673ffffffffffffffffffffffffffffffffffffffff16815260200190815260200160002060030160008154809291906001019190505550611d3d565b6000808473ffffffffffffffffffffffffffffffffffffffff1673ffffffffffffffffffffffffffffffffffffffff168152602001908152602001600020600401600081548092919060010191905055505b505050565b60008060008060008573ffffffffffffffffffffffffffffffffffffffff1673ffffffffffffffffffffffffffffffffffffffff168152602001908152602001600020600301546000808673ffffffffffffffffffffffffffffffffffffffff1673ffffffffffffffffffffffffffffffffffffffff168152602001908152602001600020600401546000808773ffffffffffffffffffffffffffffffffffffffff1673ffffffffffffffffffffffffffffffffffffffff168152602001908152602001600020600201549250925092509193909250565b60006001600260003373ffffffffffffffffffffffffffffffffffffffff1673ffffffffffffffffffffffffffffffffffffffff16815260200190815260200160002054039050919050565b6000600460008373ffffffffffffffffffffffffffffffffffffffff1673ffffffffffffffffffffffffffffffffffffffff1681526020019081526020016000205411611f1b576040517f08c379a000000000000000000000000000000000000000000000000000000000815260040180806020018281038252601d8152602001807f4f7267616e697a6174696f6e20446f6573204e6f74204578697374732e00000081525060200191505060405180910390fd5b3460036001600460008573ffffffffffffffffffffffffffffffffffffffff1673ffffffffffffffffffffffffffffffffffffffff168152602001908152602001600020540381548110611f6b57fe5b90600052602060002090600202016001016000828254019250508190555050565b60018181548110611f9957fe5b90600052602060002090600602016000915090508060010154908060020154908060030154908060040154908060050160009054906101000a900473ffffffffffffffffffffffffffffffffffffffff16905085565b6040518060600160405280600073ffffffffffffffffffffffffffffffffffffffff168152602001600015158152602001600081525090565b50805460008255601f01602090049060005260206000209081019061204d9190612095565b50565b6040518060a0016040528060008152602001600081526020016000815260200160008152602001600073ffffffffffffffffffffffffffffffffffffffff1681525090565b6120b791905b808211156120b357600081600090555060010161209b565b5090565b9056fe4e6f742056616c69642e204669727374204170706c7920666f7220766f74696e672e476f616c20697320726561636865642e596f752063616e6e6f7420726566756e6421a265627a7a72315820de8dcad7543299d82a40898413addc2194ce0ec26f5fea5a0037a1624297ec3564736f6c63430005100032",
  "source": "// SPDX-License-Identifier: MIT\npragma solidity >=0.4.22 <0.9.0;\n\n// pragma solidity >=0.4.22 <0.6.0;\n\ncontract mainTest{   \n\n\n// ######################### Voting #########################\n    \n    struct voting{\n        mapping(address=>uint) votersIdx;\n        bool[] alreadyVoted;\n        uint deadline;\n        uint positiveVotes;\n        uint negativeVotes;\n        bool valid;\n    }\n    \n    // voting[] public votingDb;\n    mapping(address=>voting) votingDb;\n    \n    \n    function createVoting(uint deadline) public {\n        require(now>votingDb[msg.sender].deadline,\"Voting Already Exists.\");\n        delete votingDb[msg.sender].alreadyVoted;\n        votingDb[msg.sender].positiveVotes = 0;\n        votingDb[msg.sender].negativeVotes = 0;\n        votingDb[msg.sender].deadline = deadline + now;\n        votingDb[msg.sender].valid = true;\n    }\n    \n    function vote(address votingId,bool doYouAgree) public {\n        require(votingId != msg.sender,\"Admin Cannot Vote!\");\n        uint idx = votingDb[votingId].votersIdx[msg.sender];\n        if(idx+1 > votingDb[votingId].alreadyVoted.length){\n            votingDb[votingId].alreadyVoted.push(true);\n            votingDb[votingId].votersIdx[msg.sender] = votingDb[votingId].alreadyVoted.length - 1;\n        }else{\n            require(votingDb[votingId].alreadyVoted[idx] == false,\"Already Voted!\");\n        }\n        \n        if(doYouAgree){\n            votingDb[votingId].positiveVotes++;\n        }else{\n            votingDb[votingId].negativeVotes++;\n        }\n        \n    }\n\n    function getVotingStatus(address votingId) view public returns(uint positiveVotes,uint negativeVotes,uint deadline) {\n        return (votingDb[votingId].positiveVotes,votingDb[votingId].negativeVotes,votingDb[votingId].deadline);\n    }\n    \n    \n    function isEligible(address votingId) view public returns(bool) {\n        //Some logic\n        return (votingDb[votingId].positiveVotes > votingDb[votingId].negativeVotes);\n    }\n    \n    \n        \n    \n    \n    // function vote(address votingId,bool doYouAgree) public{\n    //     uint vIdx = votingDb[votingId].votersIdx[msg.sender];\n        \n    //     require(votingDb[votingId].votersChoice[vIdx] == false,\"Already Voted!\");\n    //     uint idx = votingDb[msg.sender].index;\n    //     if(doYouAgree){\n    //         votingDb[votingId].positiveVotes++;\n    //     }else{\n    //         votingDb[votingId].negativeVotes++;\n    //     }\n    //     votingDb[votingId].voters[msg.sender] = true;\n    // }\n\n// X-X-X-X-X-X-X-X-X-X-X-X-X Voting X-X-X-X-X-X-X-X-X-X-X-X-X\n    \n    \n// ######################### Crowd Funding #########################\n    struct crowdFund{\n        mapping(address=>uint) contributions;\n        uint totalContributors;    \n        uint deadline;             \n        uint goal;                 \n        uint raisedAmount ;    \n        address payable admin;\n    }\n    \n    crowdFund[] public cfDb;\n    mapping (address => uint) cfIdxDb;\n    \n    \n    function getCfDbCount() view public returns(uint){\n        return cfDb.length;\n    }\n    \n    // function getCfIdFromAddress(address cfAddress) view public returns(uint){\n    //     for(uint i=0;i<cfDb.length;i++){\n    //         if(cfDb[i].admin == cfAddress){\n    //             return i;\n    //         }\n    //     }\n    // }\n\n    function getCfIdFromAddress(address cfAddress) view public returns(uint){\n        return (cfIdxDb[msg.sender] - 1);\n    }\n    \n    function createCrowdFund(uint _deadlineSecs,uint _goal) public{\n        require(votingDb[msg.sender].valid,\"Not Valid. First Apply for voting.\");\n        require(isEligible(msg.sender),\"Not Eligible. No enough votes.\");\n        require(votingDb[msg.sender].deadline < now,\"Voting deadline not over yet!\");\n        crowdFund memory cf;\n        cf.deadline= now + _deadlineSecs;\n        cf.goal=_goal;\n        cf.admin = msg.sender;\n        cfDb.push(cf);\n        votingDb[msg.sender].valid = false;\n        cfIdxDb[msg.sender] = cfDb.length;\n    }\n    \n    function cf_contribute(uint cfId) public payable {\n        require(now < cfDb[cfId].deadline,\"Time is Over!\");\n        if(cfDb[cfId].contributions[msg.sender] == 0)\n        {\n            cfDb[cfId].totalContributors++;\n        }\n        cfDb[cfId].contributions[msg.sender] += msg.value;\n        cfDb[cfId].raisedAmount+=msg.value;\n    }\n    \n    //Get Refund if goal is not reached within the set deadline.\n    function cf_getRefund(uint cfId) public {\n        require(now > cfDb[cfId].deadline,\"Deadline is not Over!\");\n        require(cfDb[cfId].raisedAmount < cfDb[cfId].goal,\"Goal is reached.You cannot refund!\");\n        require(cfDb[cfId].contributions[msg.sender] > 0,\"You haven't Contributed!\");\n        msg.sender.transfer(cfDb[cfId].contributions[msg.sender]);\n        cfDb[cfId].raisedAmount -= cfDb[cfId].contributions[msg.sender];\n        cfDb[cfId].contributions[msg.sender] = 0;\n    }\n    \n    function cf_withdrawFunding(uint cfId) public {\n        require(msg.sender == cfDb[cfId].admin,\"Only Admin is allowed!\");\n        require(cfDb[cfId].raisedAmount >= cfDb[cfId].goal,\"Goal amount not reached!\");\n        cfDb[cfId].admin.transfer(cfDb[cfId].raisedAmount);\n    }\n    \n    // function cf_getRemainingTime(uint cfId) view public returns(uint) {\n    //    return cfDb[cfId].deadline - now;\n    // }\n// X-X-X-X-X-X-X-X-X-X-X-X-X Crowd Funding X-X-X-X-X-X-X-X-X-X-X-X-X\n\n// ######################### Organization #########################\n\n    struct organization{\n        address payable admin;\n        bool acceptingZakat;\n        uint balanceAmount;\n    }\n    \n    organization[] public orgDb;\n    mapping (address => uint) orgIdxDb;\n    \n    \n    function getOrgDbCount() view public returns(uint){\n        return orgDb.length;\n    }\n    \n    event Deposit(address indexed _from, uint _value);\n    \n    function createOrganization(bool _acceptingZakat) public {\n        require (orgIdxDb[msg.sender] == 0,\"Organization Already Exists.\");\n        organization memory org;\n        org.admin = msg.sender;\n        org.acceptingZakat = _acceptingZakat;\n        orgDb.push(org);\n        orgIdxDb[msg.sender] = orgDb.length;\n    }\n\n    function org_id_donate(uint orgId) public payable {\n        orgDb[orgId].balanceAmount += msg.value;\n        // emit Deposit(msg.sender, msg.value);\n    }\n\n    function org_adr_donate(address orgAdr) public payable {\n        require (orgIdxDb[orgAdr] > 0,\"Organization Does Not Exists.\");\n        orgDb[orgIdxDb[orgAdr]-1].balanceAmount += msg.value;\n        // emit Deposit(msg.sender, msg.value);\n    }\n    \n    function org_withdraw(uint amount) public {\n        require (orgIdxDb[msg.sender] > 0,\"Organization Does Not Exists.\");\n        uint id = orgIdxDb[msg.sender]-1;\n        require(msg.sender == orgDb[id].admin,\"Only Admin is allowed!\");\n        orgDb[id].admin.transfer(amount);\n    }\n    \n    // function org_donate(uint orgId) public payable {\n    //     orgDb[orgId].balanceAmount += msg.value;\n    //     emit Deposit(msg.sender, msg.value);\n    // }\n    \n    // function org_withdraw(uint amount,uint orgId) public {\n    //     require(msg.sender == orgDb[orgId].admin,\"Only Admin is allowed!\");\n    //     orgDb[orgId].admin.transfer(amount);\n    // }\n// X-X-X-X-X-X-X-X-X-X-X-X-X Ororganization X-X-X-X-X-X-X-X-X-X-X-X-X\n    \n    \n    \n\n\n\n\n\n\n\n\n\n// ######################### Main #########################\n\n// X-X-X-X-X-X-X-X-X-X-X-X-X Main X-X-X-X-X-X-X-X-X-X-X-X-X\n\n}\n\n// contract main{\n//     address[] public contracts;\n//     function createCrowdFund (uint _deadlineSecs,uint _goal) \n//     public \n//     returns(address newContract){\n//         crowdFund cf = new crowdFund(_deadlineSecs,_goal);\n//         contracts.push(address(cf));\n//         return address(cf);\n//     }\n    \n//     function getNow(uint id) view public returns(uint) {\n//         uint n = crowdFund(contracts[id]).getNow();\n//         return n;\n//     }\n// }\n\n\n\n\n    // bool[] public tst;\n    \n    // function pushTst(bool val) public{\n    //     tst.push(val);\n    // }\n    \n    // function lenTst() view public returns(uint){\n    //     return tst.length;\n    // }\n    \n    // function delTst() public{\n    //     delete tst;\n    // }",
  "sourcePath": "/home/kali/p-test-6/contracts/mainTest.sol",
  "compiler": {
    "name": "solc",
    "version": "0.5.16+commit.9c3226ce.Emscripten.clang"
  },
  "schemaVersion": "3.4.2",
  "updatedAt": "2021-08-11T03:51:20.975Z",
  "networkType": "ethereum",
  "devdoc": {
    "methods": {}
  },
  "userdoc": {
    "methods": {}
  }
}