{
  "contractName": "mainTest",
  "abi": [
    {
      "inputs": [],
      "payable": false,
      "stateMutability": "nonpayable",
      "type": "constructor"
    },
    {
      "anonymous": false,
      "inputs": [
        {
          "indexed": true,
          "internalType": "address",
          "name": "_from",
          "type": "address"
        },
        {
          "indexed": false,
          "internalType": "uint256",
          "name": "_value",
          "type": "uint256"
        }
      ],
      "name": "Deposit",
      "type": "event"
    },
    {
      "constant": true,
      "inputs": [
        {
          "internalType": "uint256",
          "name": "",
          "type": "uint256"
        }
      ],
      "name": "cfDb",
      "outputs": [
        {
          "internalType": "uint256",
          "name": "totalContributors",
          "type": "uint256"
        },
        {
          "internalType": "uint256",
          "name": "deadline",
          "type": "uint256"
        },
        {
          "internalType": "uint256",
          "name": "goal",
          "type": "uint256"
        },
        {
          "internalType": "uint256",
          "name": "raisedAmount",
          "type": "uint256"
        },
        {
          "internalType": "uint8",
          "name": "catagory",
          "type": "uint8"
        },
        {
          "internalType": "address payable",
          "name": "admin",
          "type": "address"
        }
      ],
      "payable": false,
      "stateMutability": "view",
      "type": "function"
    },
    {
      "constant": true,
      "inputs": [],
      "name": "contractAdmin",
      "outputs": [
        {
          "internalType": "address payable",
          "name": "",
          "type": "address"
        }
      ],
      "payable": false,
      "stateMutability": "view",
      "type": "function"
    },
    {
      "constant": true,
      "inputs": [
        {
          "internalType": "uint256",
          "name": "",
          "type": "uint256"
        }
      ],
      "name": "orgDb",
      "outputs": [
        {
          "internalType": "address payable",
          "name": "admin",
          "type": "address"
        },
        {
          "internalType": "string",
          "name": "name",
          "type": "string"
        },
        {
          "internalType": "uint256",
          "name": "balanceAmount",
          "type": "uint256"
        },
        {
          "internalType": "uint256",
          "name": "donateTotal",
          "type": "uint256"
        },
        {
          "internalType": "uint256",
          "name": "withdrawTotal",
          "type": "uint256"
        }
      ],
      "payable": false,
      "stateMutability": "view",
      "type": "function"
    },
    {
      "constant": true,
      "inputs": [
        {
          "internalType": "uint256",
          "name": "",
          "type": "uint256"
        }
      ],
      "name": "votingDb",
      "outputs": [
        {
          "internalType": "uint256",
          "name": "votingDeadline",
          "type": "uint256"
        },
        {
          "internalType": "uint256",
          "name": "cfDeadline",
          "type": "uint256"
        },
        {
          "internalType": "uint256",
          "name": "positiveVotes",
          "type": "uint256"
        },
        {
          "internalType": "uint256",
          "name": "negativeVotes",
          "type": "uint256"
        },
        {
          "internalType": "bool",
          "name": "valid",
          "type": "bool"
        },
        {
          "internalType": "uint256",
          "name": "amount",
          "type": "uint256"
        },
        {
          "internalType": "uint8",
          "name": "catagory",
          "type": "uint8"
        },
        {
          "internalType": "address",
          "name": "admin",
          "type": "address"
        }
      ],
      "payable": false,
      "stateMutability": "view",
      "type": "function"
    },
    {
      "constant": true,
      "inputs": [
        {
          "internalType": "address",
          "name": "addr",
          "type": "address"
        }
      ],
      "name": "getAddrStatus",
      "outputs": [
        {
          "internalType": "uint256",
          "name": "orgId",
          "type": "uint256"
        },
        {
          "internalType": "uint256",
          "name": "cfId",
          "type": "uint256"
        },
        {
          "internalType": "uint256",
          "name": "votingId",
          "type": "uint256"
        }
      ],
      "payable": false,
      "stateMutability": "view",
      "type": "function"
    },
    {
      "constant": true,
      "inputs": [],
      "name": "getVotingDbCount",
      "outputs": [
        {
          "internalType": "uint256",
          "name": "",
          "type": "uint256"
        }
      ],
      "payable": false,
      "stateMutability": "view",
      "type": "function"
    },
    {
      "constant": false,
      "inputs": [
        {
          "internalType": "uint256",
          "name": "deadline",
          "type": "uint256"
        },
        {
          "internalType": "uint256",
          "name": "cfDeadline",
          "type": "uint256"
        },
        {
          "internalType": "uint256",
          "name": "_amount",
          "type": "uint256"
        },
        {
          "internalType": "uint8",
          "name": "_catagory",
          "type": "uint8"
        }
      ],
      "name": "createVoting",
      "outputs": [],
      "payable": false,
      "stateMutability": "nonpayable",
      "type": "function"
    },
    {
      "constant": false,
      "inputs": [
        {
          "internalType": "address",
          "name": "votingId",
          "type": "address"
        },
        {
          "internalType": "bool",
          "name": "doYouAgree",
          "type": "bool"
        }
      ],
      "name": "vote",
      "outputs": [],
      "payable": false,
      "stateMutability": "nonpayable",
      "type": "function"
    },
    {
      "constant": true,
      "inputs": [
        {
          "internalType": "address",
          "name": "votingId",
          "type": "address"
        }
      ],
      "name": "getVotingStatus",
      "outputs": [
        {
          "internalType": "uint256",
          "name": "positiveVotes",
          "type": "uint256"
        },
        {
          "internalType": "uint256",
          "name": "negativeVotes",
          "type": "uint256"
        },
        {
          "internalType": "uint256",
          "name": "deadline",
          "type": "uint256"
        },
        {
          "internalType": "uint256",
          "name": "amount",
          "type": "uint256"
        },
        {
          "internalType": "uint8",
          "name": "catagory",
          "type": "uint8"
        }
      ],
      "payable": false,
      "stateMutability": "view",
      "type": "function"
    },
    {
      "constant": true,
      "inputs": [
        {
          "internalType": "address",
          "name": "votingId",
          "type": "address"
        }
      ],
      "name": "isEligible",
      "outputs": [
        {
          "internalType": "bool",
          "name": "",
          "type": "bool"
        }
      ],
      "payable": false,
      "stateMutability": "view",
      "type": "function"
    },
    {
      "constant": true,
      "inputs": [],
      "name": "getCfDbCount",
      "outputs": [
        {
          "internalType": "uint256",
          "name": "",
          "type": "uint256"
        }
      ],
      "payable": false,
      "stateMutability": "view",
      "type": "function"
    },
    {
      "constant": true,
      "inputs": [
        {
          "internalType": "address",
          "name": "cfAddress",
          "type": "address"
        }
      ],
      "name": "getCfIdFromAddress",
      "outputs": [
        {
          "internalType": "uint256",
          "name": "",
          "type": "uint256"
        }
      ],
      "payable": false,
      "stateMutability": "view",
      "type": "function"
    },
    {
      "constant": false,
      "inputs": [
        {
          "internalType": "address",
          "name": "addr",
          "type": "address"
        }
      ],
      "name": "createCrowdFund",
      "outputs": [],
      "payable": false,
      "stateMutability": "nonpayable",
      "type": "function"
    },
    {
      "constant": false,
      "inputs": [
        {
          "internalType": "uint256",
          "name": "cfId",
          "type": "uint256"
        }
      ],
      "name": "cf_contribute",
      "outputs": [],
      "payable": true,
      "stateMutability": "payable",
      "type": "function"
    },
    {
      "constant": false,
      "inputs": [
        {
          "internalType": "uint256",
          "name": "cfId",
          "type": "uint256"
        }
      ],
      "name": "cf_getRefund",
      "outputs": [],
      "payable": false,
      "stateMutability": "nonpayable",
      "type": "function"
    },
    {
      "constant": false,
      "inputs": [
        {
          "internalType": "uint256",
          "name": "cfId",
          "type": "uint256"
        }
      ],
      "name": "cf_withdrawFunding",
      "outputs": [],
      "payable": false,
      "stateMutability": "nonpayable",
      "type": "function"
    },
    {
      "constant": true,
      "inputs": [],
      "name": "getOrgDbCount",
      "outputs": [
        {
          "internalType": "uint256",
          "name": "",
          "type": "uint256"
        }
      ],
      "payable": false,
      "stateMutability": "view",
      "type": "function"
    },
    {
      "constant": true,
      "inputs": [
        {
          "internalType": "address",
          "name": "orgAddress",
          "type": "address"
        }
      ],
      "name": "getOrgIdFromAddress",
      "outputs": [
        {
          "internalType": "uint256",
          "name": "",
          "type": "uint256"
        }
      ],
      "payable": false,
      "stateMutability": "view",
      "type": "function"
    },
    {
      "constant": false,
      "inputs": [
        {
          "internalType": "address payable",
          "name": "addr",
          "type": "address"
        },
        {
          "internalType": "string",
          "name": "orgName",
          "type": "string"
        }
      ],
      "name": "createOrganization",
      "outputs": [],
      "payable": false,
      "stateMutability": "nonpayable",
      "type": "function"
    },
    {
      "constant": false,
      "inputs": [
        {
          "internalType": "uint256",
          "name": "orgId",
          "type": "uint256"
        }
      ],
      "name": "org_id_donate",
      "outputs": [],
      "payable": true,
      "stateMutability": "payable",
      "type": "function"
    },
    {
      "constant": false,
      "inputs": [
        {
          "internalType": "address",
          "name": "orgAdr",
          "type": "address"
        }
      ],
      "name": "org_adr_donate",
      "outputs": [],
      "payable": true,
      "stateMutability": "payable",
      "type": "function"
    },
    {
      "constant": false,
      "inputs": [
        {
          "internalType": "uint256",
          "name": "amount",
          "type": "uint256"
        }
      ],
      "name": "org_withdraw",
      "outputs": [],
      "payable": false,
      "stateMutability": "nonpayable",
      "type": "function"
    },
    {
      "constant": false,
      "inputs": [
        {
          "internalType": "address payable",
          "name": "addr",
          "type": "address"
        },
        {
          "internalType": "uint256",
          "name": "amount",
          "type": "uint256"
        }
      ],
      "name": "org_send",
      "outputs": [],
      "payable": false,
      "stateMutability": "nonpayable",
      "type": "function"
    }
  ],
  "bytecode": "0x608060405234801561001057600080fd5b50336000806101000a81548173ffffffffffffffffffffffffffffffffffffffff021916908373ffffffffffffffffffffffffffffffffffffffff1602179055506134a0806100606000396000f3fe6080604052600436106101405760003560e01c80638898750d116100b6578063d867909a1161006f578063d867909a14610727578063d8ecd925146107ae578063e48893b914610896578063e6b39ac1146108f1578063f63b649d14610956578063f71b3a341461099a57610140565b80638898750d1461056557806398039d84146105b6578063a0ce4136146105e1578063a9f670e114610654578063ae8c78511461068f578063bd041c4d146106ca57610140565b80634bcfb07e116101085780634bcfb07e146103a95780634c25c31b146103d75780635148838b1461041257806366e305fd14610477578063730c6d56146104e0578063779552451461050e57610140565b80630824ab5d146101455780630f6278ed146101fb5780631f361ee5146102265780633e9dfa30146102515780634418f8361461034d575b600080fd5b34801561015157600080fd5b5061017e6004803603602081101561016857600080fd5b8101908080359060200190929190505050610a3e565b60405180898152602001888152602001878152602001868152602001851515151581526020018481526020018360ff1660ff1681526020018273ffffffffffffffffffffffffffffffffffffffff1673ffffffffffffffffffffffffffffffffffffffff1681526020019850505050505050505060405180910390f35b34801561020757600080fd5b50610210610acd565b6040518082815260200191505060405180910390f35b34801561023257600080fd5b5061023b610ada565b6040518082815260200191505060405180910390f35b34801561025d57600080fd5b5061028a6004803603602081101561027457600080fd5b8101908080359060200190929190505050610ae7565b604051808673ffffffffffffffffffffffffffffffffffffffff1673ffffffffffffffffffffffffffffffffffffffff16815260200180602001858152602001848152602001838152602001828103825286818151815260200191508051906020019080838360005b8381101561030e5780820151818401526020810190506102f3565b50505050905090810190601f16801561033b5780820380516001836020036101000a031916815260200191505b50965050505050505060405180910390f35b34801561035957600080fd5b506103a76004803603608081101561037057600080fd5b81019080803590602001909291908035906020019092919080359060200190929190803560ff169060200190929190505050610be2565b005b6103d5600480360360208110156103bf57600080fd5b8101908080359060200190929190505050610ff3565b005b3480156103e357600080fd5b50610410600480360360208110156103fa57600080fd5b81019080803590602001909291905050506110c4565b005b34801561041e57600080fd5b506104616004803603602081101561043557600080fd5b81019080803573ffffffffffffffffffffffffffffffffffffffff169060200190929190505050611414565b6040518082815260200191505060405180910390f35b34801561048357600080fd5b506104c66004803603602081101561049a57600080fd5b81019080803573ffffffffffffffffffffffffffffffffffffffff169060200190929190505050611514565b604051808215151515815260200191505060405180910390f35b61050c600480360360208110156104f657600080fd5b81019080803590602001909291905050506115a3565b005b34801561051a57600080fd5b50610523611761565b604051808273ffffffffffffffffffffffffffffffffffffffff1673ffffffffffffffffffffffffffffffffffffffff16815260200191505060405180910390f35b34801561057157600080fd5b506105b46004803603602081101561058857600080fd5b81019080803573ffffffffffffffffffffffffffffffffffffffff169060200190929190505050611786565b005b3480156105c257600080fd5b506105cb611ae2565b6040518082815260200191505060405180910390f35b3480156105ed57600080fd5b506106306004803603602081101561060457600080fd5b81019080803573ffffffffffffffffffffffffffffffffffffffff169060200190929190505050611aef565b60405180848152602001838152602001828152602001935050505060405180910390f35b34801561066057600080fd5b5061068d6004803603602081101561067757600080fd5b8101908080359060200190929190505050611bc1565b005b34801561069b57600080fd5b506106c8600480360360208110156106b257600080fd5b8101908080359060200190929190505050611df8565b005b3480156106d657600080fd5b50610725600480360360408110156106ed57600080fd5b81019080803573ffffffffffffffffffffffffffffffffffffffff16906020019092919080351515906020019092919050505061217d565b005b34801561073357600080fd5b506107766004803603602081101561074a57600080fd5b81019080803573ffffffffffffffffffffffffffffffffffffffff1690602001909291905050506126ad565b604051808681526020018581526020018481526020018381526020018260ff1660ff1681526020019550505050505060405180910390f35b3480156107ba57600080fd5b50610894600480360360408110156107d157600080fd5b81019080803573ffffffffffffffffffffffffffffffffffffffff1690602001909291908035906020019064010000000081111561080e57600080fd5b82018360208201111561082057600080fd5b8035906020019184600183028401116401000000008311171561084257600080fd5b91908080601f016020809104026020016040519081016040528093929190818152602001838380828437600081840152601f19601f820116905080830192505050505050509192919290505050612850565b005b3480156108a257600080fd5b506108ef600480360360408110156108b957600080fd5b81019080803573ffffffffffffffffffffffffffffffffffffffff16906020019092919080359060200190929190505050612ad7565b005b3480156108fd57600080fd5b506109406004803603602081101561091457600080fd5b81019080803573ffffffffffffffffffffffffffffffffffffffff169060200190929190505050612dea565b6040518082815260200191505060405180910390f35b6109986004803603602081101561096c57600080fd5b81019080803573ffffffffffffffffffffffffffffffffffffffff169060200190929190505050612ecd565b005b3480156109a657600080fd5b506109d3600480360360208110156109bd57600080fd5b8101908080359060200190929190505050613061565b604051808781526020018681526020018581526020018481526020018360ff1660ff1681526020018273ffffffffffffffffffffffffffffffffffffffff1673ffffffffffffffffffffffffffffffffffffffff168152602001965050505050505060405180910390f35b60018181548110610a4b57fe5b90600052602060002090600902016000915090508060020154908060030154908060040154908060050154908060060160009054906101000a900460ff16908060070154908060080160009054906101000a900460ff16908060080160019054906101000a900473ffffffffffffffffffffffffffffffffffffffff16905088565b6000600380549050905090565b6000600580549050905090565b60058181548110610af457fe5b90600052602060002090600502016000915090508060000160009054906101000a900473ffffffffffffffffffffffffffffffffffffffff1690806001018054600181600116156101000203166002900480601f016020809104026020016040519081016040528092919081815260200182805460018160011615610100020316600290048015610bc65780601f10610b9b57610100808354040283529160200191610bc6565b820191906000526020600020905b815481529060010190602001808311610ba957829003601f168201915b5050505050908060020154908060030154908060040154905085565b6000600260003373ffffffffffffffffffffffffffffffffffffffff1673ffffffffffffffffffffffffffffffffffffffff168152602001908152602001600020541115610cff5742600180600260003373ffffffffffffffffffffffffffffffffffffffff1673ffffffffffffffffffffffffffffffffffffffff168152602001908152602001600020540381548110610c7957fe5b90600052602060002090600902016002015410610cfe576040517f08c379a00000000000000000000000000000000000000000000000000000000081526004018080602001828103825260168152602001807f446561646c696e65206e6f74206f766572207965742e0000000000000000000081525060200191505060405180910390fd5b5b6000600460003373ffffffffffffffffffffffffffffffffffffffff1673ffffffffffffffffffffffffffffffffffffffff168152602001908152602001600020541115610e00574260036001600460003373ffffffffffffffffffffffffffffffffffffffff1673ffffffffffffffffffffffffffffffffffffffff168152602001908152602001600020540381548110610d9757fe5b90600052602060002090600602016002015410610dff576040517f08c379a000000000000000000000000000000000000000000000000000000000815260040180806020018281038252602e81526020018061334e602e913960400191505060405180910390fd5b5b610e086130d7565b600081606001818152505060008160800181815250504285018160200181815250508381604001818152505060018160a0019015159081151581525050828160c0018181525050818160e0019060ff16908160ff16815250503381610100019073ffffffffffffffffffffffffffffffffffffffff16908173ffffffffffffffffffffffffffffffffffffffff1681525050600181908060018154018082558091505090600182039060005260206000209060090201600090919290919091506000820151816001019080519060200190610ee492919061313e565b506020820151816002015560408201518160030155606082015181600401556080820151816005015560a08201518160060160006101000a81548160ff02191690831515021790555060c0820151816007015560e08201518160080160006101000a81548160ff021916908360ff1602179055506101008201518160080160016101000a81548173ffffffffffffffffffffffffffffffffffffffff021916908373ffffffffffffffffffffffffffffffffffffffff160217905550505050600180549050600260003373ffffffffffffffffffffffffffffffffffffffff1673ffffffffffffffffffffffffffffffffffffffff168152602001908152602001600020819055505050505050565b60008111611069576040517f08c379a000000000000000000000000000000000000000000000000000000000815260040180806020018281038252601d8152602001807f4f7267616e697a6174696f6e20446f6573204e6f74204578697374732e00000081525060200191505060405180910390fd5b346005828154811061107757fe5b90600052602060002090600502016002016000828254019250508190555034600582815481106110a357fe5b90600052602060002090600502016003016000828254019250508190555050565b6000600660003373ffffffffffffffffffffffffffffffffffffffff1673ffffffffffffffffffffffffffffffffffffffff1681526020019081526020016000205411611179576040517f08c379a000000000000000000000000000000000000000000000000000000000815260040180806020018281038252601d8152602001807f4f7267616e697a6174696f6e20446f6573204e6f74204578697374732e00000081525060200191505060405180910390fd5b60006001600660003373ffffffffffffffffffffffffffffffffffffffff1673ffffffffffffffffffffffffffffffffffffffff16815260200190815260200160002054039050600581815481106111cd57fe5b906000526020600020906005020160000160009054906101000a900473ffffffffffffffffffffffffffffffffffffffff1673ffffffffffffffffffffffffffffffffffffffff163373ffffffffffffffffffffffffffffffffffffffff161461129f576040517f08c379a00000000000000000000000000000000000000000000000000000000081526004018080602001828103825260168152602001807f4f6e6c792041646d696e20697320616c6c6f776564210000000000000000000081525060200191505060405180910390fd5b81600582815481106112ad57fe5b9060005260206000209060050201600201541015611333576040517f08c379a00000000000000000000000000000000000000000000000000000000081526004018080602001828103825260138152602001807f4e6f7420656e6f7567682062616c616e6365210000000000000000000000000081525060200191505060405180910390fd5b6005818154811061134057fe5b906000526020600020906005020160000160009054906101000a900473ffffffffffffffffffffffffffffffffffffffff1673ffffffffffffffffffffffffffffffffffffffff166108fc839081150290604051600060405180830381858888f193505050501580156113b7573d6000803e3d6000fd5b5081600582815481106113c657fe5b90600052602060002090600502016002016000828254039250508190555081600582815481106113f257fe5b9060005260206000209060050201600401600082825401925050819055505050565b600080600660008473ffffffffffffffffffffffffffffffffffffffff1673ffffffffffffffffffffffffffffffffffffffff16815260200190815260200160002054116114ca576040517f08c379a000000000000000000000000000000000000000000000000000000000815260040180806020018281038252601d8152602001807f4f7267616e697a6174696f6e20446f6573204e6f74204578697374732e00000081525060200191505060405180910390fd5b6001600660008473ffffffffffffffffffffffffffffffffffffffff1673ffffffffffffffffffffffffffffffffffffffff16815260200190815260200160002054039050919050565b6000806001600260008573ffffffffffffffffffffffffffffffffffffffff1673ffffffffffffffffffffffffffffffffffffffff168152602001908152602001600020540390506001818154811061156957fe5b9060005260206000209060090201600501546001828154811061158857fe5b90600052602060002090600902016004015411915050919050565b600381815481106115b057fe5b9060005260206000209060060201600201544210611636576040517f08c379a000000000000000000000000000000000000000000000000000000000815260040180806020018281038252600d8152602001807f54696d65206973204f766572210000000000000000000000000000000000000081525060200191505060405180910390fd5b60006003828154811061164557fe5b906000526020600020906006020160000160003373ffffffffffffffffffffffffffffffffffffffff1673ffffffffffffffffffffffffffffffffffffffff1681526020019081526020016000205414156116c957600381815481106116a757fe5b9060005260206000209060060201600101600081548092919060010191905055505b34600382815481106116d757fe5b906000526020600020906006020160000160003373ffffffffffffffffffffffffffffffffffffffff1673ffffffffffffffffffffffffffffffffffffffff16815260200190815260200160002060008282540192505081905550346003828154811061174057fe5b90600052602060002090600602016004016000828254019250508190555050565b6000809054906101000a900473ffffffffffffffffffffffffffffffffffffffff1681565b60006001600260008473ffffffffffffffffffffffffffffffffffffffff1673ffffffffffffffffffffffffffffffffffffffff168152602001908152602001600020540390506000600260008473ffffffffffffffffffffffffffffffffffffffff1673ffffffffffffffffffffffffffffffffffffffff168152602001908152602001600020541415611866576040517f08c379a00000000000000000000000000000000000000000000000000000000081526004018080602001828103825260228152602001806133a86022913960400191505060405180910390fd5b61186f82611514565b6118e1576040517f08c379a000000000000000000000000000000000000000000000000000000000815260040180806020018281038252601e8152602001807f4e6f7420456c696769626c652e204e6f20656e6f75676820766f7465732e000081525060200191505060405180910390fd5b42600182815481106118ef57fe5b90600052602060002090600902016002018190555061190c6131e4565b426001838154811061191a57fe5b906000526020600020906009020160030154018160200181815250506001828154811061194357fe5b9060005260206000209060090201600701548160400181815250506001828154811061196b57fe5b906000526020600020906009020160080160009054906101000a900460ff16816080019060ff16908160ff1681525050828160a0019073ffffffffffffffffffffffffffffffffffffffff16908173ffffffffffffffffffffffffffffffffffffffff1681525050600381908060018154018082558091505090600182039060005260206000209060060201600090919290919091506000820151816001015560208201518160020155604082015181600301556060820151816004015560808201518160050160006101000a81548160ff021916908360ff16021790555060a08201518160050160016101000a81548173ffffffffffffffffffffffffffffffffffffffff021916908373ffffffffffffffffffffffffffffffffffffffff160217905550505050600380549050600460008573ffffffffffffffffffffffffffffffffffffffff1673ffffffffffffffffffffffffffffffffffffffff16815260200190815260200160002081905550505050565b6000600180549050905090565b6000806000600660008573ffffffffffffffffffffffffffffffffffffffff1673ffffffffffffffffffffffffffffffffffffffff16815260200190815260200160002054600460008673ffffffffffffffffffffffffffffffffffffffff1673ffffffffffffffffffffffffffffffffffffffff16815260200190815260200160002054600260008773ffffffffffffffffffffffffffffffffffffffff1673ffffffffffffffffffffffffffffffffffffffff168152602001908152602001600020549250925092509193909250565b60038181548110611bce57fe5b906000526020600020906006020160050160019054906101000a900473ffffffffffffffffffffffffffffffffffffffff1673ffffffffffffffffffffffffffffffffffffffff163373ffffffffffffffffffffffffffffffffffffffff1614611ca0576040517f08c379a00000000000000000000000000000000000000000000000000000000081526004018080602001828103825260168152602001807f4f6e6c792041646d696e20697320616c6c6f776564210000000000000000000081525060200191505060405180910390fd5b60038181548110611cad57fe5b90600052602060002090600602016003015460038281548110611ccc57fe5b9060005260206000209060060201600401541015611d52576040517f08c379a00000000000000000000000000000000000000000000000000000000081526004018080602001828103825260188152602001807f476f616c20616d6f756e74206e6f74207265616368656421000000000000000081525060200191505060405180910390fd5b60038181548110611d5f57fe5b906000526020600020906006020160050160019054906101000a900473ffffffffffffffffffffffffffffffffffffffff1673ffffffffffffffffffffffffffffffffffffffff166108fc60038381548110611db757fe5b9060005260206000209060060201600401549081150290604051600060405180830381858888f19350505050158015611df4573d6000803e3d6000fd5b5050565b60038181548110611e0557fe5b9060005260206000209060060201600201544211611e8b576040517f08c379a00000000000000000000000000000000000000000000000000000000081526004018080602001828103825260158152602001807f446561646c696e65206973206e6f74204f76657221000000000000000000000081525060200191505060405180910390fd5b60038181548110611e9857fe5b90600052602060002090600602016003015460038281548110611eb757fe5b90600052602060002090600602016004015410611f1f576040517f08c379a00000000000000000000000000000000000000000000000000000000081526004018080602001828103825260228152602001806133f16022913960400191505060405180910390fd5b600060038281548110611f2e57fe5b906000526020600020906006020160000160003373ffffffffffffffffffffffffffffffffffffffff1673ffffffffffffffffffffffffffffffffffffffff1681526020019081526020016000205411611ff0576040517f08c379a00000000000000000000000000000000000000000000000000000000081526004018080602001828103825260188152602001807f596f7520686176656e277420436f6e747269627574656421000000000000000081525060200191505060405180910390fd5b3373ffffffffffffffffffffffffffffffffffffffff166108fc6003838154811061201757fe5b906000526020600020906006020160000160003373ffffffffffffffffffffffffffffffffffffffff1673ffffffffffffffffffffffffffffffffffffffff168152602001908152602001600020549081150290604051600060405180830381858888f19350505050158015612091573d6000803e3d6000fd5b506003818154811061209f57fe5b906000526020600020906006020160000160003373ffffffffffffffffffffffffffffffffffffffff1673ffffffffffffffffffffffffffffffffffffffff16815260200190815260200160002054600382815481106120fb57fe5b90600052602060002090600602016004016000828254039250508190555060006003828154811061212857fe5b906000526020600020906006020160000160003373ffffffffffffffffffffffffffffffffffffffff1673ffffffffffffffffffffffffffffffffffffffff1681526020019081526020016000208190555050565b3373ffffffffffffffffffffffffffffffffffffffff168273ffffffffffffffffffffffffffffffffffffffff16141561221f576040517f08c379a00000000000000000000000000000000000000000000000000000000081526004018080602001828103825260128152602001807f41646d696e2043616e6e6f7420566f746521000000000000000000000000000081525060200191505060405180910390fd5b6000600660003373ffffffffffffffffffffffffffffffffffffffff1673ffffffffffffffffffffffffffffffffffffffff16815260200190815260200160002054116122d4576040517f08c379a000000000000000000000000000000000000000000000000000000000815260040180806020018281038252601c8152602001807f4f6e6c79204f7267616e697a6174696f6e732063616e20566f7465210000000081525060200191505060405180910390fd5b60006001600260008573ffffffffffffffffffffffffffffffffffffffff1673ffffffffffffffffffffffffffffffffffffffff16815260200190815260200160002054039050426001828154811061232957fe5b906000526020600020906009020160020154116123ae576040517f08c379a00000000000000000000000000000000000000000000000000000000081526004018080602001828103825260158152602001807f566f74696e6720646561646c696e65206f76657221000000000000000000000081525060200191505060405180910390fd5b6000600182815481106123bd57fe5b906000526020600020906009020160000160003373ffffffffffffffffffffffffffffffffffffffff1673ffffffffffffffffffffffffffffffffffffffff1681526020019081526020016000205490506001828154811061241b57fe5b906000526020600020906009020160010180549050600182011115612526576001828154811061244757fe5b90600052602060002090600902016001016001908060018154018082558091505090600182039060005260206000209060209182820401919006909192909190916101000a81548160ff0219169083151502179055505060018083815481106124ac57fe5b90600052602060002090600902016001018054905003600183815481106124cf57fe5b906000526020600020906009020160000160003373ffffffffffffffffffffffffffffffffffffffff1673ffffffffffffffffffffffffffffffffffffffff168152602001908152602001600020819055506125e9565b600015156001838154811061253757fe5b9060005260206000209060090201600101828154811061255357fe5b90600052602060002090602091828204019190069054906101000a900460ff161515146125e8576040517f08c379a000000000000000000000000000000000000000000000000000000000815260040180806020018281038252600e8152602001807f416c726561647920566f7465642100000000000000000000000000000000000081525060200191505060405180910390fd5b5b821561262257600182815481106125fc57fe5b906000526020600020906009020160040160008154809291906001019190505550612651565b6001828154811061262f57fe5b9060005260206000209060090201600501600081548092919060010191905055505b61265a84611514565b156126a7576126a66001838154811061266f57fe5b906000526020600020906009020160080160019054906101000a900473ffffffffffffffffffffffffffffffffffffffff16611786565b5b50505050565b600080600080600080600260008873ffffffffffffffffffffffffffffffffffffffff1673ffffffffffffffffffffffffffffffffffffffff16815260200190815260200160002054141561274d576040517f08c379a00000000000000000000000000000000000000000000000000000000081526004018080602001828103825260278152602001806133ca6027913960400191505060405180910390fd5b60006001600260008973ffffffffffffffffffffffffffffffffffffffff1673ffffffffffffffffffffffffffffffffffffffff16815260200190815260200160002054039050600181815481106127a157fe5b906000526020600020906009020160040154600182815481106127c057fe5b906000526020600020906009020160050154600183815481106127df57fe5b906000526020600020906009020160020154600184815481106127fe57fe5b9060005260206000209060090201600701546001858154811061281d57fe5b906000526020600020906009020160080160009054906101000a900460ff16955095509550955095505091939590929450565b6000809054906101000a900473ffffffffffffffffffffffffffffffffffffffff1673ffffffffffffffffffffffffffffffffffffffff163373ffffffffffffffffffffffffffffffffffffffff16146128f5576040517f08c379a000000000000000000000000000000000000000000000000000000000815260040180806020018281038252602c815260200180613440602c913960400191505060405180910390fd5b6000600660008473ffffffffffffffffffffffffffffffffffffffff1673ffffffffffffffffffffffffffffffffffffffff168152602001908152602001600020541461298d576040517f08c379a000000000000000000000000000000000000000000000000000000000815260040180806020018281038252602c81526020018061337c602c913960400191505060405180910390fd5b612995613233565b82816000019073ffffffffffffffffffffffffffffffffffffffff16908173ffffffffffffffffffffffffffffffffffffffff16815250508181602001819052506005819080600181540180825580915050906001820390600052602060002090600502016000909192909190915060008201518160000160006101000a81548173ffffffffffffffffffffffffffffffffffffffff021916908373ffffffffffffffffffffffffffffffffffffffff1602179055506020820151816001019080519060200190612a67929190613278565b50604082015181600201556060820151816003015560808201518160040155505050600580549050600660008573ffffffffffffffffffffffffffffffffffffffff1673ffffffffffffffffffffffffffffffffffffffff16815260200190815260200160002081905550505050565b6000600660003373ffffffffffffffffffffffffffffffffffffffff1673ffffffffffffffffffffffffffffffffffffffff1681526020019081526020016000205411612b8c576040517f08c379a000000000000000000000000000000000000000000000000000000000815260040180806020018281038252601d8152602001807f4f7267616e697a6174696f6e20446f6573204e6f74204578697374732e00000081525060200191505060405180910390fd5b60006001600660003373ffffffffffffffffffffffffffffffffffffffff1673ffffffffffffffffffffffffffffffffffffffff1681526020019081526020016000205403905060058181548110612be057fe5b906000526020600020906005020160000160009054906101000a900473ffffffffffffffffffffffffffffffffffffffff1673ffffffffffffffffffffffffffffffffffffffff163373ffffffffffffffffffffffffffffffffffffffff1614612cb2576040517f08c379a00000000000000000000000000000000000000000000000000000000081526004018080602001828103825260168152602001807f4f6e6c792041646d696e20697320616c6c6f776564210000000000000000000081525060200191505060405180910390fd5b8160058281548110612cc057fe5b9060005260206000209060050201600201541015612d46576040517f08c379a00000000000000000000000000000000000000000000000000000000081526004018080602001828103825260138152602001807f4e6f7420656e6f7567682062616c616e6365210000000000000000000000000081525060200191505060405180910390fd5b8273ffffffffffffffffffffffffffffffffffffffff166108fc839081150290604051600060405180830381858888f19350505050158015612d8c573d6000803e3d6000fd5b508160058281548110612d9b57fe5b9060005260206000209060050201600201600082825403925050819055508160058281548110612dc757fe5b906000526020600020906005020160040160008282540192505081905550505050565b600080600460008473ffffffffffffffffffffffffffffffffffffffff1673ffffffffffffffffffffffffffffffffffffffff1681526020019081526020016000205411612e83576040517f08c379a000000000000000000000000000000000000000000000000000000000815260040180806020018281038252602d815260200180613413602d913960400191505060405180910390fd5b6001600460008473ffffffffffffffffffffffffffffffffffffffff1673ffffffffffffffffffffffffffffffffffffffff16815260200190815260200160002054039050919050565b6000600660008373ffffffffffffffffffffffffffffffffffffffff1673ffffffffffffffffffffffffffffffffffffffff1681526020019081526020016000205411612f82576040517f08c379a000000000000000000000000000000000000000000000000000000000815260040180806020018281038252601d8152602001807f4f7267616e697a6174696f6e20446f6573204e6f74204578697374732e00000081525060200191505060405180910390fd5b3460056001600660008573ffffffffffffffffffffffffffffffffffffffff1673ffffffffffffffffffffffffffffffffffffffff168152602001908152602001600020540381548110612fd257fe5b9060005260206000209060050201600201600082825401925050819055503460056001600660008573ffffffffffffffffffffffffffffffffffffffff1673ffffffffffffffffffffffffffffffffffffffff16815260200190815260200160002054038154811061304057fe5b90600052602060002090600502016003016000828254019250508190555050565b6003818154811061306e57fe5b90600052602060002090600602016000915090508060010154908060020154908060030154908060040154908060050160009054906101000a900460ff16908060050160019054906101000a900473ffffffffffffffffffffffffffffffffffffffff16905086565b604051806101200160405280606081526020016000815260200160008152602001600081526020016000815260200160001515815260200160008152602001600060ff168152602001600073ffffffffffffffffffffffffffffffffffffffff1681525090565b82805482825590600052602060002090601f016020900481019282156131d35791602002820160005b838211156131a457835183826101000a81548160ff0219169083151502179055509260200192600101602081600001049283019260010302613167565b80156131d15782816101000a81549060ff02191690556001016020816000010492830192600103026131a4565b505b5090506131e091906132f8565b5090565b6040518060c0016040528060008152602001600081526020016000815260200160008152602001600060ff168152602001600073ffffffffffffffffffffffffffffffffffffffff1681525090565b6040518060a00160405280600073ffffffffffffffffffffffffffffffffffffffff168152602001606081526020016000815260200160008152602001600081525090565b828054600181600116156101000203166002900490600052602060002090601f016020900481019282601f106132b957805160ff19168380011785556132e7565b828001600101855582156132e7579182015b828111156132e65782518255916020019190600101906132cb565b5b5090506132f49190613328565b5090565b61332591905b8082111561332157600081816101000a81549060ff0219169055506001016132fe565b5090565b90565b61334a91905b8082111561334657600081600090555060010161332e565b5090565b9056fe43726f776466756e64696e672045786973747320616e6420646561646c696e65206e6f74206f766572207965742e4f7267616e697a6174696f6e20416c726561647920457869737473206f6e2074686973204163636f756e742e4e6f742056616c69642e204669727374204170706c7920666f7220766f74696e672e566f74696e6720646f6573206e6f7420657869737473206f6e207468697320616464726573732e476f616c20697320726561636865642e596f752063616e6e6f7420726566756e642143726f776446756e64696e6720646f6573206e6f7420657869737473206f6e20746869732061646472657373214f6e6c7920436f6e74726163742041646d696e2063616e20437265617465204f7267616e697a6174696f6e21a265627a7a72315820cd933198d45668aef6c1ae4e99ad86b487d2b3856655fd7404df043057b45cd364736f6c63430005100032",
  "source": "// SPDX-License-Identifier: MIT\r\npragma solidity >=0.4.22 <0.9.0;\r\n\r\n// pragma solidity >=0.4.22 <0.6.0;\r\n\r\ncontract mainTest{   \r\n    \r\n    address payable public contractAdmin;\r\n    constructor() public {\r\n        contractAdmin = msg.sender;\r\n    }\r\n    \r\n    // function getContractAdmin() public view returns(address){\r\n    //     return contractAdmin;\r\n    // }\r\n    \r\n    function getAddrStatus(address addr) view public \r\n    returns(\r\n    uint orgId,\r\n    uint cfId,\r\n    uint votingId\r\n    ){\r\n        return(\r\n            orgIdxDb[addr],\r\n            cfIdxDb[addr],\r\n            votingIdxDb[addr]\r\n        );\r\n    }\r\n\r\n\r\n// ######################### Voting #########################\r\n    \r\n    struct voting{\r\n        mapping(address=>uint) votersIdx;\r\n        bool[] alreadyVoted;\r\n        uint votingDeadline;\r\n        uint cfDeadline;\r\n        uint positiveVotes;\r\n        uint negativeVotes;\r\n        bool valid;\r\n        uint amount;\r\n        uint8 catagory;\r\n        address admin;\r\n    }\r\n    \r\n    // voting[] public votingDb;\r\n    // mapping(address=>voting) votingDb;\r\n    \r\n    // uind id = votingIdxDb[Address] - 1;\r\n    // votingDb[id];\r\n    \r\n    voting[] public votingDb;\r\n    mapping (address => uint) votingIdxDb;\r\n    \r\n    \r\n     function getVotingDbCount() view public returns(uint){\r\n        return votingDb.length;\r\n    }\r\n    \r\n    \r\n    function createVoting(uint deadline,uint cfDeadline,uint _amount, uint8 _catagory) public {\r\n        if(votingIdxDb[msg.sender] > 0){\r\n            require(votingDb[votingIdxDb[msg.sender] - 1].votingDeadline < now,\"Deadline not over yet.\");\r\n        }\r\n        // require(votingIdxDb[msg.sender] == 0,\"Voting Already Exists.\");\r\n        if(cfIdxDb[msg.sender]>0){\r\n            require(cfDb[cfIdxDb[msg.sender] - 1].deadline<now,\"Crowdfunding Exists and deadline not over yet.\");\r\n        }\r\n        voting memory v;\r\n        v.positiveVotes = 0;\r\n        v.negativeVotes = 0;\r\n        v.votingDeadline = deadline + now;\r\n        v.cfDeadline = cfDeadline;\r\n        v.valid = true;\r\n        v.amount = _amount;\r\n        v.catagory = _catagory;\r\n        v.admin = msg.sender;\r\n        votingDb.push(v);\r\n        votingIdxDb[msg.sender] = votingDb.length;\r\n    }\r\n    \r\n    function vote(address votingId,bool doYouAgree) public {\r\n        require(votingId != msg.sender,\"Admin Cannot Vote!\");\r\n        require (orgIdxDb[msg.sender] > 0,\"Only Organizations can Vote!\");\r\n        uint id = votingIdxDb[votingId] - 1;\r\n        require(votingDb[id].votingDeadline>now,\"Voting deadline over!\");\r\n        uint idx = votingDb[id].votersIdx[msg.sender];\r\n        if(idx+1 > votingDb[id].alreadyVoted.length){\r\n            votingDb[id].alreadyVoted.push(true);\r\n            votingDb[id].votersIdx[msg.sender] = votingDb[id].alreadyVoted.length - 1;\r\n        }else{\r\n            require(votingDb[id].alreadyVoted[idx] == false,\"Already Voted!\");\r\n        }\r\n        \r\n        if(doYouAgree){\r\n            votingDb[id].positiveVotes++;\r\n        }else{\r\n            votingDb[id].negativeVotes++;\r\n        }\r\n        \r\n        if(isEligible(votingId)){\r\n            createCrowdFund(votingDb[id].admin);\r\n        }\r\n        \r\n    }\r\n\r\n    function getVotingStatus(address votingId) view public returns(\r\n            uint positiveVotes,\r\n            uint negativeVotes,\r\n            uint deadline,\r\n            uint amount,\r\n            uint8 catagory\r\n        ) {\r\n        require(votingIdxDb[votingId] != 0,\"Voting does not exists on this address.\");\r\n        uint id = votingIdxDb[votingId] - 1;\r\n        return (\r\n            votingDb[id].positiveVotes,\r\n            votingDb[id].negativeVotes,\r\n            votingDb[id].votingDeadline,\r\n            votingDb[id].amount,\r\n            votingDb[id].catagory\r\n        );\r\n    }\r\n    \r\n    \r\n    function isEligible(address votingId) view public returns(bool) {\r\n        //Some logic\r\n        uint id = votingIdxDb[votingId] - 1;\r\n        return (votingDb[id].positiveVotes > votingDb[id].negativeVotes);\r\n    }\r\n    \r\n    \r\n        \r\n    \r\n    \r\n    // function vote(address votingId,bool doYouAgree) public{\r\n    //     uint vIdx = votingDb[votingId].votersIdx[msg.sender];\r\n        \r\n    //     require(votingDb[votingId].votersChoice[vIdx] == false,\"Already Voted!\");\r\n    //     uint idx = votingDb[msg.sender].index;\r\n    //     if(doYouAgree){\r\n    //         votingDb[votingId].positiveVotes++;\r\n    //     }else{\r\n    //         votingDb[votingId].negativeVotes++;\r\n    //     }\r\n    //     votingDb[votingId].voters[msg.sender] = true;\r\n    // }\r\n\r\n// X-X-X-X-X-X-X-X-X-X-X-X-X Voting X-X-X-X-X-X-X-X-X-X-X-X-X\r\n    \r\n    \r\n// ######################### Crowd Funding #########################\r\n    struct crowdFund{\r\n        mapping(address=>uint) contributions;\r\n        uint totalContributors;    \r\n        uint deadline;             \r\n        uint goal;                 \r\n        uint raisedAmount ;    \r\n        uint8 catagory;\r\n        address payable admin;\r\n    }\r\n    \r\n    crowdFund[] public cfDb;\r\n    mapping (address => uint) cfIdxDb;\r\n    \r\n    \r\n    function getCfDbCount() view public returns(uint){\r\n        return cfDb.length;\r\n    }\r\n    \r\n    // function getCfIdFromAddress(address cfAddress) view public returns(uint){\r\n    //     for(uint i=0;i<cfDb.length;i++){\r\n    //         if(cfDb[i].admin == cfAddress){\r\n    //             return i;\r\n    //         }\r\n    //     }\r\n    // }\r\n\r\n    function getCfIdFromAddress(address cfAddress) view public returns(uint){\r\n        require(cfIdxDb[cfAddress] > 0,\"CrowdFunding does not exists on this address!\");\r\n        return (cfIdxDb[cfAddress] - 1);\r\n    }\r\n    \r\n        function createCrowdFund(address addr) public{//uint _deadlineSecs\r\n        uint id = votingIdxDb[addr] - 1;\r\n        require(votingIdxDb[addr] != 0,\"Not Valid. First Apply for voting.\");\r\n        // require(votingDb[id].valid,\"Not Valid. First Apply for voting.!\");\r\n        require(isEligible(addr),\"Not Eligible. No enough votes.\");\r\n        // require(votingDb[id].votingDeadline < now,\"Voting deadline not over yet!\");\r\n        votingDb[id].votingDeadline = now;\r\n        crowdFund memory cf;\r\n        // cf.deadline= now + _deadlineSecs;\r\n        cf.deadline = votingDb[id].cfDeadline + now;\r\n        cf.goal= votingDb[id].amount;\r\n        cf.catagory = votingDb[id].catagory;\r\n        cf.admin = address(uint160(addr));\r\n        cfDb.push(cf);\r\n        // votingDb[id].valid = false;\r\n        // votingIdxDb[addr] = 0;\r\n        cfIdxDb[addr] = cfDb.length;\r\n    }\r\n    \r\n    // function createCrowdFund() public{//uint _deadlineSecs\r\n    //     uint id = votingIdxDb[msg.sender] - 1;\r\n    //     require(votingIdxDb[msg.sender] != 0,\"Not Valid. First Apply for voting.\");\r\n    //     // require(votingDb[id].valid,\"Not Valid. First Apply for voting.!\");\r\n    //     require(isEligible(msg.sender),\"Not Eligible. No enough votes.\");\r\n    //     require(votingDb[id].votingDeadline < now,\"Voting deadline not over yet!\");\r\n    //     crowdFund memory cf;\r\n    //     // cf.deadline= now + _deadlineSecs;\r\n    //     cf.deadline = votingDb[id].cfDeadline + now;\r\n    //     cf.goal= votingDb[id].amount;\r\n    //     cf.catagory = votingDb[id].catagory;\r\n    //     cf.admin = msg.sender;\r\n    //     cfDb.push(cf);\r\n    //     // votingDb[id].valid = false;\r\n    //     votingIdxDb[msg.sender] = 0;\r\n    //     cfIdxDb[msg.sender] = cfDb.length;\r\n    // }\r\n    \r\n    function cf_contribute(uint cfId) public payable {\r\n        require(now < cfDb[cfId].deadline,\"Time is Over!\");\r\n        if(cfDb[cfId].contributions[msg.sender] == 0)\r\n        {\r\n            cfDb[cfId].totalContributors++;\r\n        }\r\n        cfDb[cfId].contributions[msg.sender] += msg.value;\r\n        cfDb[cfId].raisedAmount+=msg.value;\r\n    }\r\n    \r\n    //Get Refund if goal is not reached within the set deadline.\r\n    function cf_getRefund(uint cfId) public {\r\n        require(now > cfDb[cfId].deadline,\"Deadline is not Over!\");\r\n        require(cfDb[cfId].raisedAmount < cfDb[cfId].goal,\"Goal is reached.You cannot refund!\");\r\n        require(cfDb[cfId].contributions[msg.sender] > 0,\"You haven't Contributed!\");\r\n        msg.sender.transfer(cfDb[cfId].contributions[msg.sender]);\r\n        cfDb[cfId].raisedAmount -= cfDb[cfId].contributions[msg.sender];\r\n        cfDb[cfId].contributions[msg.sender] = 0;\r\n    }\r\n    \r\n    function cf_withdrawFunding(uint cfId) public {\r\n        require(msg.sender == cfDb[cfId].admin,\"Only Admin is allowed!\");\r\n        require(cfDb[cfId].raisedAmount >= cfDb[cfId].goal,\"Goal amount not reached!\");\r\n        cfDb[cfId].admin.transfer(cfDb[cfId].raisedAmount);\r\n    }\r\n    \r\n    // function cf_getRemainingTime(uint cfId) view public returns(uint) {\r\n    //    return cfDb[cfId].deadline - now;\r\n    // }\r\n// X-X-X-X-X-X-X-X-X-X-X-X-X Crowd Funding X-X-X-X-X-X-X-X-X-X-X-X-X\r\n\r\n// ######################### Organization #########################\r\n\r\n    struct organization{\r\n        address payable admin;\r\n        string name;\r\n        // bool acceptingZakat;\r\n        uint balanceAmount;\r\n        uint donateTotal;\r\n        uint withdrawTotal;\r\n    }\r\n    \r\n    organization[] public orgDb;\r\n    mapping (address => uint) orgIdxDb;\r\n    \r\n    \r\n    function getOrgDbCount() view public returns(uint){\r\n        return orgDb.length;\r\n    }\r\n\r\n    function getOrgIdFromAddress(address orgAddress) view public returns(uint){\r\n        require (orgIdxDb[orgAddress] > 0,\"Organization Does Not Exists.\");\r\n        return (orgIdxDb[orgAddress] - 1);\r\n    }\r\n    \r\n    event Deposit(address indexed _from, uint _value);\r\n    \r\n    function createOrganization(address payable addr,string memory orgName) public {\r\n        require(msg.sender == contractAdmin,\"Only Contract Admin can Create Organization!\");\r\n        require (orgIdxDb[addr] == 0,\"Organization Already Exists on this Account.\");\r\n        organization memory org;\r\n        org.admin = addr;\r\n        org.name = orgName;\r\n        // org.acceptingZakat = _acceptingZakat;\r\n        orgDb.push(org);\r\n        orgIdxDb[addr] = orgDb.length;\r\n    }\r\n\r\n    function org_id_donate(uint orgId) public payable {\r\n        require (orgId > 0,\"Organization Does Not Exists.\");\r\n        orgDb[orgId].balanceAmount += msg.value;\r\n        orgDb[orgId].donateTotal += msg.value;\r\n        // emit Deposit(msg.sender, msg.value);\r\n    }\r\n\r\n    function org_adr_donate(address orgAdr) public payable {\r\n        require (orgIdxDb[orgAdr] > 0,\"Organization Does Not Exists.\");\r\n        orgDb[orgIdxDb[orgAdr]-1].balanceAmount += msg.value;\r\n        orgDb[orgIdxDb[orgAdr]-1].donateTotal += msg.value;\r\n        // emit Deposit(msg.sender, msg.value);\r\n    }\r\n    \r\n    function org_withdraw(uint amount) public {\r\n        require (orgIdxDb[msg.sender] > 0,\"Organization Does Not Exists.\");\r\n        uint id = orgIdxDb[msg.sender]-1;\r\n        require(msg.sender == orgDb[id].admin,\"Only Admin is allowed!\");\r\n        require(orgDb[id].balanceAmount >= amount,\"Not enough balance!\");\r\n        orgDb[id].admin.transfer(amount);\r\n        orgDb[id].balanceAmount-= amount;\r\n        orgDb[id].withdrawTotal += amount;\r\n    }\r\n    \r\n    function org_send(address payable addr,uint amount) public{\r\n        require (orgIdxDb[msg.sender] > 0,\"Organization Does Not Exists.\");\r\n        uint id = orgIdxDb[msg.sender]-1;\r\n        require(msg.sender == orgDb[id].admin,\"Only Admin is allowed!\");\r\n        require(orgDb[id].balanceAmount >= amount,\"Not enough balance!\");\r\n        addr.transfer(amount);\r\n        orgDb[id].balanceAmount-= amount;\r\n        orgDb[id].withdrawTotal += amount;\r\n    }\r\n    \r\n    // function org_donate(uint orgId) public payable {\r\n    //     orgDb[orgId].balanceAmount += msg.value;\r\n    //     emit Deposit(msg.sender, msg.value);\r\n    // }\r\n    \r\n    // function org_withdraw(uint amount,uint orgId) public {\r\n    //     require(msg.sender == orgDb[orgId].admin,\"Only Admin is allowed!\");\r\n    //     orgDb[orgId].admin.transfer(amount);\r\n    // }\r\n// X-X-X-X-X-X-X-X-X-X-X-X-X Ororganization X-X-X-X-X-X-X-X-X-X-X-X-X\r\n    \r\n    \r\n    \r\n\r\n\r\n\r\n\r\n\r\n\r\n\r\n\r\n\r\n// ######################### Main #########################\r\n\r\n// X-X-X-X-X-X-X-X-X-X-X-X-X Main X-X-X-X-X-X-X-X-X-X-X-X-X\r\n\r\n}\r\n\r\n// contract main{\r\n//     address[] public contracts;\r\n//     function createCrowdFund (uint _deadlineSecs,uint _goal) \r\n//     public \r\n//     returns(address newContract){\r\n//         crowdFund cf = new crowdFund(_deadlineSecs,_goal);\r\n//         contracts.push(address(cf));\r\n//         return address(cf);\r\n//     }\r\n    \r\n//     function getNow(uint id) view public returns(uint) {\r\n//         uint n = crowdFund(contracts[id]).getNow();\r\n//         return n;\r\n//     }\r\n// }\r\n\r\n\r\n\r\n\r\n    // bool[] public tst;\r\n    \r\n    // function pushTst(bool val) public{\r\n    //     tst.push(val);\r\n    // }\r\n    \r\n    // function lenTst() view public returns(uint){\r\n    //     return tst.length;\r\n    // }\r\n    \r\n    // function delTst() public{\r\n    //     delete tst;\r\n    // }",
  "sourcePath": "C:\\Users\\sunrise\\Documents\\proj\\contracts\\mainTest.sol",
  "compiler": {
    "name": "solc",
    "version": "0.5.16+commit.9c3226ce.Emscripten.clang"
  },
  "schemaVersion": "3.4.2",
  "updatedAt": "2021-09-08T16:50:47.060Z",
  "networkType": "ethereum",
  "devdoc": {
    "methods": {}
  },
  "userdoc": {
    "methods": {}
  }
}